{
  "_format": "hh-sol-artifact-1",
  "contractName": "DynamicNFT",
  "sourceName": "contracts/DynamicNFT.sol",
  "abi": [
    {
      "inputs": [],
      "stateMutability": "nonpayable",
      "type": "constructor"
    },
    {
      "inputs": [
        {
          "internalType": "address",
          "name": "sender",
          "type": "address"
        },
        {
          "internalType": "uint256",
          "name": "tokenId",
          "type": "uint256"
        },
        {
          "internalType": "address",
          "name": "owner",
          "type": "address"
        }
      ],
      "name": "ERC721IncorrectOwner",
      "type": "error"
    },
    {
      "inputs": [
        {
          "internalType": "address",
          "name": "operator",
          "type": "address"
        },
        {
          "internalType": "uint256",
          "name": "tokenId",
          "type": "uint256"
        }
      ],
      "name": "ERC721InsufficientApproval",
      "type": "error"
    },
    {
      "inputs": [
        {
          "internalType": "address",
          "name": "approver",
          "type": "address"
        }
      ],
      "name": "ERC721InvalidApprover",
      "type": "error"
    },
    {
      "inputs": [
        {
          "internalType": "address",
          "name": "operator",
          "type": "address"
        }
      ],
      "name": "ERC721InvalidOperator",
      "type": "error"
    },
    {
      "inputs": [
        {
          "internalType": "address",
          "name": "owner",
          "type": "address"
        }
      ],
      "name": "ERC721InvalidOwner",
      "type": "error"
    },
    {
      "inputs": [
        {
          "internalType": "address",
          "name": "receiver",
          "type": "address"
        }
      ],
      "name": "ERC721InvalidReceiver",
      "type": "error"
    },
    {
      "inputs": [
        {
          "internalType": "address",
          "name": "sender",
          "type": "address"
        }
      ],
      "name": "ERC721InvalidSender",
      "type": "error"
    },
    {
      "inputs": [
        {
          "internalType": "uint256",
          "name": "tokenId",
          "type": "uint256"
        }
      ],
      "name": "ERC721NonexistentToken",
      "type": "error"
    },
    {
      "anonymous": false,
      "inputs": [
        {
          "indexed": true,
          "internalType": "address",
          "name": "owner",
          "type": "address"
        },
        {
          "indexed": true,
          "internalType": "address",
          "name": "approved",
          "type": "address"
        },
        {
          "indexed": true,
          "internalType": "uint256",
          "name": "tokenId",
          "type": "uint256"
        }
      ],
      "name": "Approval",
      "type": "event"
    },
    {
      "anonymous": false,
      "inputs": [
        {
          "indexed": true,
          "internalType": "address",
          "name": "owner",
          "type": "address"
        },
        {
          "indexed": true,
          "internalType": "address",
          "name": "operator",
          "type": "address"
        },
        {
          "indexed": false,
          "internalType": "bool",
          "name": "approved",
          "type": "bool"
        }
      ],
      "name": "ApprovalForAll",
      "type": "event"
    },
    {
      "anonymous": false,
      "inputs": [
        {
          "indexed": false,
          "internalType": "uint256",
          "name": "_fromTokenId",
          "type": "uint256"
        },
        {
          "indexed": false,
          "internalType": "uint256",
          "name": "_toTokenId",
          "type": "uint256"
        }
      ],
      "name": "BatchMetadataUpdate",
      "type": "event"
    },
    {
      "anonymous": false,
      "inputs": [
        {
          "indexed": false,
          "internalType": "uint256",
          "name": "_tokenId",
          "type": "uint256"
        }
      ],
      "name": "MetadataUpdate",
      "type": "event"
    },
    {
      "anonymous": false,
      "inputs": [
        {
          "indexed": true,
          "internalType": "address",
          "name": "from",
          "type": "address"
        },
        {
          "indexed": true,
          "internalType": "address",
          "name": "to",
          "type": "address"
        },
        {
          "indexed": true,
          "internalType": "uint256",
          "name": "tokenId",
          "type": "uint256"
        }
      ],
      "name": "Transfer",
      "type": "event"
    },
    {
      "inputs": [
        {
          "internalType": "address",
          "name": "to",
          "type": "address"
        },
        {
          "internalType": "uint256",
          "name": "tokenId",
          "type": "uint256"
        }
      ],
      "name": "approve",
      "outputs": [],
      "stateMutability": "nonpayable",
      "type": "function"
    },
    {
      "inputs": [
        {
          "internalType": "address",
          "name": "owner",
          "type": "address"
        }
      ],
      "name": "balanceOf",
      "outputs": [
        {
          "internalType": "uint256",
          "name": "",
          "type": "uint256"
        }
      ],
      "stateMutability": "view",
      "type": "function"
    },
    {
      "inputs": [
        {
          "internalType": "uint256",
          "name": "tokenId",
          "type": "uint256"
        }
      ],
      "name": "getApproved",
      "outputs": [
        {
          "internalType": "address",
          "name": "",
          "type": "address"
        }
      ],
      "stateMutability": "view",
      "type": "function"
    },
    {
      "inputs": [
        {
          "internalType": "address",
          "name": "owner",
          "type": "address"
        },
        {
          "internalType": "address",
          "name": "operator",
          "type": "address"
        }
      ],
      "name": "isApprovedForAll",
      "outputs": [
        {
          "internalType": "bool",
          "name": "",
          "type": "bool"
        }
      ],
      "stateMutability": "view",
      "type": "function"
    },
    {
      "inputs": [
        {
          "internalType": "address",
          "name": "to",
          "type": "address"
        },
        {
          "internalType": "uint256",
          "name": "tokenId",
          "type": "uint256"
        },
        {
          "internalType": "string",
          "name": "initialURI",
          "type": "string"
        }
      ],
      "name": "mint",
      "outputs": [],
      "stateMutability": "nonpayable",
      "type": "function"
    },
    {
      "inputs": [],
      "name": "name",
      "outputs": [
        {
          "internalType": "string",
          "name": "",
          "type": "string"
        }
      ],
      "stateMutability": "view",
      "type": "function"
    },
    {
      "inputs": [
        {
          "internalType": "uint256",
          "name": "tokenId",
          "type": "uint256"
        }
      ],
      "name": "ownerOf",
      "outputs": [
        {
          "internalType": "address",
          "name": "",
          "type": "address"
        }
      ],
      "stateMutability": "view",
      "type": "function"
    },
    {
      "inputs": [
        {
          "internalType": "address",
          "name": "from",
          "type": "address"
        },
        {
          "internalType": "address",
          "name": "to",
          "type": "address"
        },
        {
          "internalType": "uint256",
          "name": "tokenId",
          "type": "uint256"
        }
      ],
      "name": "safeTransferFrom",
      "outputs": [],
      "stateMutability": "nonpayable",
      "type": "function"
    },
    {
      "inputs": [
        {
          "internalType": "address",
          "name": "from",
          "type": "address"
        },
        {
          "internalType": "address",
          "name": "to",
          "type": "address"
        },
        {
          "internalType": "uint256",
          "name": "tokenId",
          "type": "uint256"
        },
        {
          "internalType": "bytes",
          "name": "data",
          "type": "bytes"
        }
      ],
      "name": "safeTransferFrom",
      "outputs": [],
      "stateMutability": "nonpayable",
      "type": "function"
    },
    {
      "inputs": [
        {
          "internalType": "address",
          "name": "operator",
          "type": "address"
        },
        {
          "internalType": "bool",
          "name": "approved",
          "type": "bool"
        }
      ],
      "name": "setApprovalForAll",
      "outputs": [],
      "stateMutability": "nonpayable",
      "type": "function"
    },
    {
      "inputs": [
        {
          "internalType": "bytes4",
          "name": "interfaceId",
          "type": "bytes4"
        }
      ],
      "name": "supportsInterface",
      "outputs": [
        {
          "internalType": "bool",
          "name": "",
          "type": "bool"
        }
      ],
      "stateMutability": "view",
      "type": "function"
    },
    {
      "inputs": [],
      "name": "symbol",
      "outputs": [
        {
          "internalType": "string",
          "name": "",
          "type": "string"
        }
      ],
      "stateMutability": "view",
      "type": "function"
    },
    {
      "inputs": [
        {
          "internalType": "uint256",
          "name": "tokenId",
          "type": "uint256"
        }
      ],
      "name": "tokenURI",
      "outputs": [
        {
          "internalType": "string",
          "name": "",
          "type": "string"
        }
      ],
      "stateMutability": "view",
      "type": "function"
    },
    {
      "inputs": [
        {
          "internalType": "address",
          "name": "from",
          "type": "address"
        },
        {
          "internalType": "address",
          "name": "to",
          "type": "address"
        },
        {
          "internalType": "uint256",
          "name": "tokenId",
          "type": "uint256"
        }
      ],
      "name": "transferFrom",
      "outputs": [],
      "stateMutability": "nonpayable",
      "type": "function"
    },
    {
      "inputs": [
        {
          "internalType": "uint256",
          "name": "tokenId",
          "type": "uint256"
        },
        {
          "internalType": "string",
          "name": "newURI",
          "type": "string"
        }
      ],
      "name": "updateTokenURI",
      "outputs": [],
      "stateMutability": "nonpayable",
      "type": "function"
    }
  ],
  "bytecode": "0x60806040523480156200001157600080fd5b506040518060400160405280600a815260200169111e5b985b5a58d3919560b21b815250604051806040016040528060048152602001631113919560e21b815250816000908162000063919062000120565b50600162000072828262000120565b505050620001ec565b634e487b7160e01b600052604160045260246000fd5b600181811c90821680620000a657607f821691505b602082108103620000c757634e487b7160e01b600052602260045260246000fd5b50919050565b601f8211156200011b57600081815260208120601f850160051c81016020861015620000f65750805b601f850160051c820191505b81811015620001175782815560010162000102565b5050505b505050565b81516001600160401b038111156200013c576200013c6200007b565b62000154816200014d845462000091565b84620000cd565b602080601f8311600181146200018c5760008415620001735750858301515b600019600386901b1c1916600185901b17855562000117565b600085815260208120601f198616915b82811015620001bd578886015182559484019460019091019084016200019c565b5085821015620001dc5787850151600019600388901b60f8161c191681555b5050505050600190811b01905550565b61139280620001fc6000396000f3fe608060405234801561001057600080fd5b50600436106100f55760003560e01c80636352211e11610097578063b88d4fde11610066578063b88d4fde146101ff578063c87b56dd14610212578063d3fc986414610225578063e985e9c51461023857600080fd5b80636352211e146101b057806370a08231146101c357806395d89b41146101e4578063a22cb465146101ec57600080fd5b8063095ea7b3116100d3578063095ea7b31461016257806318e97fd11461017757806323b872dd1461018a57806342842e0e1461019d57600080fd5b806301ffc9a7146100fa57806306fdde0314610122578063081812fc14610137575b600080fd5b61010d610108366004610e28565b61024b565b60405190151581526020015b60405180910390f35b61012a610276565b6040516101199190610e95565b61014a610145366004610ea8565b610308565b6040516001600160a01b039091168152602001610119565b610175610170366004610edd565b610331565b005b610175610185366004610fb3565b610340565b610175610198366004610ffa565b6103b8565b6101756101ab366004610ffa565b610443565b61014a6101be366004610ea8565b610463565b6101d66101d1366004611036565b61046e565b604051908152602001610119565b61012a6104b6565b6101756101fa366004611051565b6104c5565b61017561020d36600461108d565b6104d0565b61012a610220366004610ea8565b6104e8565b610175610233366004611109565b6105f9565b61010d610246366004611160565b610626565b60006001600160e01b03198216632483248360e11b1480610270575061027082610654565b92915050565b60606000805461028590611193565b80601f01602080910402602001604051908101604052809291908181526020018280546102b190611193565b80156102fe5780601f106102d3576101008083540402835291602001916102fe565b820191906000526020600020905b8154815290600101906020018083116102e157829003601f168201915b5050505050905090565b6000610313826106a4565b506000828152600460205260409020546001600160a01b0316610270565b61033c8282336106dd565b5050565b3361034a83610463565b6001600160a01b0316146103955760405162461bcd60e51b815260206004820152600d60248201526c2737ba103a34329037bbb732b960991b60448201526064015b60405180910390fd5b60008281526007602052604090206103ad8282611213565b5061033c82826106ea565b6001600160a01b0382166103e257604051633250574960e11b81526000600482015260240161038c565b60006103ef83833361073a565b9050836001600160a01b0316816001600160a01b03161461043d576040516364283d7b60e01b81526001600160a01b038086166004830152602482018490528216604482015260640161038c565b50505050565b61045e838383604051806020016040528060008152506104d0565b505050565b6000610270826106a4565b60006001600160a01b03821661049a576040516322718ad960e21b81526000600482015260240161038c565b506001600160a01b031660009081526003602052604090205490565b60606001805461028590611193565b61033c338383610833565b6104db8484846103b8565b61043d33858585856108d2565b60606104f3826106a4565b506000828152600660205260408120805461050d90611193565b80601f016020809104026020016040519081016040528092919081815260200182805461053990611193565b80156105865780601f1061055b57610100808354040283529160200191610586565b820191906000526020600020905b81548152906001019060200180831161056957829003601f168201915b5050505050905060006105a460408051602081019091526000815290565b905080516000036105b6575092915050565b8151156105e85780826040516020016105d09291906112d3565b60405160208183030381529060405292505050919050565b6105f1846109fd565b949350505050565b6106038383610a72565b600082815260076020526040902061061b8282611213565b5061045e82826106ea565b6001600160a01b03918216600090815260056020908152604080832093909416825291909152205460ff1690565b60006001600160e01b031982166380ac58cd60e01b148061068557506001600160e01b03198216635b5e139f60e01b145b8061027057506301ffc9a760e01b6001600160e01b0319831614610270565b6000818152600260205260408120546001600160a01b03168061027057604051637e27328960e01b81526004810184905260240161038c565b61045e8383836001610ad7565b60008281526006602052604090206107028282611213565b506040518281527ff8e1a15aba9398e019f0b49df1a4fde98ee17ae345cb5f6b5e2c27f5033e8ce79060200160405180910390a15050565b6000828152600260205260408120546001600160a01b039081169083161561076757610767818486610bdd565b6001600160a01b038116156107a557610784600085600080610ad7565b6001600160a01b038116600090815260036020526040902080546000190190555b6001600160a01b038516156107d4576001600160a01b0385166000908152600360205260409020805460010190555b60008481526002602052604080822080546001600160a01b0319166001600160a01b0389811691821790925591518793918516917fddf252ad1be2c89b69c2b068fc378daa952ba7f163c4a11628f55a4df523b3ef91a4949350505050565b6001600160a01b03821661086557604051630b61174360e31b81526001600160a01b038316600482015260240161038c565b6001600160a01b03838116600081815260056020908152604080832094871680845294825291829020805460ff191686151590811790915591519182527f17307eab39ab6107e8899845ad3d59bd9653f200f220920489ca2b5937696c31910160405180910390a3505050565b6001600160a01b0383163b156109f657604051630a85bd0160e11b81526001600160a01b0384169063150b7a0290610914908890889087908790600401611302565b6020604051808303816000875af192505050801561094f575060408051601f3d908101601f1916820190925261094c9181019061133f565b60015b6109b8573d80801561097d576040519150601f19603f3d011682016040523d82523d6000602084013e610982565b606091505b5080516000036109b057604051633250574960e11b81526001600160a01b038516600482015260240161038c565b805181602001fd5b6001600160e01b03198116630a85bd0160e11b146109f457604051633250574960e11b81526001600160a01b038516600482015260240161038c565b505b5050505050565b6060610a08826106a4565b506000610a2060408051602081019091526000815290565b90506000815111610a405760405180602001604052806000815250610a6b565b80610a4a84610c41565b604051602001610a5b9291906112d3565b6040516020818303038152906040525b9392505050565b6001600160a01b038216610a9c57604051633250574960e11b81526000600482015260240161038c565b6000610aaa8383600061073a565b90506001600160a01b0381161561045e576040516339e3563760e11b81526000600482015260240161038c565b8080610aeb57506001600160a01b03821615155b15610bad576000610afb846106a4565b90506001600160a01b03831615801590610b275750826001600160a01b0316816001600160a01b031614155b8015610b3a5750610b388184610626565b155b15610b635760405163a9fbf51f60e01b81526001600160a01b038416600482015260240161038c565b8115610bab5783856001600160a01b0316826001600160a01b03167f8c5be1e5ebec7d5bd14f71427d1e84f3dd0314c0f7b2291e5b200ac8c7c3b92560405160405180910390a45b505b5050600090815260046020526040902080546001600160a01b0319166001600160a01b0392909216919091179055565b610be8838383610cd4565b61045e576001600160a01b038316610c1657604051637e27328960e01b81526004810182905260240161038c565b60405163177e802f60e01b81526001600160a01b03831660048201526024810182905260440161038c565b60606000610c4e83610d37565b600101905060008167ffffffffffffffff811115610c6e57610c6e610f07565b6040519080825280601f01601f191660200182016040528015610c98576020820181803683370190505b5090508181016020015b600019016f181899199a1a9b1b9c1cb0b131b232b360811b600a86061a8153600a8504945084610ca257509392505050565b60006001600160a01b038316158015906105f15750826001600160a01b0316846001600160a01b03161480610d0e5750610d0e8484610626565b806105f15750506000908152600460205260409020546001600160a01b03908116911614919050565b60008072184f03e93ff9f4daa797ed6e38ed64bf6a1f0160401b8310610d765772184f03e93ff9f4daa797ed6e38ed64bf6a1f0160401b830492506040015b6d04ee2d6d415b85acef81000000008310610da2576d04ee2d6d415b85acef8100000000830492506020015b662386f26fc100008310610dc057662386f26fc10000830492506010015b6305f5e1008310610dd8576305f5e100830492506008015b6127108310610dec57612710830492506004015b60648310610dfe576064830492506002015b600a83106102705760010192915050565b6001600160e01b031981168114610e2557600080fd5b50565b600060208284031215610e3a57600080fd5b8135610a6b81610e0f565b60005b83811015610e60578181015183820152602001610e48565b50506000910152565b60008151808452610e81816020860160208601610e45565b601f01601f19169290920160200192915050565b602081526000610a6b6020830184610e69565b600060208284031215610eba57600080fd5b5035919050565b80356001600160a01b0381168114610ed857600080fd5b919050565b60008060408385031215610ef057600080fd5b610ef983610ec1565b946020939093013593505050565b634e487b7160e01b600052604160045260246000fd5b600067ffffffffffffffff80841115610f3857610f38610f07565b604051601f8501601f19908116603f01168101908282118183101715610f6057610f60610f07565b81604052809350858152868686011115610f7957600080fd5b858560208301376000602087830101525050509392505050565b600082601f830112610fa457600080fd5b610a6b83833560208501610f1d565b60008060408385031215610fc657600080fd5b82359150602083013567ffffffffffffffff811115610fe457600080fd5b610ff085828601610f93565b9150509250929050565b60008060006060848603121561100f57600080fd5b61101884610ec1565b925061102660208501610ec1565b9150604084013590509250925092565b60006020828403121561104857600080fd5b610a6b82610ec1565b6000806040838503121561106457600080fd5b61106d83610ec1565b91506020830135801515811461108257600080fd5b809150509250929050565b600080600080608085870312156110a357600080fd5b6110ac85610ec1565b93506110ba60208601610ec1565b925060408501359150606085013567ffffffffffffffff8111156110dd57600080fd5b8501601f810187136110ee57600080fd5b6110fd87823560208401610f1d565b91505092959194509250565b60008060006060848603121561111e57600080fd5b61112784610ec1565b925060208401359150604084013567ffffffffffffffff81111561114a57600080fd5b61115686828701610f93565b9150509250925092565b6000806040838503121561117357600080fd5b61117c83610ec1565b915061118a60208401610ec1565b90509250929050565b600181811c908216806111a757607f821691505b6020821081036111c757634e487b7160e01b600052602260045260246000fd5b50919050565b601f82111561045e57600081815260208120601f850160051c810160208610156111f45750805b601f850160051c820191505b818110156109f457828155600101611200565b815167ffffffffffffffff81111561122d5761122d610f07565b6112418161123b8454611193565b846111cd565b602080601f831160018114611276576000841561125e5750858301515b600019600386901b1c1916600185901b1785556109f4565b600085815260208120601f198616915b828110156112a557888601518255948401946001909101908401611286565b50858210156112c35787850151600019600388901b60f8161c191681555b5050505050600190811b01905550565b600083516112e5818460208801610e45565b8351908301906112f9818360208801610e45565b01949350505050565b6001600160a01b038581168252841660208201526040810183905260806060820181905260009061133590830184610e69565b9695505050505050565b60006020828403121561135157600080fd5b8151610a6b81610e0f56fea2646970667358221220fde6bfb2697d0189d15e8a2a789cccbc3d3b09615600145e9f3d77c327e6618c64736f6c63430008140033",
  "linkReferences": {},
  "deployedLinkReferences": {}
}