{
  "_format": "hh-sol-artifact-1",
  "contractName": "UpgradeableERC1155",
  "sourceName": "contracts/UpgradeableERC1155.sol",
  "abi": [
    {
      "inputs": [],
      "stateMutability": "nonpayable",
      "type": "constructor"
    },
    {
      "inputs": [
        {
          "internalType": "address",
          "name": "sender",
          "type": "address"
        },
        {
          "internalType": "uint256",
          "name": "balance",
          "type": "uint256"
        },
        {
          "internalType": "uint256",
          "name": "needed",
          "type": "uint256"
        },
        {
          "internalType": "uint256",
          "name": "tokenId",
          "type": "uint256"
        }
      ],
      "name": "ERC1155InsufficientBalance",
      "type": "error"
    },
    {
      "inputs": [
        {
          "internalType": "address",
          "name": "approver",
          "type": "address"
        }
      ],
      "name": "ERC1155InvalidApprover",
      "type": "error"
    },
    {
      "inputs": [
        {
          "internalType": "uint256",
          "name": "idsLength",
          "type": "uint256"
        },
        {
          "internalType": "uint256",
          "name": "valuesLength",
          "type": "uint256"
        }
      ],
      "name": "ERC1155InvalidArrayLength",
      "type": "error"
    },
    {
      "inputs": [
        {
          "internalType": "address",
          "name": "operator",
          "type": "address"
        }
      ],
      "name": "ERC1155InvalidOperator",
      "type": "error"
    },
    {
      "inputs": [
        {
          "internalType": "address",
          "name": "receiver",
          "type": "address"
        }
      ],
      "name": "ERC1155InvalidReceiver",
      "type": "error"
    },
    {
      "inputs": [
        {
          "internalType": "address",
          "name": "sender",
          "type": "address"
        }
      ],
      "name": "ERC1155InvalidSender",
      "type": "error"
    },
    {
      "inputs": [
        {
          "internalType": "address",
          "name": "operator",
          "type": "address"
        },
        {
          "internalType": "address",
          "name": "owner",
          "type": "address"
        }
      ],
      "name": "ERC1155MissingApprovalForAll",
      "type": "error"
    },
    {
      "inputs": [],
      "name": "InvalidInitialization",
      "type": "error"
    },
    {
      "inputs": [],
      "name": "NotInitializing",
      "type": "error"
    },
    {
      "anonymous": false,
      "inputs": [
        {
          "indexed": true,
          "internalType": "address",
          "name": "account",
          "type": "address"
        },
        {
          "indexed": true,
          "internalType": "address",
          "name": "operator",
          "type": "address"
        },
        {
          "indexed": false,
          "internalType": "bool",
          "name": "approved",
          "type": "bool"
        }
      ],
      "name": "ApprovalForAll",
      "type": "event"
    },
    {
      "anonymous": false,
      "inputs": [
        {
          "indexed": false,
          "internalType": "uint64",
          "name": "version",
          "type": "uint64"
        }
      ],
      "name": "Initialized",
      "type": "event"
    },
    {
      "anonymous": false,
      "inputs": [
        {
          "indexed": true,
          "internalType": "address",
          "name": "operator",
          "type": "address"
        },
        {
          "indexed": true,
          "internalType": "address",
          "name": "from",
          "type": "address"
        },
        {
          "indexed": true,
          "internalType": "address",
          "name": "to",
          "type": "address"
        },
        {
          "indexed": false,
          "internalType": "uint256[]",
          "name": "ids",
          "type": "uint256[]"
        },
        {
          "indexed": false,
          "internalType": "uint256[]",
          "name": "values",
          "type": "uint256[]"
        }
      ],
      "name": "TransferBatch",
      "type": "event"
    },
    {
      "anonymous": false,
      "inputs": [
        {
          "indexed": true,
          "internalType": "address",
          "name": "operator",
          "type": "address"
        },
        {
          "indexed": true,
          "internalType": "address",
          "name": "from",
          "type": "address"
        },
        {
          "indexed": true,
          "internalType": "address",
          "name": "to",
          "type": "address"
        },
        {
          "indexed": false,
          "internalType": "uint256",
          "name": "id",
          "type": "uint256"
        },
        {
          "indexed": false,
          "internalType": "uint256",
          "name": "value",
          "type": "uint256"
        }
      ],
      "name": "TransferSingle",
      "type": "event"
    },
    {
      "anonymous": false,
      "inputs": [
        {
          "indexed": false,
          "internalType": "string",
          "name": "value",
          "type": "string"
        },
        {
          "indexed": true,
          "internalType": "uint256",
          "name": "id",
          "type": "uint256"
        }
      ],
      "name": "URI",
      "type": "event"
    },
    {
      "inputs": [
        {
          "internalType": "address",
          "name": "account",
          "type": "address"
        },
        {
          "internalType": "uint256",
          "name": "id",
          "type": "uint256"
        }
      ],
      "name": "balanceOf",
      "outputs": [
        {
          "internalType": "uint256",
          "name": "",
          "type": "uint256"
        }
      ],
      "stateMutability": "view",
      "type": "function"
    },
    {
      "inputs": [
        {
          "internalType": "address[]",
          "name": "accounts",
          "type": "address[]"
        },
        {
          "internalType": "uint256[]",
          "name": "ids",
          "type": "uint256[]"
        }
      ],
      "name": "balanceOfBatch",
      "outputs": [
        {
          "internalType": "uint256[]",
          "name": "",
          "type": "uint256[]"
        }
      ],
      "stateMutability": "view",
      "type": "function"
    },
    {
      "inputs": [
        {
          "internalType": "string",
          "name": "uri",
          "type": "string"
        }
      ],
      "name": "initialize",
      "outputs": [],
      "stateMutability": "nonpayable",
      "type": "function"
    },
    {
      "inputs": [
        {
          "internalType": "address",
          "name": "account",
          "type": "address"
        },
        {
          "internalType": "address",
          "name": "operator",
          "type": "address"
        }
      ],
      "name": "isApprovedForAll",
      "outputs": [
        {
          "internalType": "bool",
          "name": "",
          "type": "bool"
        }
      ],
      "stateMutability": "view",
      "type": "function"
    },
    {
      "inputs": [
        {
          "internalType": "address",
          "name": "to",
          "type": "address"
        },
        {
          "internalType": "uint256",
          "name": "id",
          "type": "uint256"
        },
        {
          "internalType": "uint256",
          "name": "amount",
          "type": "uint256"
        }
      ],
      "name": "mint",
      "outputs": [],
      "stateMutability": "nonpayable",
      "type": "function"
    },
    {
      "inputs": [
        {
          "internalType": "address",
          "name": "from",
          "type": "address"
        },
        {
          "internalType": "address",
          "name": "to",
          "type": "address"
        },
        {
          "internalType": "uint256[]",
          "name": "ids",
          "type": "uint256[]"
        },
        {
          "internalType": "uint256[]",
          "name": "values",
          "type": "uint256[]"
        },
        {
          "internalType": "bytes",
          "name": "data",
          "type": "bytes"
        }
      ],
      "name": "safeBatchTransferFrom",
      "outputs": [],
      "stateMutability": "nonpayable",
      "type": "function"
    },
    {
      "inputs": [
        {
          "internalType": "address",
          "name": "from",
          "type": "address"
        },
        {
          "internalType": "address",
          "name": "to",
          "type": "address"
        },
        {
          "internalType": "uint256",
          "name": "id",
          "type": "uint256"
        },
        {
          "internalType": "uint256",
          "name": "value",
          "type": "uint256"
        },
        {
          "internalType": "bytes",
          "name": "data",
          "type": "bytes"
        }
      ],
      "name": "safeTransferFrom",
      "outputs": [],
      "stateMutability": "nonpayable",
      "type": "function"
    },
    {
      "inputs": [
        {
          "internalType": "address",
          "name": "operator",
          "type": "address"
        },
        {
          "internalType": "bool",
          "name": "approved",
          "type": "bool"
        }
      ],
      "name": "setApprovalForAll",
      "outputs": [],
      "stateMutability": "nonpayable",
      "type": "function"
    },
    {
      "inputs": [
        {
          "internalType": "bytes4",
          "name": "interfaceId",
          "type": "bytes4"
        }
      ],
      "name": "supportsInterface",
      "outputs": [
        {
          "internalType": "bool",
          "name": "",
          "type": "bool"
        }
      ],
      "stateMutability": "view",
      "type": "function"
    },
    {
      "inputs": [
        {
          "internalType": "uint256",
          "name": "tokenId",
          "type": "uint256"
        }
      ],
      "name": "uri",
      "outputs": [
        {
          "internalType": "string",
          "name": "",
          "type": "string"
        }
      ],
      "stateMutability": "view",
      "type": "function"
    }
  ],
  "bytecode": "0x60a0604052600060809081526003906200001a908262000101565b503480156200002857600080fd5b5060408051602081019091526000815262000043816200004a565b50620001cd565b600262000058828262000101565b5050565b634e487b7160e01b600052604160045260246000fd5b600181811c908216806200008757607f821691505b602082108103620000a857634e487b7160e01b600052602260045260246000fd5b50919050565b601f821115620000fc57600081815260208120601f850160051c81016020861015620000d75750805b601f850160051c820191505b81811015620000f857828155600101620000e3565b5050505b505050565b81516001600160401b038111156200011d576200011d6200005c565b62000135816200012e845462000072565b84620000ae565b602080601f8311600181146200016d5760008415620001545750858301515b600019600386901b1c1916600185901b178555620000f8565b600085815260208120601f198616915b828110156200019e578886015182559484019460019091019084016200017d565b5085821015620001bd5787850151600019600388901b60f8161c191681555b5050505050600190811b01905550565b6115a180620001dd6000396000f3fe608060405234801561001057600080fd5b506004361061009d5760003560e01c80634e1273f4116100665780634e1273f414610133578063a22cb46514610153578063e985e9c514610166578063f242432a14610179578063f62d18881461018c57600080fd5b8062fdd58e146100a257806301ffc9a7146100c85780630e89341c146100eb578063156e29f61461010b5780632eb2c2d614610120575b600080fd5b6100b56100b0366004610d24565b61019f565b6040519081526020015b60405180910390f35b6100db6100d6366004610d67565b6101c7565b60405190151581526020016100bf565b6100fe6100f9366004610d84565b610217565b6040516100bf9190610ded565b61011e610119366004610e00565b6102f7565b005b61011e61012e366004610f81565b610317565b61014661014136600461102b565b610383565b6040516100bf9190611126565b61011e610161366004611139565b610458565b6100db610174366004611175565b610467565b61011e6101873660046111a8565b610495565b61011e61019a36600461120d565b6104f4565b6000818152602081815260408083206001600160a01b03861684529091529020545b92915050565b60006001600160e01b03198216636cdb3d1360e11b14806101f857506001600160e01b031982166303a24d0760e21b145b806101c157506301ffc9a760e01b6001600160e01b03198316146101c1565b6000818152600460205260408120805460609291906102359061125e565b80601f01602080910402602001604051908101604052809291908181526020018280546102619061125e565b80156102ae5780601f10610283576101008083540402835291602001916102ae565b820191906000526020600020905b81548152906001019060200180831161029157829003601f168201915b5050505050905060008151116102cc576102c783610603565b6102f0565b6003816040516020016102e0929190611298565b6040516020818303038152906040525b9392505050565b61031283838360405180602001604052806000815250610697565b505050565b336001600160a01b038616811480159061033857506103368682610467565b155b1561036e5760405163711bec9160e11b81526001600160a01b038083166004830152871660248201526044015b60405180910390fd5b61037b86868686866106f4565b505050505050565b606081518351146103b45781518351604051635b05999160e01b815260048101929092526024820152604401610365565b6000835167ffffffffffffffff8111156103d0576103d0610e33565b6040519080825280602002602001820160405280156103f9578160200160208202803683370190505b50905060005b8451811015610450576020808202860101516104239060208084028701015161019f565b8282815181106104355761043561131f565b60209081029190910101526104498161134b565b90506103ff565b509392505050565b61046333838361075b565b5050565b6001600160a01b03918216600090815260016020908152604080832093909416825291909152205460ff1690565b336001600160a01b03861681148015906104b657506104b48682610467565b155b156104e75760405163711bec9160e11b81526001600160a01b03808316600483015287166024820152604401610365565b61037b86868686866107f1565b7ff0c57e16840df040f15088dc2f81fe391c3923bec73e23a9662efc9c229c6a008054600160401b810460ff16159067ffffffffffffffff1660008115801561053a5750825b905060008267ffffffffffffffff1660011480156105575750303b155b905081158015610565575080155b156105835760405163f92ee8a960e01b815260040160405180910390fd5b845467ffffffffffffffff1916600117855583156105ad57845460ff60401b1916600160401b1785555b6105b68661087f565b831561037b57845460ff60401b19168555604051600181527fc7f505b2f371ae2175ee4913f4499e1f2633a7b5936321eed1cdaeb6115181d29060200160405180910390a1505050505050565b6060600280546106129061125e565b80601f016020809104026020016040519081016040528092919081815260200182805461063e9061125e565b801561068b5780601f106106605761010080835404028352916020019161068b565b820191906000526020600020905b81548152906001019060200180831161066e57829003601f168201915b50505050509050919050565b6001600160a01b0384166106c157604051632bfa23e760e11b815260006004820152602401610365565b6040805160018082526020820186905281830190815260608201859052608082019092529061037b60008784848761088b565b6001600160a01b03841661071e57604051632bfa23e760e11b815260006004820152602401610365565b6001600160a01b03851661074757604051626a0d4560e21b815260006004820152602401610365565b610754858585858561088b565b5050505050565b6001600160a01b0382166107845760405162ced3e160e81b815260006004820152602401610365565b6001600160a01b03838116600081815260016020908152604080832094871680845294825291829020805460ff191686151590811790915591519182527f17307eab39ab6107e8899845ad3d59bd9653f200f220920489ca2b5937696c31910160405180910390a3505050565b6001600160a01b03841661081b57604051632bfa23e760e11b815260006004820152602401610365565b6001600160a01b03851661084457604051626a0d4560e21b815260006004820152602401610365565b60408051600180825260208201869052818301908152606082018590526080820190925290610876878784848761088b565b50505050505050565b600261046382826113aa565b610897858585856108de565b6001600160a01b0384161561075457825133906001036108d057602084810151908401516108c9838989858589610afb565b505061037b565b61037b818787878787610c1f565b805182511461090d5781518151604051635b05999160e01b815260048101929092526024820152604401610365565b3360005b8351811015610a1c576020818102858101820151908501909101516001600160a01b038816156109c4576000828152602081815260408083206001600160a01b038c1684529091529020548181101561099d576040516303dee4c560e01b81526001600160a01b038a166004820152602481018290526044810183905260648101849052608401610365565b6000838152602081815260408083206001600160a01b038d16845290915290209082900390555b6001600160a01b03871615610a09576000828152602081815260408083206001600160a01b038b16845290915281208054839290610a0390849061146a565b90915550505b505080610a159061134b565b9050610911565b508251600103610a9d5760208301516000906020840151909150856001600160a01b0316876001600160a01b0316846001600160a01b03167fc3d58168c5ae7397731d063d5bbf3d657854427343f4c083240f7aacaa2d0f628585604051610a8e929190918252602082015260400190565b60405180910390a45050610754565b836001600160a01b0316856001600160a01b0316826001600160a01b03167f4a39dc06d4c0dbc64b70af90fd698a233a518aa5d07e595d983b8c0526c8f7fb8686604051610aec92919061147d565b60405180910390a45050505050565b6001600160a01b0384163b1561037b5760405163f23a6e6160e01b81526001600160a01b0385169063f23a6e6190610b3f90899089908890889088906004016114ab565b6020604051808303816000875af1925050508015610b7a575060408051601f3d908101601f19168201909252610b77918101906114f0565b60015b610be3573d808015610ba8576040519150601f19603f3d011682016040523d82523d6000602084013e610bad565b606091505b508051600003610bdb57604051632bfa23e760e11b81526001600160a01b0386166004820152602401610365565b805181602001fd5b6001600160e01b0319811663f23a6e6160e01b1461087657604051632bfa23e760e11b81526001600160a01b0386166004820152602401610365565b6001600160a01b0384163b1561037b5760405163bc197c8160e01b81526001600160a01b0385169063bc197c8190610c63908990899088908890889060040161150d565b6020604051808303816000875af1925050508015610c9e575060408051601f3d908101601f19168201909252610c9b918101906114f0565b60015b610ccc573d808015610ba8576040519150601f19603f3d011682016040523d82523d6000602084013e610bad565b6001600160e01b0319811663bc197c8160e01b1461087657604051632bfa23e760e11b81526001600160a01b0386166004820152602401610365565b80356001600160a01b0381168114610d1f57600080fd5b919050565b60008060408385031215610d3757600080fd5b610d4083610d08565b946020939093013593505050565b6001600160e01b031981168114610d6457600080fd5b50565b600060208284031215610d7957600080fd5b81356102f081610d4e565b600060208284031215610d9657600080fd5b5035919050565b60005b83811015610db8578181015183820152602001610da0565b50506000910152565b60008151808452610dd9816020860160208601610d9d565b601f01601f19169290920160200192915050565b6020815260006102f06020830184610dc1565b600080600060608486031215610e1557600080fd5b610e1e84610d08565b95602085013595506040909401359392505050565b634e487b7160e01b600052604160045260246000fd5b604051601f8201601f1916810167ffffffffffffffff81118282101715610e7257610e72610e33565b604052919050565b600067ffffffffffffffff821115610e9457610e94610e33565b5060051b60200190565b600082601f830112610eaf57600080fd5b81356020610ec4610ebf83610e7a565b610e49565b82815260059290921b84018101918181019086841115610ee357600080fd5b8286015b84811015610efe5780358352918301918301610ee7565b509695505050505050565b600067ffffffffffffffff831115610f2357610f23610e33565b610f36601f8401601f1916602001610e49565b9050828152838383011115610f4a57600080fd5b828260208301376000602084830101529392505050565b600082601f830112610f7257600080fd5b6102f083833560208501610f09565b600080600080600060a08688031215610f9957600080fd5b610fa286610d08565b9450610fb060208701610d08565b9350604086013567ffffffffffffffff80821115610fcd57600080fd5b610fd989838a01610e9e565b94506060880135915080821115610fef57600080fd5b610ffb89838a01610e9e565b9350608088013591508082111561101157600080fd5b5061101e88828901610f61565b9150509295509295909350565b6000806040838503121561103e57600080fd5b823567ffffffffffffffff8082111561105657600080fd5b818501915085601f83011261106a57600080fd5b8135602061107a610ebf83610e7a565b82815260059290921b8401810191818101908984111561109957600080fd5b948201945b838610156110be576110af86610d08565b8252948201949082019061109e565b965050860135925050808211156110d457600080fd5b506110e185828601610e9e565b9150509250929050565b600081518084526020808501945080840160005b8381101561111b578151875295820195908201906001016110ff565b509495945050505050565b6020815260006102f060208301846110eb565b6000806040838503121561114c57600080fd5b61115583610d08565b91506020830135801515811461116a57600080fd5b809150509250929050565b6000806040838503121561118857600080fd5b61119183610d08565b915061119f60208401610d08565b90509250929050565b600080600080600060a086880312156111c057600080fd5b6111c986610d08565b94506111d760208701610d08565b93506040860135925060608601359150608086013567ffffffffffffffff81111561120157600080fd5b61101e88828901610f61565b60006020828403121561121f57600080fd5b813567ffffffffffffffff81111561123657600080fd5b8201601f8101841361124757600080fd5b61125684823560208401610f09565b949350505050565b600181811c9082168061127257607f821691505b60208210810361129257634e487b7160e01b600052602260045260246000fd5b50919050565b60008084546112a68161125e565b600182811680156112be57600181146112d357611302565b60ff1984168752821515830287019450611302565b8860005260208060002060005b858110156112f95781548a8201529084019082016112e0565b50505082870194505b505050508351611316818360208801610d9d565b01949350505050565b634e487b7160e01b600052603260045260246000fd5b634e487b7160e01b600052601160045260246000fd5b60006001820161135d5761135d611335565b5060010190565b601f82111561031257600081815260208120601f850160051c8101602086101561138b5750805b601f850160051c820191505b8181101561037b57828155600101611397565b815167ffffffffffffffff8111156113c4576113c4610e33565b6113d8816113d2845461125e565b84611364565b602080601f83116001811461140d57600084156113f55750858301515b600019600386901b1c1916600185901b17855561037b565b600085815260208120601f198616915b8281101561143c5788860151825594840194600190910190840161141d565b508582101561145a5787850151600019600388901b60f8161c191681555b5050505050600190811b01905550565b808201808211156101c1576101c1611335565b60408152600061149060408301856110eb565b82810360208401526114a281856110eb565b95945050505050565b6001600160a01b03868116825285166020820152604081018490526060810183905260a0608082018190526000906114e590830184610dc1565b979650505050505050565b60006020828403121561150257600080fd5b81516102f081610d4e565b6001600160a01b0386811682528516602082015260a060408201819052600090611539908301866110eb565b828103606084015261154b81866110eb565b9050828103608084015261155f8185610dc1565b9897505050505050505056fea26469706673582212206126ce851ff2f19b4a9a80384fc4c39c05590b67ad1b3c6f95b4ef3e9f1eb26264736f6c63430008140033",
  "linkReferences": {},
  "deployedLinkReferences": {}
}