{
  "_format": "hh-sol-artifact-1",
  "contractName": "FeeToken",
  "sourceName": "contracts/FeeToken.sol",
  "abi": [
    {
      "inputs": [
        {
          "internalType": "string",
          "name": "name",
          "type": "string"
        },
        {
          "internalType": "string",
          "name": "symbol",
          "type": "string"
        },
        {
          "internalType": "uint8",
          "name": "decimals",
          "type": "uint8"
        },
        {
          "internalType": "address",
          "name": "_feeReceiver",
          "type": "address"
        }
      ],
      "stateMutability": "nonpayable",
      "type": "constructor"
    },
    {
      "inputs": [
        {
          "internalType": "address",
          "name": "spender",
          "type": "address"
        },
        {
          "internalType": "uint256",
          "name": "allowance",
          "type": "uint256"
        },
        {
          "internalType": "uint256",
          "name": "needed",
          "type": "uint256"
        }
      ],
      "name": "ERC20InsufficientAllowance",
      "type": "error"
    },
    {
      "inputs": [
        {
          "internalType": "address",
          "name": "sender",
          "type": "address"
        },
        {
          "internalType": "uint256",
          "name": "balance",
          "type": "uint256"
        },
        {
          "internalType": "uint256",
          "name": "needed",
          "type": "uint256"
        }
      ],
      "name": "ERC20InsufficientBalance",
      "type": "error"
    },
    {
      "inputs": [
        {
          "internalType": "address",
          "name": "approver",
          "type": "address"
        }
      ],
      "name": "ERC20InvalidApprover",
      "type": "error"
    },
    {
      "inputs": [
        {
          "internalType": "address",
          "name": "receiver",
          "type": "address"
        }
      ],
      "name": "ERC20InvalidReceiver",
      "type": "error"
    },
    {
      "inputs": [
        {
          "internalType": "address",
          "name": "sender",
          "type": "address"
        }
      ],
      "name": "ERC20InvalidSender",
      "type": "error"
    },
    {
      "inputs": [
        {
          "internalType": "address",
          "name": "spender",
          "type": "address"
        }
      ],
      "name": "ERC20InvalidSpender",
      "type": "error"
    },
    {
      "anonymous": false,
      "inputs": [
        {
          "indexed": true,
          "internalType": "address",
          "name": "owner",
          "type": "address"
        },
        {
          "indexed": true,
          "internalType": "address",
          "name": "spender",
          "type": "address"
        },
        {
          "indexed": false,
          "internalType": "uint256",
          "name": "value",
          "type": "uint256"
        }
      ],
      "name": "Approval",
      "type": "event"
    },
    {
      "anonymous": false,
      "inputs": [
        {
          "indexed": true,
          "internalType": "address",
          "name": "from",
          "type": "address"
        },
        {
          "indexed": true,
          "internalType": "address",
          "name": "to",
          "type": "address"
        },
        {
          "indexed": false,
          "internalType": "uint256",
          "name": "value",
          "type": "uint256"
        }
      ],
      "name": "Transfer",
      "type": "event"
    },
    {
      "inputs": [
        {
          "internalType": "address",
          "name": "owner",
          "type": "address"
        },
        {
          "internalType": "address",
          "name": "spender",
          "type": "address"
        }
      ],
      "name": "allowance",
      "outputs": [
        {
          "internalType": "uint256",
          "name": "",
          "type": "uint256"
        }
      ],
      "stateMutability": "view",
      "type": "function"
    },
    {
      "inputs": [
        {
          "internalType": "address",
          "name": "spender",
          "type": "address"
        },
        {
          "internalType": "uint256",
          "name": "value",
          "type": "uint256"
        }
      ],
      "name": "approve",
      "outputs": [
        {
          "internalType": "bool",
          "name": "",
          "type": "bool"
        }
      ],
      "stateMutability": "nonpayable",
      "type": "function"
    },
    {
      "inputs": [
        {
          "internalType": "address",
          "name": "account",
          "type": "address"
        }
      ],
      "name": "balanceOf",
      "outputs": [
        {
          "internalType": "uint256",
          "name": "",
          "type": "uint256"
        }
      ],
      "stateMutability": "view",
      "type": "function"
    },
    {
      "inputs": [],
      "name": "decimals",
      "outputs": [
        {
          "internalType": "uint8",
          "name": "",
          "type": "uint8"
        }
      ],
      "stateMutability": "view",
      "type": "function"
    },
    {
      "inputs": [],
      "name": "feePercentage",
      "outputs": [
        {
          "internalType": "uint256",
          "name": "",
          "type": "uint256"
        }
      ],
      "stateMutability": "view",
      "type": "function"
    },
    {
      "inputs": [],
      "name": "feeReceiver",
      "outputs": [
        {
          "internalType": "address",
          "name": "",
          "type": "address"
        }
      ],
      "stateMutability": "view",
      "type": "function"
    },
    {
      "inputs": [],
      "name": "name",
      "outputs": [
        {
          "internalType": "string",
          "name": "",
          "type": "string"
        }
      ],
      "stateMutability": "view",
      "type": "function"
    },
    {
      "inputs": [],
      "name": "symbol",
      "outputs": [
        {
          "internalType": "string",
          "name": "",
          "type": "string"
        }
      ],
      "stateMutability": "view",
      "type": "function"
    },
    {
      "inputs": [],
      "name": "totalSupply",
      "outputs": [
        {
          "internalType": "uint256",
          "name": "",
          "type": "uint256"
        }
      ],
      "stateMutability": "view",
      "type": "function"
    },
    {
      "inputs": [
        {
          "internalType": "address",
          "name": "recipient",
          "type": "address"
        },
        {
          "internalType": "uint256",
          "name": "amount",
          "type": "uint256"
        }
      ],
      "name": "transfer",
      "outputs": [
        {
          "internalType": "bool",
          "name": "",
          "type": "bool"
        }
      ],
      "stateMutability": "nonpayable",
      "type": "function"
    },
    {
      "inputs": [
        {
          "internalType": "address",
          "name": "sender",
          "type": "address"
        },
        {
          "internalType": "address",
          "name": "recipient",
          "type": "address"
        },
        {
          "internalType": "uint256",
          "name": "amount",
          "type": "uint256"
        }
      ],
      "name": "transferFrom",
      "outputs": [
        {
          "internalType": "bool",
          "name": "",
          "type": "bool"
        }
      ],
      "stateMutability": "nonpayable",
      "type": "function"
    }
  ],
  "bytecode": "0x608060405260026005553480156200001657600080fd5b5060405162000eb638038062000eb68339810160408190526200003991620002e1565b8383600362000049838262000414565b50600462000058828262000414565b5050600680546001600160a01b0319166001600160a01b038416179055506200009d336200008884600a620005f5565b6200009790620f42406200060d565b620000a7565b505050506200063d565b6001600160a01b038216620000d75760405163ec442f0560e01b8152600060048201526024015b60405180910390fd5b620000e560008383620000e9565b5050565b6001600160a01b038316620001185780600260008282546200010c919062000627565b909155506200018c9050565b6001600160a01b038316600090815260208190526040902054818110156200016d5760405163391434e360e21b81526001600160a01b03851660048201526024810182905260448101839052606401620000ce565b6001600160a01b03841660009081526020819052604090209082900390555b6001600160a01b038216620001aa57600280548290039055620001c9565b6001600160a01b03821660009081526020819052604090208054820190555b816001600160a01b0316836001600160a01b03167fddf252ad1be2c89b69c2b068fc378daa952ba7f163c4a11628f55a4df523b3ef836040516200020f91815260200190565b60405180910390a3505050565b634e487b7160e01b600052604160045260246000fd5b600082601f8301126200024457600080fd5b81516001600160401b03808211156200026157620002616200021c565b604051601f8301601f19908116603f011681019082821181831017156200028c576200028c6200021c565b81604052838152602092508683858801011115620002a957600080fd5b600091505b83821015620002cd5785820183015181830184015290820190620002ae565b600093810190920192909252949350505050565b60008060008060808587031215620002f857600080fd5b84516001600160401b03808211156200031057600080fd5b6200031e8883890162000232565b955060208701519150808211156200033557600080fd5b50620003448782880162000232565b935050604085015160ff811681146200035c57600080fd5b60608601519092506001600160a01b03811681146200037a57600080fd5b939692955090935050565b600181811c908216806200039a57607f821691505b602082108103620003bb57634e487b7160e01b600052602260045260246000fd5b50919050565b601f8211156200040f57600081815260208120601f850160051c81016020861015620003ea5750805b601f850160051c820191505b818110156200040b57828155600101620003f6565b5050505b505050565b81516001600160401b038111156200043057620004306200021c565b620004488162000441845462000385565b84620003c1565b602080601f831160018114620004805760008415620004675750858301515b600019600386901b1c1916600185901b1785556200040b565b600085815260208120601f198616915b82811015620004b15788860151825594840194600190910190840162000490565b5085821015620004d05787850151600019600388901b60f8161c191681555b5050505050600190811b01905550565b634e487b7160e01b600052601160045260246000fd5b600181815b80851115620005375781600019048211156200051b576200051b620004e0565b808516156200052957918102915b93841c9390800290620004fb565b509250929050565b6000826200055057506001620005ef565b816200055f57506000620005ef565b81600181146200057857600281146200058357620005a3565b6001915050620005ef565b60ff841115620005975762000597620004e0565b50506001821b620005ef565b5060208310610133831016604e8410600b8410161715620005c8575081810a620005ef565b620005d48383620004f6565b8060001904821115620005eb57620005eb620004e0565b0290505b92915050565b60006200060660ff8416836200053f565b9392505050565b8082028115828204841417620005ef57620005ef620004e0565b80820180821115620005ef57620005ef620004e0565b610869806200064d6000396000f3fe608060405234801561001057600080fd5b50600436106100a95760003560e01c806370a082311161007157806370a082311461012357806395d89b411461014c578063a001ecdd14610154578063a9059cbb1461015d578063b3f0067414610170578063dd62ed3e1461019b57600080fd5b806306fdde03146100ae578063095ea7b3146100cc57806318160ddd146100ef57806323b872dd14610101578063313ce56714610114575b600080fd5b6100b66101d4565b6040516100c3919061065f565b60405180910390f35b6100df6100da3660046106c9565b610266565b60405190151581526020016100c3565b6002545b6040519081526020016100c3565b6100df61010f3660046106f3565b610280565b604051601281526020016100c3565b6100f361013136600461072f565b6001600160a01b031660009081526020819052604090205490565b6100b66102dc565b6100f360055481565b6100df61016b3660046106c9565b6102eb565b600654610183906001600160a01b031681565b6040516001600160a01b0390911681526020016100c3565b6100f36101a9366004610751565b6001600160a01b03918216600090815260016020908152604080832093909416825291909152205490565b6060600380546101e390610784565b80601f016020809104026020016040519081016040528092919081815260200182805461020f90610784565b801561025c5780601f106102315761010080835404028352916020019161025c565b820191906000526020600020905b81548152906001019060200180831161023f57829003601f168201915b5050505050905090565b600033610274818585610343565b60019150505b92915050565b60008060646005548461029391906107d4565b61029d91906107eb565b905060006102ab828561080d565b6006549091506102c69087906001600160a01b031684610355565b506102d2868683610355565b9695505050505050565b6060600480546101e390610784565b6000806064600554846102fe91906107d4565b61030891906107eb565b90506000610316828561080d565b60065490915061032f906001600160a01b031683610379565b5061033a8582610379565b95945050505050565b6103508383836001610387565b505050565b600033610363858285610462565b61036e8585856104db565b506001949350505050565b6000336102748185856104db565b6001600160a01b0384166103b65760405163e602df0560e01b8152600060048201526024015b60405180910390fd5b6001600160a01b0383166103e057604051634a1406b160e11b8152600060048201526024016103ad565b6001600160a01b038085166000908152600160209081526040808320938716835292905220829055801561045c57826001600160a01b0316846001600160a01b03167f8c5be1e5ebec7d5bd14f71427d1e84f3dd0314c0f7b2291e5b200ac8c7c3b9258460405161045391815260200190565b60405180910390a35b50505050565b6001600160a01b0383811660009081526001602090815260408083209386168352929052205460001981101561045c57818110156104cc57604051637dc7a0d960e11b81526001600160a01b038416600482015260248101829052604481018390526064016103ad565b61045c84848484036000610387565b6001600160a01b03831661050557604051634b637e8f60e11b8152600060048201526024016103ad565b6001600160a01b03821661052f5760405163ec442f0560e01b8152600060048201526024016103ad565b6103508383836001600160a01b0383166105605780600260008282546105559190610820565b909155506105d29050565b6001600160a01b038316600090815260208190526040902054818110156105b35760405163391434e360e21b81526001600160a01b038516600482015260248101829052604481018390526064016103ad565b6001600160a01b03841660009081526020819052604090209082900390555b6001600160a01b0382166105ee5760028054829003905561060d565b6001600160a01b03821660009081526020819052604090208054820190555b816001600160a01b0316836001600160a01b03167fddf252ad1be2c89b69c2b068fc378daa952ba7f163c4a11628f55a4df523b3ef8360405161065291815260200190565b60405180910390a3505050565b600060208083528351808285015260005b8181101561068c57858101830151858201604001528201610670565b506000604082860101526040601f19601f8301168501019250505092915050565b80356001600160a01b03811681146106c457600080fd5b919050565b600080604083850312156106dc57600080fd5b6106e5836106ad565b946020939093013593505050565b60008060006060848603121561070857600080fd5b610711846106ad565b925061071f602085016106ad565b9150604084013590509250925092565b60006020828403121561074157600080fd5b61074a826106ad565b9392505050565b6000806040838503121561076457600080fd5b61076d836106ad565b915061077b602084016106ad565b90509250929050565b600181811c9082168061079857607f821691505b6020821081036107b857634e487b7160e01b600052602260045260246000fd5b50919050565b634e487b7160e01b600052601160045260246000fd5b808202811582820484141761027a5761027a6107be565b60008261080857634e487b7160e01b600052601260045260246000fd5b500490565b8181038181111561027a5761027a6107be565b8082018082111561027a5761027a6107be56fea264697066735822122076192cc6d19e2c2b8b2ee0ef8cc198d088f0d59885059b453bc57999f8555b2f64736f6c63430008140033",
  "linkReferences": {},
  "deployedLinkReferences": {}
}