{
  "_format": "hh-sol-artifact-1",
  "contractName": "PermitToken",
  "sourceName": "contracts/PermitToken.sol",
  "abi": [
    {
      "inputs": [
        {
          "internalType": "string",
          "name": "name",
          "type": "string"
        },
        {
          "internalType": "string",
          "name": "symbol",
          "type": "string"
        },
        {
          "internalType": "uint8",
          "name": "decimals",
          "type": "uint8"
        }
      ],
      "stateMutability": "nonpayable",
      "type": "constructor"
    },
    {
      "inputs": [],
      "name": "ECDSAInvalidSignature",
      "type": "error"
    },
    {
      "inputs": [
        {
          "internalType": "uint256",
          "name": "length",
          "type": "uint256"
        }
      ],
      "name": "ECDSAInvalidSignatureLength",
      "type": "error"
    },
    {
      "inputs": [
        {
          "internalType": "bytes32",
          "name": "s",
          "type": "bytes32"
        }
      ],
      "name": "ECDSAInvalidSignatureS",
      "type": "error"
    },
    {
      "inputs": [
        {
          "internalType": "address",
          "name": "spender",
          "type": "address"
        },
        {
          "internalType": "uint256",
          "name": "allowance",
          "type": "uint256"
        },
        {
          "internalType": "uint256",
          "name": "needed",
          "type": "uint256"
        }
      ],
      "name": "ERC20InsufficientAllowance",
      "type": "error"
    },
    {
      "inputs": [
        {
          "internalType": "address",
          "name": "sender",
          "type": "address"
        },
        {
          "internalType": "uint256",
          "name": "balance",
          "type": "uint256"
        },
        {
          "internalType": "uint256",
          "name": "needed",
          "type": "uint256"
        }
      ],
      "name": "ERC20InsufficientBalance",
      "type": "error"
    },
    {
      "inputs": [
        {
          "internalType": "address",
          "name": "approver",
          "type": "address"
        }
      ],
      "name": "ERC20InvalidApprover",
      "type": "error"
    },
    {
      "inputs": [
        {
          "internalType": "address",
          "name": "receiver",
          "type": "address"
        }
      ],
      "name": "ERC20InvalidReceiver",
      "type": "error"
    },
    {
      "inputs": [
        {
          "internalType": "address",
          "name": "sender",
          "type": "address"
        }
      ],
      "name": "ERC20InvalidSender",
      "type": "error"
    },
    {
      "inputs": [
        {
          "internalType": "address",
          "name": "spender",
          "type": "address"
        }
      ],
      "name": "ERC20InvalidSpender",
      "type": "error"
    },
    {
      "inputs": [
        {
          "internalType": "uint256",
          "name": "deadline",
          "type": "uint256"
        }
      ],
      "name": "ERC2612ExpiredSignature",
      "type": "error"
    },
    {
      "inputs": [
        {
          "internalType": "address",
          "name": "signer",
          "type": "address"
        },
        {
          "internalType": "address",
          "name": "owner",
          "type": "address"
        }
      ],
      "name": "ERC2612InvalidSigner",
      "type": "error"
    },
    {
      "inputs": [
        {
          "internalType": "address",
          "name": "account",
          "type": "address"
        },
        {
          "internalType": "uint256",
          "name": "currentNonce",
          "type": "uint256"
        }
      ],
      "name": "InvalidAccountNonce",
      "type": "error"
    },
    {
      "inputs": [],
      "name": "InvalidShortString",
      "type": "error"
    },
    {
      "inputs": [
        {
          "internalType": "string",
          "name": "str",
          "type": "string"
        }
      ],
      "name": "StringTooLong",
      "type": "error"
    },
    {
      "anonymous": false,
      "inputs": [
        {
          "indexed": true,
          "internalType": "address",
          "name": "owner",
          "type": "address"
        },
        {
          "indexed": true,
          "internalType": "address",
          "name": "spender",
          "type": "address"
        },
        {
          "indexed": false,
          "internalType": "uint256",
          "name": "value",
          "type": "uint256"
        }
      ],
      "name": "Approval",
      "type": "event"
    },
    {
      "anonymous": false,
      "inputs": [],
      "name": "EIP712DomainChanged",
      "type": "event"
    },
    {
      "anonymous": false,
      "inputs": [
        {
          "indexed": true,
          "internalType": "address",
          "name": "from",
          "type": "address"
        },
        {
          "indexed": true,
          "internalType": "address",
          "name": "to",
          "type": "address"
        },
        {
          "indexed": false,
          "internalType": "uint256",
          "name": "value",
          "type": "uint256"
        }
      ],
      "name": "Transfer",
      "type": "event"
    },
    {
      "inputs": [],
      "name": "DOMAIN_SEPARATOR",
      "outputs": [
        {
          "internalType": "bytes32",
          "name": "",
          "type": "bytes32"
        }
      ],
      "stateMutability": "view",
      "type": "function"
    },
    {
      "inputs": [
        {
          "internalType": "address",
          "name": "owner",
          "type": "address"
        },
        {
          "internalType": "address",
          "name": "spender",
          "type": "address"
        }
      ],
      "name": "allowance",
      "outputs": [
        {
          "internalType": "uint256",
          "name": "",
          "type": "uint256"
        }
      ],
      "stateMutability": "view",
      "type": "function"
    },
    {
      "inputs": [
        {
          "internalType": "address",
          "name": "spender",
          "type": "address"
        },
        {
          "internalType": "uint256",
          "name": "value",
          "type": "uint256"
        }
      ],
      "name": "approve",
      "outputs": [
        {
          "internalType": "bool",
          "name": "",
          "type": "bool"
        }
      ],
      "stateMutability": "nonpayable",
      "type": "function"
    },
    {
      "inputs": [
        {
          "internalType": "address",
          "name": "account",
          "type": "address"
        }
      ],
      "name": "balanceOf",
      "outputs": [
        {
          "internalType": "uint256",
          "name": "",
          "type": "uint256"
        }
      ],
      "stateMutability": "view",
      "type": "function"
    },
    {
      "inputs": [
        {
          "internalType": "uint256",
          "name": "value",
          "type": "uint256"
        }
      ],
      "name": "burn",
      "outputs": [],
      "stateMutability": "nonpayable",
      "type": "function"
    },
    {
      "inputs": [
        {
          "internalType": "address",
          "name": "account",
          "type": "address"
        },
        {
          "internalType": "uint256",
          "name": "value",
          "type": "uint256"
        }
      ],
      "name": "burnFrom",
      "outputs": [],
      "stateMutability": "nonpayable",
      "type": "function"
    },
    {
      "inputs": [],
      "name": "decimals",
      "outputs": [
        {
          "internalType": "uint8",
          "name": "",
          "type": "uint8"
        }
      ],
      "stateMutability": "view",
      "type": "function"
    },
    {
      "inputs": [],
      "name": "eip712Domain",
      "outputs": [
        {
          "internalType": "bytes1",
          "name": "fields",
          "type": "bytes1"
        },
        {
          "internalType": "string",
          "name": "name",
          "type": "string"
        },
        {
          "internalType": "string",
          "name": "version",
          "type": "string"
        },
        {
          "internalType": "uint256",
          "name": "chainId",
          "type": "uint256"
        },
        {
          "internalType": "address",
          "name": "verifyingContract",
          "type": "address"
        },
        {
          "internalType": "bytes32",
          "name": "salt",
          "type": "bytes32"
        },
        {
          "internalType": "uint256[]",
          "name": "extensions",
          "type": "uint256[]"
        }
      ],
      "stateMutability": "view",
      "type": "function"
    },
    {
      "inputs": [],
      "name": "name",
      "outputs": [
        {
          "internalType": "string",
          "name": "",
          "type": "string"
        }
      ],
      "stateMutability": "view",
      "type": "function"
    },
    {
      "inputs": [
        {
          "internalType": "address",
          "name": "owner",
          "type": "address"
        }
      ],
      "name": "nonces",
      "outputs": [
        {
          "internalType": "uint256",
          "name": "",
          "type": "uint256"
        }
      ],
      "stateMutability": "view",
      "type": "function"
    },
    {
      "inputs": [
        {
          "internalType": "address",
          "name": "owner",
          "type": "address"
        },
        {
          "internalType": "address",
          "name": "spender",
          "type": "address"
        },
        {
          "internalType": "uint256",
          "name": "value",
          "type": "uint256"
        },
        {
          "internalType": "uint256",
          "name": "deadline",
          "type": "uint256"
        },
        {
          "internalType": "uint8",
          "name": "v",
          "type": "uint8"
        },
        {
          "internalType": "bytes32",
          "name": "r",
          "type": "bytes32"
        },
        {
          "internalType": "bytes32",
          "name": "s",
          "type": "bytes32"
        }
      ],
      "name": "permit",
      "outputs": [],
      "stateMutability": "nonpayable",
      "type": "function"
    },
    {
      "inputs": [],
      "name": "symbol",
      "outputs": [
        {
          "internalType": "string",
          "name": "",
          "type": "string"
        }
      ],
      "stateMutability": "view",
      "type": "function"
    },
    {
      "inputs": [],
      "name": "totalSupply",
      "outputs": [
        {
          "internalType": "uint256",
          "name": "",
          "type": "uint256"
        }
      ],
      "stateMutability": "view",
      "type": "function"
    },
    {
      "inputs": [
        {
          "internalType": "address",
          "name": "to",
          "type": "address"
        },
        {
          "internalType": "uint256",
          "name": "value",
          "type": "uint256"
        }
      ],
      "name": "transfer",
      "outputs": [
        {
          "internalType": "bool",
          "name": "",
          "type": "bool"
        }
      ],
      "stateMutability": "nonpayable",
      "type": "function"
    },
    {
      "inputs": [
        {
          "internalType": "address",
          "name": "from",
          "type": "address"
        },
        {
          "internalType": "address",
          "name": "to",
          "type": "address"
        },
        {
          "internalType": "uint256",
          "name": "value",
          "type": "uint256"
        }
      ],
      "name": "transferFrom",
      "outputs": [
        {
          "internalType": "bool",
          "name": "",
          "type": "bool"
        }
      ],
      "stateMutability": "nonpayable",
      "type": "function"
    }
  ],
  "bytecode": "0x6101606040523480156200001257600080fd5b50604051620017c3380380620017c3833981016040819052620000359162000419565b6040805180820190915260018152603160f81b602082015283908190818560036200006183826200052d565b5060046200007082826200052d565b5062000082915083905060056200015b565b61012052620000938160066200015b565b61014052815160208084019190912060e052815190820120610100524660a0526200012160e05161010051604080517f8b73c3c69bb8fe3d512ecc4cf759cc79239f7b179b0ffacaa9a75d522b39400f60208201529081019290925260608201524660808201523060a082015260009060c00160405160208183030381529060405280519060200120905090565b60805250503060c0525062000152336200013d83600a6200070c565b6200014c90620f424062000724565b62000194565b505050620007ae565b60006020835110156200017b576200017383620001d6565b90506200018e565b816200018884826200052d565b5060ff90505b92915050565b6001600160a01b038216620001c45760405163ec442f0560e01b8152600060048201526024015b60405180910390fd5b620001d26000838362000219565b5050565b600080829050601f8151111562000204578260405163305a27a960e01b8152600401620001bb91906200073e565b8051620002118262000773565b179392505050565b6001600160a01b038316620002485780600260008282546200023c919062000798565b90915550620002bc9050565b6001600160a01b038316600090815260208190526040902054818110156200029d5760405163391434e360e21b81526001600160a01b03851660048201526024810182905260448101839052606401620001bb565b6001600160a01b03841660009081526020819052604090209082900390555b6001600160a01b038216620002da57600280548290039055620002f9565b6001600160a01b03821660009081526020819052604090208054820190555b816001600160a01b0316836001600160a01b03167fddf252ad1be2c89b69c2b068fc378daa952ba7f163c4a11628f55a4df523b3ef836040516200033f91815260200190565b60405180910390a3505050565b634e487b7160e01b600052604160045260246000fd5b60005b838110156200037f57818101518382015260200162000365565b50506000910152565b600082601f8301126200039a57600080fd5b81516001600160401b0380821115620003b757620003b76200034c565b604051601f8301601f19908116603f01168101908282118183101715620003e257620003e26200034c565b81604052838152866020858801011115620003fc57600080fd5b6200040f84602083016020890162000362565b9695505050505050565b6000806000606084860312156200042f57600080fd5b83516001600160401b03808211156200044757600080fd5b620004558783880162000388565b945060208601519150808211156200046c57600080fd5b506200047b8682870162000388565b925050604084015160ff811681146200049357600080fd5b809150509250925092565b600181811c90821680620004b357607f821691505b602082108103620004d457634e487b7160e01b600052602260045260246000fd5b50919050565b601f8211156200052857600081815260208120601f850160051c81016020861015620005035750805b601f850160051c820191505b8181101562000524578281556001016200050f565b5050505b505050565b81516001600160401b038111156200054957620005496200034c565b62000561816200055a84546200049e565b84620004da565b602080601f831160018114620005995760008415620005805750858301515b600019600386901b1c1916600185901b17855562000524565b600085815260208120601f198616915b82811015620005ca57888601518255948401946001909101908401620005a9565b5085821015620005e95787850151600019600388901b60f8161c191681555b5050505050600190811b01905550565b634e487b7160e01b600052601160045260246000fd5b600181815b8085111562000650578160001904821115620006345762000634620005f9565b808516156200064257918102915b93841c939080029062000614565b509250929050565b60008262000669575060016200018e565b8162000678575060006200018e565b81600181146200069157600281146200069c57620006bc565b60019150506200018e565b60ff841115620006b057620006b0620005f9565b50506001821b6200018e565b5060208310610133831016604e8410600b8410161715620006e1575081810a6200018e565b620006ed83836200060f565b8060001904821115620007045762000704620005f9565b029392505050565b60006200071d60ff84168362000658565b9392505050565b80820281158282048414176200018e576200018e620005f9565b60208152600082518060208401526200075f81604085016020870162000362565b601f01601f19169190910160400192915050565b80516020808301519190811015620004d45760001960209190910360031b1b16919050565b808201808211156200018e576200018e620005f9565b60805160a05160c05160e051610100516101205161014051610fba6200080960003960006107a70152600061077a015260006106ec015260006106c40152600061061f01526000610649015260006106730152610fba6000f3fe608060405234801561001057600080fd5b50600436106100f55760003560e01c806370a082311161009757806395d89b411161006657806395d89b41146101f6578063a9059cbb146101fe578063d505accf14610211578063dd62ed3e1461022457600080fd5b806370a082311461018c57806379cc6790146101b55780637ecebe00146101c857806384b0196e146101db57600080fd5b806323b872dd116100d357806323b872dd1461014d578063313ce567146101605780633644e5151461016f57806342966c681461017757600080fd5b806306fdde03146100fa578063095ea7b31461011857806318160ddd1461013b575b600080fd5b61010261025d565b60405161010f9190610d07565b60405180910390f35b61012b610126366004610d3d565b6102ef565b604051901515815260200161010f565b6002545b60405190815260200161010f565b61012b61015b366004610d67565b610309565b6040516012815260200161010f565b61013f61032d565b61018a610185366004610da3565b61033c565b005b61013f61019a366004610dbc565b6001600160a01b031660009081526020819052604090205490565b61018a6101c3366004610d3d565b610349565b61013f6101d6366004610dbc565b610362565b6101e3610380565b60405161010f9796959493929190610dd7565b6101026103c6565b61012b61020c366004610d3d565b6103d5565b61018a61021f366004610e6d565b6103e3565b61013f610232366004610ee0565b6001600160a01b03918216600090815260016020908152604080832093909416825291909152205490565b60606003805461026c90610f13565b80601f016020809104026020016040519081016040528092919081815260200182805461029890610f13565b80156102e55780601f106102ba576101008083540402835291602001916102e5565b820191906000526020600020905b8154815290600101906020018083116102c857829003601f168201915b5050505050905090565b6000336102fd818585610522565b60019150505b92915050565b600033610317858285610534565b6103228585856105b3565b506001949350505050565b6000610337610612565b905090565b610346338261073d565b50565b610354823383610534565b61035e828261073d565b5050565b6001600160a01b038116600090815260076020526040812054610303565b600060608060008060006060610394610773565b61039c6107a0565b60408051600080825260208201909252600f60f81b9b939a50919850469750309650945092509050565b60606004805461026c90610f13565b6000336102fd8185856105b3565b8342111561040c5760405163313c898160e11b8152600481018590526024015b60405180910390fd5b60007f6e71edae12b1b97f4d1f60370fef10105fa2faae0126114a169c64845d6126c98888886104598c6001600160a01b0316600090815260076020526040902080546001810190915590565b6040805160208101969096526001600160a01b0394851690860152929091166060840152608083015260a082015260c0810186905260e00160405160208183030381529060405280519060200120905060006104b4826107cd565b905060006104c4828787876107fa565b9050896001600160a01b0316816001600160a01b03161461050b576040516325c0072360e11b81526001600160a01b0380831660048301528b166024820152604401610403565b6105168a8a8a610522565b50505050505050505050565b61052f8383836001610828565b505050565b6001600160a01b038381166000908152600160209081526040808320938616835292905220546000198110156105ad578181101561059e57604051637dc7a0d960e11b81526001600160a01b03841660048201526024810182905260448101839052606401610403565b6105ad84848484036000610828565b50505050565b6001600160a01b0383166105dd57604051634b637e8f60e11b815260006004820152602401610403565b6001600160a01b0382166106075760405163ec442f0560e01b815260006004820152602401610403565b61052f8383836108fd565b6000306001600160a01b037f00000000000000000000000000000000000000000000000000000000000000001614801561066b57507f000000000000000000000000000000000000000000000000000000000000000046145b1561069557507f000000000000000000000000000000000000000000000000000000000000000090565b610337604080517f8b73c3c69bb8fe3d512ecc4cf759cc79239f7b179b0ffacaa9a75d522b39400f60208201527f0000000000000000000000000000000000000000000000000000000000000000918101919091527f000000000000000000000000000000000000000000000000000000000000000060608201524660808201523060a082015260009060c00160405160208183030381529060405280519060200120905090565b6001600160a01b03821661076757604051634b637e8f60e11b815260006004820152602401610403565b61035e826000836108fd565b60606103377f00000000000000000000000000000000000000000000000000000000000000006005610a27565b60606103377f00000000000000000000000000000000000000000000000000000000000000006006610a27565b60006103036107da610612565b8360405161190160f01b8152600281019290925260228201526042902090565b60008060008061080c88888888610ad2565b92509250925061081c8282610ba1565b50909695505050505050565b6001600160a01b0384166108525760405163e602df0560e01b815260006004820152602401610403565b6001600160a01b03831661087c57604051634a1406b160e11b815260006004820152602401610403565b6001600160a01b03808516600090815260016020908152604080832093871683529290522082905580156105ad57826001600160a01b0316846001600160a01b03167f8c5be1e5ebec7d5bd14f71427d1e84f3dd0314c0f7b2291e5b200ac8c7c3b925846040516108ef91815260200190565b60405180910390a350505050565b6001600160a01b03831661092857806002600082825461091d9190610f4d565b9091555061099a9050565b6001600160a01b0383166000908152602081905260409020548181101561097b5760405163391434e360e21b81526001600160a01b03851660048201526024810182905260448101839052606401610403565b6001600160a01b03841660009081526020819052604090209082900390555b6001600160a01b0382166109b6576002805482900390556109d5565b6001600160a01b03821660009081526020819052604090208054820190555b816001600160a01b0316836001600160a01b03167fddf252ad1be2c89b69c2b068fc378daa952ba7f163c4a11628f55a4df523b3ef83604051610a1a91815260200190565b60405180910390a3505050565b606060ff8314610a4157610a3a83610c5a565b9050610303565b818054610a4d90610f13565b80601f0160208091040260200160405190810160405280929190818152602001828054610a7990610f13565b8015610ac65780601f10610a9b57610100808354040283529160200191610ac6565b820191906000526020600020905b815481529060010190602001808311610aa957829003601f168201915b50505050509050610303565b600080807f7fffffffffffffffffffffffffffffff5d576e7357a4501ddfe92f46681b20a0841115610b0d5750600091506003905082610b97565b604080516000808252602082018084528a905260ff891692820192909252606081018790526080810186905260019060a0016020604051602081039080840390855afa158015610b61573d6000803e3d6000fd5b5050604051601f1901519150506001600160a01b038116610b8d57506000925060019150829050610b97565b9250600091508190505b9450945094915050565b6000826003811115610bb557610bb5610f6e565b03610bbe575050565b6001826003811115610bd257610bd2610f6e565b03610bf05760405163f645eedf60e01b815260040160405180910390fd5b6002826003811115610c0457610c04610f6e565b03610c255760405163fce698f760e01b815260048101829052602401610403565b6003826003811115610c3957610c39610f6e565b0361035e576040516335e2f38360e21b815260048101829052602401610403565b60606000610c6783610c99565b604080516020808252818301909252919250600091906020820181803683375050509182525060208101929092525090565b600060ff8216601f81111561030357604051632cd44ac360e21b815260040160405180910390fd5b6000815180845260005b81811015610ce757602081850181015186830182015201610ccb565b506000602082860101526020601f19601f83011685010191505092915050565b602081526000610d1a6020830184610cc1565b9392505050565b80356001600160a01b0381168114610d3857600080fd5b919050565b60008060408385031215610d5057600080fd5b610d5983610d21565b946020939093013593505050565b600080600060608486031215610d7c57600080fd5b610d8584610d21565b9250610d9360208501610d21565b9150604084013590509250925092565b600060208284031215610db557600080fd5b5035919050565b600060208284031215610dce57600080fd5b610d1a82610d21565b60ff60f81b881681526000602060e081840152610df760e084018a610cc1565b8381036040850152610e09818a610cc1565b606085018990526001600160a01b038816608086015260a0850187905284810360c0860152855180825283870192509083019060005b81811015610e5b57835183529284019291840191600101610e3f565b50909c9b505050505050505050505050565b600080600080600080600060e0888a031215610e8857600080fd5b610e9188610d21565b9650610e9f60208901610d21565b95506040880135945060608801359350608088013560ff81168114610ec357600080fd5b9699959850939692959460a0840135945060c09093013592915050565b60008060408385031215610ef357600080fd5b610efc83610d21565b9150610f0a60208401610d21565b90509250929050565b600181811c90821680610f2757607f821691505b602082108103610f4757634e487b7160e01b600052602260045260246000fd5b50919050565b8082018082111561030357634e487b7160e01b600052601160045260246000fd5b634e487b7160e01b600052602160045260246000fdfea2646970667358221220caf83119a4cf343f2d5c81d1c8ead38a0b7f92e145a37b1f1258212e872c734a64736f6c63430008140033",
  "linkReferences": {},
  "deployedLinkReferences": {}
}