{
  "_format": "hh-sol-artifact-1",
  "contractName": "MockSpender",
  "sourceName": "contracts/MockSpender.sol",
  "abi": [
    {
      "inputs": [],
      "stateMutability": "nonpayable",
      "type": "constructor"
    },
    {
      "anonymous": false,
      "inputs": [
        {
          "indexed": true,
          "internalType": "address",
          "name": "nft",
          "type": "address"
        },
        {
          "indexed": true,
          "internalType": "address",
          "name": "owner",
          "type": "address"
        },
        {
          "indexed": true,
          "internalType": "address",
          "name": "operator",
          "type": "address"
        },
        {
          "indexed": false,
          "internalType": "bool",
          "name": "approved",
          "type": "bool"
        }
      ],
      "name": "ERC1155Approved",
      "type": "event"
    },
    {
      "anonymous": false,
      "inputs": [
        {
          "indexed": true,
          "internalType": "address",
          "name": "token",
          "type": "address"
        },
        {
          "indexed": true,
          "internalType": "address",
          "name": "owner",
          "type": "address"
        },
        {
          "indexed": true,
          "internalType": "address",
          "name": "spender",
          "type": "address"
        },
        {
          "indexed": false,
          "internalType": "uint256",
          "name": "amount",
          "type": "uint256"
        }
      ],
      "name": "ERC20Approved",
      "type": "event"
    },
    {
      "anonymous": false,
      "inputs": [
        {
          "indexed": true,
          "internalType": "address",
          "name": "nft",
          "type": "address"
        },
        {
          "indexed": true,
          "internalType": "address",
          "name": "owner",
          "type": "address"
        },
        {
          "indexed": true,
          "internalType": "address",
          "name": "operator",
          "type": "address"
        },
        {
          "indexed": false,
          "internalType": "bool",
          "name": "approved",
          "type": "bool"
        }
      ],
      "name": "ERC721Approved",
      "type": "event"
    },
    {
      "inputs": [
        {
          "internalType": "address",
          "name": "nft",
          "type": "address"
        },
        {
          "internalType": "address",
          "name": "operator",
          "type": "address"
        },
        {
          "internalType": "bool",
          "name": "approved",
          "type": "bool"
        }
      ],
      "name": "approveERC1155",
      "outputs": [],
      "stateMutability": "nonpayable",
      "type": "function"
    },
    {
      "inputs": [
        {
          "internalType": "address",
          "name": "token",
          "type": "address"
        },
        {
          "internalType": "address",
          "name": "spender",
          "type": "address"
        },
        {
          "internalType": "uint256",
          "name": "amount",
          "type": "uint256"
        }
      ],
      "name": "approveERC20",
      "outputs": [],
      "stateMutability": "nonpayable",
      "type": "function"
    },
    {
      "inputs": [
        {
          "internalType": "address",
          "name": "nft",
          "type": "address"
        },
        {
          "internalType": "address",
          "name": "operator",
          "type": "address"
        },
        {
          "internalType": "bool",
          "name": "approved",
          "type": "bool"
        }
      ],
      "name": "approveERC721",
      "outputs": [],
      "stateMutability": "nonpayable",
      "type": "function"
    },
    {
      "inputs": [
        {
          "internalType": "address",
          "name": "nft",
          "type": "address"
        },
        {
          "internalType": "address",
          "name": "operator",
          "type": "address"
        }
      ],
      "name": "checkERC1155Approval",
      "outputs": [
        {
          "internalType": "bool",
          "name": "",
          "type": "bool"
        }
      ],
      "stateMutability": "view",
      "type": "function"
    },
    {
      "inputs": [
        {
          "internalType": "address",
          "name": "token",
          "type": "address"
        },
        {
          "internalType": "address",
          "name": "spender",
          "type": "address"
        }
      ],
      "name": "checkERC20Allowance",
      "outputs": [
        {
          "internalType": "uint256",
          "name": "",
          "type": "uint256"
        }
      ],
      "stateMutability": "view",
      "type": "function"
    },
    {
      "inputs": [
        {
          "internalType": "address",
          "name": "nft",
          "type": "address"
        },
        {
          "internalType": "address",
          "name": "operator",
          "type": "address"
        }
      ],
      "name": "checkERC721Approval",
      "outputs": [
        {
          "internalType": "bool",
          "name": "",
          "type": "bool"
        }
      ],
      "stateMutability": "view",
      "type": "function"
    },
    {
      "inputs": [],
      "name": "contractOwner",
      "outputs": [
        {
          "internalType": "address",
          "name": "",
          "type": "address"
        }
      ],
      "stateMutability": "view",
      "type": "function"
    }
  ],
  "bytecode": "0x608060405234801561001057600080fd5b50600080546001600160a01b031916331790556106e6806100326000396000f3fe608060405234801561001057600080fd5b506004361061007d5760003560e01c8063c4e22d521161005b578063c4e22d52146100bf578063ce606ee0146100e0578063d88c869b1461010b578063e02b94bc1461011e57600080fd5b8063574b4c651461008257806363dde69914610082578063a8e5e4aa146100aa575b600080fd5b61009561009036600461058a565b610131565b60405190151581526020015b60405180910390f35b6100bd6100b83660046105bd565b6101ac565b005b6100d26100cd36600461058a565b61030d565b6040519081526020016100a1565b6000546100f3906001600160a01b031681565b6040516001600160a01b0390911681526020016100a1565b6100bd61011936600461060a565b610381565b6100bd61012c36600461060a565b61047e565b60405163e985e9c560e01b81523360048201526001600160a01b0382811660248301526000919084169063e985e9c590604401602060405180830381865afa158015610181573d6000803e3d6000fd5b505050506040513d601f19601f820116820180604052508101906101a59190610651565b9392505050565b6001600160a01b038316158015906101cc57506001600160a01b03821615155b6101f15760405162461bcd60e51b81526004016101e89061066e565b60405180910390fd5b60405163095ea7b360e01b81526001600160a01b038381166004830152602482018390526000919085169063095ea7b3906044016020604051808303816000875af1158015610244573d6000803e3d6000fd5b505050506040513d601f19601f820116820180604052508101906102689190610651565b9050806102b05760405162461bcd60e51b8152602060048201526016602482015275115490cb4c8c08185c1c1c9bdd985b0819985a5b195960521b60448201526064016101e8565b826001600160a01b0316336001600160a01b0316856001600160a01b03167fbf7008844e567e88b3744dd41d9d72f1d464455af4021035165c41763b283481856040516102ff91815260200190565b60405180910390a450505050565b604051636eb1769f60e11b81523360048201526001600160a01b0382811660248301526000919084169063dd62ed3e90604401602060405180830381865afa15801561035d573d6000803e3d6000fd5b505050506040513d601f19601f820116820180604052508101906101a59190610697565b6001600160a01b038316158015906103a157506001600160a01b03821615155b6103bd5760405162461bcd60e51b81526004016101e89061066e565b60405163a22cb46560e01b81526001600160a01b038381166004830152821515602483015284169063a22cb46590604401600060405180830381600087803b15801561040857600080fd5b505af115801561041c573d6000803e3d6000fd5b50505050816001600160a01b0316336001600160a01b0316846001600160a01b03167f93deaa130e4eda2ff0607db5e7018c4cd7439c31a537bb3e2e76f7203a340ecb84604051610471911515815260200190565b60405180910390a4505050565b6001600160a01b0383161580159061049e57506001600160a01b03821615155b6104ba5760405162461bcd60e51b81526004016101e89061066e565b60405163a22cb46560e01b81526001600160a01b038381166004830152821515602483015284169063a22cb46590604401600060405180830381600087803b15801561050557600080fd5b505af1158015610519573d6000803e3d6000fd5b50505050816001600160a01b0316336001600160a01b0316846001600160a01b03167f2ba8b0042d0674ccf1ce44d1f7377926ced452872a60012ad3b64d438438c6b384604051610471911515815260200190565b80356001600160a01b038116811461058557600080fd5b919050565b6000806040838503121561059d57600080fd5b6105a68361056e565b91506105b46020840161056e565b90509250929050565b6000806000606084860312156105d257600080fd5b6105db8461056e565b92506105e96020850161056e565b9150604084013590509250925092565b801515811461060757600080fd5b50565b60008060006060848603121561061f57600080fd5b6106288461056e565b92506106366020850161056e565b91506040840135610646816105f9565b809150509250925092565b60006020828403121561066357600080fd5b81516101a5816105f9565b6020808252600f908201526e496e76616c6964206164647265737360881b604082015260600190565b6000602082840312156106a957600080fd5b505191905056fea2646970667358221220eee228c0c806839226ed39121adcc345b635f6635fb07924fb87e035ee18a89464736f6c63430008140033",
  "linkReferences": {},
  "deployedLinkReferences": {}
}