{
  "_format": "hh-sol-artifact-1",
  "contractName": "MockSpender",
  "sourceName": "contracts/MockSpender.sol",
  "abi": [
    {
      "inputs": [],
      "stateMutability": "nonpayable",
      "type": "constructor"
    },
    {
      "anonymous": false,
      "inputs": [
        {
          "indexed": true,
          "internalType": "address",
          "name": "nft",
          "type": "address"
        },
        {
          "indexed": true,
          "internalType": "address",
          "name": "owner",
          "type": "address"
        },
        {
          "indexed": false,
          "internalType": "bool",
          "name": "approved",
          "type": "bool"
        }
      ],
      "name": "ERC1155Approved",
      "type": "event"
    },
    {
      "anonymous": false,
      "inputs": [
        {
          "indexed": true,
          "internalType": "address",
          "name": "token",
          "type": "address"
        },
        {
          "indexed": true,
          "internalType": "address",
          "name": "owner",
          "type": "address"
        },
        {
          "indexed": false,
          "internalType": "uint256",
          "name": "amount",
          "type": "uint256"
        }
      ],
      "name": "ERC20Approved",
      "type": "event"
    },
    {
      "anonymous": false,
      "inputs": [
        {
          "indexed": true,
          "internalType": "address",
          "name": "nft",
          "type": "address"
        },
        {
          "indexed": true,
          "internalType": "address",
          "name": "owner",
          "type": "address"
        },
        {
          "indexed": false,
          "internalType": "bool",
          "name": "approved",
          "type": "bool"
        }
      ],
      "name": "ERC721Approved",
      "type": "event"
    },
    {
      "inputs": [
        {
          "internalType": "address",
          "name": "nft",
          "type": "address"
        },
        {
          "internalType": "address",
          "name": "operator",
          "type": "address"
        },
        {
          "internalType": "bool",
          "name": "approved",
          "type": "bool"
        }
      ],
      "name": "approveERC1155",
      "outputs": [],
      "stateMutability": "nonpayable",
      "type": "function"
    },
    {
      "inputs": [
        {
          "internalType": "address",
          "name": "token",
          "type": "address"
        },
        {
          "internalType": "address",
          "name": "spender",
          "type": "address"
        },
        {
          "internalType": "uint256",
          "name": "amount",
          "type": "uint256"
        }
      ],
      "name": "approveERC20",
      "outputs": [],
      "stateMutability": "nonpayable",
      "type": "function"
    },
    {
      "inputs": [
        {
          "internalType": "address",
          "name": "nft",
          "type": "address"
        },
        {
          "internalType": "address",
          "name": "operator",
          "type": "address"
        },
        {
          "internalType": "bool",
          "name": "approved",
          "type": "bool"
        }
      ],
      "name": "approveERC721",
      "outputs": [],
      "stateMutability": "nonpayable",
      "type": "function"
    },
    {
      "inputs": [
        {
          "internalType": "address",
          "name": "nft",
          "type": "address"
        },
        {
          "internalType": "address",
          "name": "operator",
          "type": "address"
        }
      ],
      "name": "checkERC1155Approval",
      "outputs": [
        {
          "internalType": "bool",
          "name": "",
          "type": "bool"
        }
      ],
      "stateMutability": "view",
      "type": "function"
    },
    {
      "inputs": [
        {
          "internalType": "address",
          "name": "token",
          "type": "address"
        },
        {
          "internalType": "address",
          "name": "spender",
          "type": "address"
        }
      ],
      "name": "checkERC20Allowance",
      "outputs": [
        {
          "internalType": "uint256",
          "name": "",
          "type": "uint256"
        }
      ],
      "stateMutability": "view",
      "type": "function"
    },
    {
      "inputs": [
        {
          "internalType": "address",
          "name": "nft",
          "type": "address"
        },
        {
          "internalType": "address",
          "name": "operator",
          "type": "address"
        }
      ],
      "name": "checkERC721Approval",
      "outputs": [
        {
          "internalType": "bool",
          "name": "",
          "type": "bool"
        }
      ],
      "stateMutability": "view",
      "type": "function"
    },
    {
      "inputs": [],
      "name": "owner",
      "outputs": [
        {
          "internalType": "address",
          "name": "",
          "type": "address"
        }
      ],
      "stateMutability": "view",
      "type": "function"
    }
  ],
  "bytecode": "0x608060405234801561001057600080fd5b50600080546001600160a01b03191633179055610653806100326000396000f3fe608060405234801561001057600080fd5b506004361061007d5760003560e01c8063a8e5e4aa1161005b578063a8e5e4aa146100d5578063c4e22d52146100ea578063d88c869b1461010b578063e02b94bc1461011e57600080fd5b8063574b4c651461008257806363dde699146100825780638da5cb5b146100aa575b600080fd5b6100956100903660046104f7565b610131565b60405190151581526020015b60405180910390f35b6000546100bd906001600160a01b031681565b6040516001600160a01b0390911681526020016100a1565b6100e86100e336600461052a565b6101ac565b005b6100fd6100f83660046104f7565b6102ab565b6040519081526020016100a1565b6100e8610119366004610577565b61031f565b6100e861012c366004610577565b6103fd565b60405163e985e9c560e01b81523360048201526001600160a01b0382811660248301526000919084169063e985e9c590604401602060405180830381865afa158015610181573d6000803e3d6000fd5b505050506040513d601f19601f820116820180604052508101906101a591906105be565b9392505050565b6001600160a01b038316158015906101cc57506001600160a01b03821615155b6101f15760405162461bcd60e51b81526004016101e8906105db565b60405180910390fd5b60405163095ea7b360e01b81526001600160a01b0383811660048301526024820183905284169063095ea7b3906044016020604051808303816000875af1158015610240573d6000803e3d6000fd5b505050506040513d601f19601f8201168201806040525081019061026491906105be565b5060405181815233906001600160a01b038516907fe285444a44723385de85da4844cbb9105030b82a9300a3ffca99054d624c5e30906020015b60405180910390a3505050565b604051636eb1769f60e11b81523360048201526001600160a01b0382811660248301526000919084169063dd62ed3e90604401602060405180830381865afa1580156102fb573d6000803e3d6000fd5b505050506040513d601f19601f820116820180604052508101906101a59190610604565b6001600160a01b0383161580159061033f57506001600160a01b03821615155b61035b5760405162461bcd60e51b81526004016101e8906105db565b60405163a22cb46560e01b81526001600160a01b038381166004830152821515602483015284169063a22cb46590604401600060405180830381600087803b1580156103a657600080fd5b505af11580156103ba573d6000803e3d6000fd5b505060405183151581523392506001600160a01b03861691507ff7f0f078848f27bd6bdf2b43e3dd43f4af481848aeba9d89e16df65b861402fe9060200161029e565b6001600160a01b0383161580159061041d57506001600160a01b03821615155b6104395760405162461bcd60e51b81526004016101e8906105db565b60405163a22cb46560e01b81526001600160a01b038381166004830152821515602483015284169063a22cb46590604401600060405180830381600087803b15801561048457600080fd5b505af1158015610498573d6000803e3d6000fd5b505060405183151581523392506001600160a01b03861691507f4cb534b21466cad791a2caf6e52051963bc1a4d3be4e73e82dd5191b142413369060200161029e565b80356001600160a01b03811681146104f257600080fd5b919050565b6000806040838503121561050a57600080fd5b610513836104db565b9150610521602084016104db565b90509250929050565b60008060006060848603121561053f57600080fd5b610548846104db565b9250610556602085016104db565b9150604084013590509250925092565b801515811461057457600080fd5b50565b60008060006060848603121561058c57600080fd5b610595846104db565b92506105a3602085016104db565b915060408401356105b381610566565b809150509250925092565b6000602082840312156105d057600080fd5b81516101a581610566565b6020808252600f908201526e496e76616c6964206164647265737360881b604082015260600190565b60006020828403121561061657600080fd5b505191905056fea264697066735822122069e32d6629cedd7510411baf384814f42edb056065bc7a9bb2951f48ef0daa9264736f6c63430008140033",
  "linkReferences": {},
  "deployedLinkReferences": {}
}