{
  "_format": "hh-sol-artifact-1",
  "contractName": "TestNFT",
  "sourceName": "contracts/TestNFT.sol",
  "abi": [
    {
      "inputs": [],
      "stateMutability": "nonpayable",
      "type": "constructor"
    },
    {
      "inputs": [
        {
          "internalType": "address",
          "name": "sender",
          "type": "address"
        },
        {
          "internalType": "uint256",
          "name": "tokenId",
          "type": "uint256"
        },
        {
          "internalType": "address",
          "name": "owner",
          "type": "address"
        }
      ],
      "name": "ERC721IncorrectOwner",
      "type": "error"
    },
    {
      "inputs": [
        {
          "internalType": "address",
          "name": "operator",
          "type": "address"
        },
        {
          "internalType": "uint256",
          "name": "tokenId",
          "type": "uint256"
        }
      ],
      "name": "ERC721InsufficientApproval",
      "type": "error"
    },
    {
      "inputs": [
        {
          "internalType": "address",
          "name": "approver",
          "type": "address"
        }
      ],
      "name": "ERC721InvalidApprover",
      "type": "error"
    },
    {
      "inputs": [
        {
          "internalType": "address",
          "name": "operator",
          "type": "address"
        }
      ],
      "name": "ERC721InvalidOperator",
      "type": "error"
    },
    {
      "inputs": [
        {
          "internalType": "address",
          "name": "owner",
          "type": "address"
        }
      ],
      "name": "ERC721InvalidOwner",
      "type": "error"
    },
    {
      "inputs": [
        {
          "internalType": "address",
          "name": "receiver",
          "type": "address"
        }
      ],
      "name": "ERC721InvalidReceiver",
      "type": "error"
    },
    {
      "inputs": [
        {
          "internalType": "address",
          "name": "sender",
          "type": "address"
        }
      ],
      "name": "ERC721InvalidSender",
      "type": "error"
    },
    {
      "inputs": [
        {
          "internalType": "uint256",
          "name": "tokenId",
          "type": "uint256"
        }
      ],
      "name": "ERC721NonexistentToken",
      "type": "error"
    },
    {
      "anonymous": false,
      "inputs": [
        {
          "indexed": true,
          "internalType": "address",
          "name": "owner",
          "type": "address"
        },
        {
          "indexed": true,
          "internalType": "address",
          "name": "approved",
          "type": "address"
        },
        {
          "indexed": true,
          "internalType": "uint256",
          "name": "tokenId",
          "type": "uint256"
        }
      ],
      "name": "Approval",
      "type": "event"
    },
    {
      "anonymous": false,
      "inputs": [
        {
          "indexed": true,
          "internalType": "address",
          "name": "owner",
          "type": "address"
        },
        {
          "indexed": true,
          "internalType": "address",
          "name": "operator",
          "type": "address"
        },
        {
          "indexed": false,
          "internalType": "bool",
          "name": "approved",
          "type": "bool"
        }
      ],
      "name": "ApprovalForAll",
      "type": "event"
    },
    {
      "anonymous": false,
      "inputs": [
        {
          "indexed": true,
          "internalType": "address",
          "name": "from",
          "type": "address"
        },
        {
          "indexed": true,
          "internalType": "address",
          "name": "to",
          "type": "address"
        },
        {
          "indexed": true,
          "internalType": "uint256",
          "name": "tokenId",
          "type": "uint256"
        }
      ],
      "name": "Transfer",
      "type": "event"
    },
    {
      "inputs": [
        {
          "internalType": "address",
          "name": "to",
          "type": "address"
        },
        {
          "internalType": "uint256",
          "name": "tokenId",
          "type": "uint256"
        }
      ],
      "name": "approve",
      "outputs": [],
      "stateMutability": "nonpayable",
      "type": "function"
    },
    {
      "inputs": [
        {
          "internalType": "address",
          "name": "owner",
          "type": "address"
        }
      ],
      "name": "balanceOf",
      "outputs": [
        {
          "internalType": "uint256",
          "name": "",
          "type": "uint256"
        }
      ],
      "stateMutability": "view",
      "type": "function"
    },
    {
      "inputs": [
        {
          "internalType": "uint256[]",
          "name": "tokenIds",
          "type": "uint256[]"
        }
      ],
      "name": "batchRevokeApprovals",
      "outputs": [],
      "stateMutability": "nonpayable",
      "type": "function"
    },
    {
      "inputs": [
        {
          "internalType": "uint256",
          "name": "tokenId",
          "type": "uint256"
        }
      ],
      "name": "getApproved",
      "outputs": [
        {
          "internalType": "address",
          "name": "",
          "type": "address"
        }
      ],
      "stateMutability": "view",
      "type": "function"
    },
    {
      "inputs": [
        {
          "internalType": "address",
          "name": "owner",
          "type": "address"
        },
        {
          "internalType": "address",
          "name": "operator",
          "type": "address"
        }
      ],
      "name": "isApprovedForAll",
      "outputs": [
        {
          "internalType": "bool",
          "name": "",
          "type": "bool"
        }
      ],
      "stateMutability": "view",
      "type": "function"
    },
    {
      "inputs": [],
      "name": "name",
      "outputs": [
        {
          "internalType": "string",
          "name": "",
          "type": "string"
        }
      ],
      "stateMutability": "view",
      "type": "function"
    },
    {
      "inputs": [
        {
          "internalType": "uint256",
          "name": "tokenId",
          "type": "uint256"
        }
      ],
      "name": "ownerOf",
      "outputs": [
        {
          "internalType": "address",
          "name": "",
          "type": "address"
        }
      ],
      "stateMutability": "view",
      "type": "function"
    },
    {
      "inputs": [
        {
          "internalType": "address",
          "name": "from",
          "type": "address"
        },
        {
          "internalType": "address",
          "name": "to",
          "type": "address"
        },
        {
          "internalType": "uint256",
          "name": "tokenId",
          "type": "uint256"
        }
      ],
      "name": "safeTransferFrom",
      "outputs": [],
      "stateMutability": "nonpayable",
      "type": "function"
    },
    {
      "inputs": [
        {
          "internalType": "address",
          "name": "from",
          "type": "address"
        },
        {
          "internalType": "address",
          "name": "to",
          "type": "address"
        },
        {
          "internalType": "uint256",
          "name": "tokenId",
          "type": "uint256"
        },
        {
          "internalType": "bytes",
          "name": "data",
          "type": "bytes"
        }
      ],
      "name": "safeTransferFrom",
      "outputs": [],
      "stateMutability": "nonpayable",
      "type": "function"
    },
    {
      "inputs": [
        {
          "internalType": "address",
          "name": "operator",
          "type": "address"
        },
        {
          "internalType": "bool",
          "name": "approved",
          "type": "bool"
        }
      ],
      "name": "setApprovalForAll",
      "outputs": [],
      "stateMutability": "nonpayable",
      "type": "function"
    },
    {
      "inputs": [
        {
          "internalType": "bytes4",
          "name": "interfaceId",
          "type": "bytes4"
        }
      ],
      "name": "supportsInterface",
      "outputs": [
        {
          "internalType": "bool",
          "name": "",
          "type": "bool"
        }
      ],
      "stateMutability": "view",
      "type": "function"
    },
    {
      "inputs": [],
      "name": "symbol",
      "outputs": [
        {
          "internalType": "string",
          "name": "",
          "type": "string"
        }
      ],
      "stateMutability": "view",
      "type": "function"
    },
    {
      "inputs": [
        {
          "internalType": "uint256",
          "name": "tokenId",
          "type": "uint256"
        }
      ],
      "name": "tokenURI",
      "outputs": [
        {
          "internalType": "string",
          "name": "",
          "type": "string"
        }
      ],
      "stateMutability": "view",
      "type": "function"
    },
    {
      "inputs": [
        {
          "internalType": "address",
          "name": "from",
          "type": "address"
        },
        {
          "internalType": "address",
          "name": "to",
          "type": "address"
        },
        {
          "internalType": "uint256",
          "name": "tokenId",
          "type": "uint256"
        }
      ],
      "name": "transferFrom",
      "outputs": [],
      "stateMutability": "nonpayable",
      "type": "function"
    }
  ],
  "bytecode": "0x60806040523480156200001157600080fd5b506040518060400160405280600781526020016615195cdd13919560ca1b815250604051806040016040528060048152602001631513919560e21b81525081600090816200006091906200051d565b5060016200006f82826200051d565b50505062000085336001620000a560201b60201c565b62000092336002620000a5565b6200009f336003620000a5565b620005e9565b6001600160a01b038216620000d557604051633250574960e11b8152600060048201526024015b60405180910390fd5b6000620000e483838362000118565b90506001600160a01b0381161562000113576040516339e3563760e11b815260006004820152602401620000cc565b505050565b6000828152600260205260408120546001600160a01b039081169083161562000148576200014881848662000217565b6001600160a01b03811615620001885762000167600085818062000281565b6001600160a01b038116600090815260036020526040902080546000190190555b6001600160a01b03851615620001b8576001600160a01b0385166000908152600360205260409020805460010190555b60008481526002602052604080822080546001600160a01b0319166001600160a01b0389811691821790925591518793918516917fddf252ad1be2c89b69c2b068fc378daa952ba7f163c4a11628f55a4df523b3ef91a4949350505050565b62000224838383620003af565b62000113576001600160a01b0383166200025557604051637e27328960e01b815260048101829052602401620000cc565b60405163177e802f60e01b81526001600160a01b038316600482015260248101829052604401620000cc565b80806200029657506001600160a01b03821615155b156200037f576000620002a98462000438565b90506001600160a01b03831615801590620002d65750826001600160a01b0316816001600160a01b031614155b80156200030957506001600160a01b0380821660009081526005602090815260408083209387168352929052205460ff16155b15620003345760405163a9fbf51f60e01b81526001600160a01b0384166004820152602401620000cc565b81156200037d5783856001600160a01b0316826001600160a01b03167f8c5be1e5ebec7d5bd14f71427d1e84f3dd0314c0f7b2291e5b200ac8c7c3b92560405160405180910390a45b505b5050600090815260046020526040902080546001600160a01b0319166001600160a01b0392909216919091179055565b60006001600160a01b03831615801590620004305750826001600160a01b0316846001600160a01b031614806200040b57506001600160a01b0380851660009081526005602090815260408083209387168352929052205460ff165b806200043057506000828152600460205260409020546001600160a01b038481169116145b949350505050565b6000818152600260205260408120546001600160a01b0316806200047357604051637e27328960e01b815260048101849052602401620000cc565b92915050565b634e487b7160e01b600052604160045260246000fd5b600181811c90821680620004a457607f821691505b602082108103620004c557634e487b7160e01b600052602260045260246000fd5b50919050565b601f8211156200011357600081815260208120601f850160051c81016020861015620004f45750805b601f850160051c820191505b81811015620005155782815560010162000500565b505050505050565b81516001600160401b0381111562000539576200053962000479565b62000551816200054a84546200048f565b84620004cb565b602080601f831160018114620005895760008415620005705750858301515b600019600386901b1c1916600185901b17855562000515565b600085815260208120601f198616915b82811015620005ba5788860151825594840194600190910190840162000599565b5085821015620005d95787850151600019600388901b60f8161c191681555b5050505050600190811b01905550565b6110c180620005f96000396000f3fe608060405234801561001057600080fd5b50600436106100ea5760003560e01c806370a082311161008c578063b88d4fde11610066578063b88d4fde146101e1578063c7cc557d146101f4578063c87b56dd14610207578063e985e9c51461021a57600080fd5b806370a08231146101a557806395d89b41146101c6578063a22cb465146101ce57600080fd5b8063095ea7b3116100c8578063095ea7b31461015757806323b872dd1461016c57806342842e0e1461017f5780636352211e1461019257600080fd5b806301ffc9a7146100ef57806306fdde0314610117578063081812fc1461012c575b600080fd5b6101026100fd366004610c39565b61022d565b60405190151581526020015b60405180910390f35b61011f61027f565b60405161010e9190610ca6565b61013f61013a366004610cb9565b610311565b6040516001600160a01b03909116815260200161010e565b61016a610165366004610cee565b61033a565b005b61016a61017a366004610d18565b610349565b61016a61018d366004610d18565b6103d9565b61013f6101a0366004610cb9565b6103f9565b6101b86101b3366004610d54565b610404565b60405190815260200161010e565b61011f61044c565b61016a6101dc366004610d6f565b61045b565b61016a6101ef366004610df2565b610466565b61016a610202366004610eb2565b61047e565b61011f610215366004610cb9565b610537565b610102610228366004610f58565b6105ac565b60006001600160e01b031982166380ac58cd60e01b148061025e57506001600160e01b03198216635b5e139f60e01b145b8061027957506301ffc9a760e01b6001600160e01b03198316145b92915050565b60606000805461028e90610f8b565b80601f01602080910402602001604051908101604052809291908181526020018280546102ba90610f8b565b80156103075780601f106102dc57610100808354040283529160200191610307565b820191906000526020600020905b8154815290600101906020018083116102ea57829003601f168201915b5050505050905090565b600061031c826105dc565b506000828152600460205260409020546001600160a01b0316610279565b610345828233610615565b5050565b6001600160a01b03821661037857604051633250574960e11b8152600060048201526024015b60405180910390fd5b6000610385838333610622565b9050836001600160a01b0316816001600160a01b0316146103d3576040516364283d7b60e01b81526001600160a01b038086166004830152602482018490528216604482015260640161036f565b50505050565b6103f483838360405180602001604052806000815250610466565b505050565b6000610279826105dc565b60006001600160a01b038216610430576040516322718ad960e21b81526000600482015260240161036f565b506001600160a01b031660009081526003602052604090205490565b60606001805461028e90610f8b565b61034533838361071b565b610471848484610349565b6103d333858585856107ba565b60005b815181101561034557336001600160a01b03166104b68383815181106104a9576104a9610fc5565b60200260200101516103f9565b6001600160a01b0316146105015760405162461bcd60e51b81526020600482015260126024820152712737ba1037bbb732b91037b3103a37b5b2b760711b604482015260640161036f565b610525600083838151811061051857610518610fc5565b602002602001015161033a565b8061052f81610fdb565b915050610481565b6060610542826105dc565b50600061055a60408051602081019091526000815290565b9050600081511161057a57604051806020016040528060008152506105a5565b80610584846108e5565b604051602001610595929190611002565b6040516020818303038152906040525b9392505050565b6001600160a01b03808316600090815260056020908152604080832093851683529290529081205460ff166105a5565b6000818152600260205260408120546001600160a01b03168061027957604051637e27328960e01b81526004810184905260240161036f565b6103f48383836001610978565b6000828152600260205260408120546001600160a01b039081169083161561064f5761064f818486610a7e565b6001600160a01b0381161561068d5761066c600085600080610978565b6001600160a01b038116600090815260036020526040902080546000190190555b6001600160a01b038516156106bc576001600160a01b0385166000908152600360205260409020805460010190555b60008481526002602052604080822080546001600160a01b0319166001600160a01b0389811691821790925591518793918516917fddf252ad1be2c89b69c2b068fc378daa952ba7f163c4a11628f55a4df523b3ef91a4949350505050565b6001600160a01b03821661074d57604051630b61174360e31b81526001600160a01b038316600482015260240161036f565b6001600160a01b03838116600081815260056020908152604080832094871680845294825291829020805460ff191686151590811790915591519182527f17307eab39ab6107e8899845ad3d59bd9653f200f220920489ca2b5937696c31910160405180910390a3505050565b6001600160a01b0383163b156108de57604051630a85bd0160e11b81526001600160a01b0384169063150b7a02906107fc908890889087908790600401611031565b6020604051808303816000875af1925050508015610837575060408051601f3d908101601f191682019092526108349181019061106e565b60015b6108a0573d808015610865576040519150601f19603f3d011682016040523d82523d6000602084013e61086a565b606091505b50805160000361089857604051633250574960e11b81526001600160a01b038516600482015260240161036f565b805181602001fd5b6001600160e01b03198116630a85bd0160e11b146108dc57604051633250574960e11b81526001600160a01b038516600482015260240161036f565b505b5050505050565b606060006108f283610ae2565b600101905060008167ffffffffffffffff81111561091257610912610dab565b6040519080825280601f01601f19166020018201604052801561093c576020820181803683370190505b5090508181016020015b600019016f181899199a1a9b1b9c1cb0b131b232b360811b600a86061a8153600a850494508461094657509392505050565b808061098c57506001600160a01b03821615155b15610a4e57600061099c846105dc565b90506001600160a01b038316158015906109c85750826001600160a01b0316816001600160a01b031614155b80156109db57506109d981846105ac565b155b15610a045760405163a9fbf51f60e01b81526001600160a01b038416600482015260240161036f565b8115610a4c5783856001600160a01b0316826001600160a01b03167f8c5be1e5ebec7d5bd14f71427d1e84f3dd0314c0f7b2291e5b200ac8c7c3b92560405160405180910390a45b505b5050600090815260046020526040902080546001600160a01b0319166001600160a01b0392909216919091179055565b610a89838383610bba565b6103f4576001600160a01b038316610ab757604051637e27328960e01b81526004810182905260240161036f565b60405163177e802f60e01b81526001600160a01b03831660048201526024810182905260440161036f565b60008072184f03e93ff9f4daa797ed6e38ed64bf6a1f0160401b8310610b215772184f03e93ff9f4daa797ed6e38ed64bf6a1f0160401b830492506040015b6d04ee2d6d415b85acef81000000008310610b4d576d04ee2d6d415b85acef8100000000830492506020015b662386f26fc100008310610b6b57662386f26fc10000830492506010015b6305f5e1008310610b83576305f5e100830492506008015b6127108310610b9757612710830492506004015b60648310610ba9576064830492506002015b600a83106102795760010192915050565b60006001600160a01b03831615801590610c185750826001600160a01b0316846001600160a01b03161480610bf45750610bf484846105ac565b80610c1857506000828152600460205260409020546001600160a01b038481169116145b949350505050565b6001600160e01b031981168114610c3657600080fd5b50565b600060208284031215610c4b57600080fd5b81356105a581610c20565b60005b83811015610c71578181015183820152602001610c59565b50506000910152565b60008151808452610c92816020860160208601610c56565b601f01601f19169290920160200192915050565b6020815260006105a56020830184610c7a565b600060208284031215610ccb57600080fd5b5035919050565b80356001600160a01b0381168114610ce957600080fd5b919050565b60008060408385031215610d0157600080fd5b610d0a83610cd2565b946020939093013593505050565b600080600060608486031215610d2d57600080fd5b610d3684610cd2565b9250610d4460208501610cd2565b9150604084013590509250925092565b600060208284031215610d6657600080fd5b6105a582610cd2565b60008060408385031215610d8257600080fd5b610d8b83610cd2565b915060208301358015158114610da057600080fd5b809150509250929050565b634e487b7160e01b600052604160045260246000fd5b604051601f8201601f1916810167ffffffffffffffff81118282101715610dea57610dea610dab565b604052919050565b60008060008060808587031215610e0857600080fd5b610e1185610cd2565b93506020610e20818701610cd2565b935060408601359250606086013567ffffffffffffffff80821115610e4457600080fd5b818801915088601f830112610e5857600080fd5b813581811115610e6a57610e6a610dab565b610e7c601f8201601f19168501610dc1565b91508082528984828501011115610e9257600080fd5b808484018584013760008482840101525080935050505092959194509250565b60006020808385031215610ec557600080fd5b823567ffffffffffffffff80821115610edd57600080fd5b818501915085601f830112610ef157600080fd5b813581811115610f0357610f03610dab565b8060051b9150610f14848301610dc1565b8181529183018401918481019088841115610f2e57600080fd5b938501935b83851015610f4c57843582529385019390850190610f33565b98975050505050505050565b60008060408385031215610f6b57600080fd5b610f7483610cd2565b9150610f8260208401610cd2565b90509250929050565b600181811c90821680610f9f57607f821691505b602082108103610fbf57634e487b7160e01b600052602260045260246000fd5b50919050565b634e487b7160e01b600052603260045260246000fd5b600060018201610ffb57634e487b7160e01b600052601160045260246000fd5b5060010190565b60008351611014818460208801610c56565b835190830190611028818360208801610c56565b01949350505050565b6001600160a01b038581168252841660208201526040810183905260806060820181905260009061106490830184610c7a565b9695505050505050565b60006020828403121561108057600080fd5b81516105a581610c2056fea2646970667358221220667704ed37804410ea4d6c2aaa95f86893f12cb1d74cd7c6ef1d8c006b638a9664736f6c63430008140033",
  "linkReferences": {},
  "deployedLinkReferences": {}
}