{
  "_format": "hh-sol-artifact-1",
  "contractName": "TestNFT",
  "sourceName": "contracts/TestNFT.sol",
  "abi": [
    {
      "inputs": [],
      "stateMutability": "nonpayable",
      "type": "constructor"
    },
    {
      "inputs": [],
      "name": "ERC721EnumerableForbiddenBatchMint",
      "type": "error"
    },
    {
      "inputs": [
        {
          "internalType": "address",
          "name": "sender",
          "type": "address"
        },
        {
          "internalType": "uint256",
          "name": "tokenId",
          "type": "uint256"
        },
        {
          "internalType": "address",
          "name": "owner",
          "type": "address"
        }
      ],
      "name": "ERC721IncorrectOwner",
      "type": "error"
    },
    {
      "inputs": [
        {
          "internalType": "address",
          "name": "operator",
          "type": "address"
        },
        {
          "internalType": "uint256",
          "name": "tokenId",
          "type": "uint256"
        }
      ],
      "name": "ERC721InsufficientApproval",
      "type": "error"
    },
    {
      "inputs": [
        {
          "internalType": "address",
          "name": "approver",
          "type": "address"
        }
      ],
      "name": "ERC721InvalidApprover",
      "type": "error"
    },
    {
      "inputs": [
        {
          "internalType": "address",
          "name": "operator",
          "type": "address"
        }
      ],
      "name": "ERC721InvalidOperator",
      "type": "error"
    },
    {
      "inputs": [
        {
          "internalType": "address",
          "name": "owner",
          "type": "address"
        }
      ],
      "name": "ERC721InvalidOwner",
      "type": "error"
    },
    {
      "inputs": [
        {
          "internalType": "address",
          "name": "receiver",
          "type": "address"
        }
      ],
      "name": "ERC721InvalidReceiver",
      "type": "error"
    },
    {
      "inputs": [
        {
          "internalType": "address",
          "name": "sender",
          "type": "address"
        }
      ],
      "name": "ERC721InvalidSender",
      "type": "error"
    },
    {
      "inputs": [
        {
          "internalType": "uint256",
          "name": "tokenId",
          "type": "uint256"
        }
      ],
      "name": "ERC721NonexistentToken",
      "type": "error"
    },
    {
      "inputs": [
        {
          "internalType": "address",
          "name": "owner",
          "type": "address"
        },
        {
          "internalType": "uint256",
          "name": "index",
          "type": "uint256"
        }
      ],
      "name": "ERC721OutOfBoundsIndex",
      "type": "error"
    },
    {
      "inputs": [
        {
          "internalType": "address",
          "name": "owner",
          "type": "address"
        }
      ],
      "name": "OwnableInvalidOwner",
      "type": "error"
    },
    {
      "inputs": [
        {
          "internalType": "address",
          "name": "account",
          "type": "address"
        }
      ],
      "name": "OwnableUnauthorizedAccount",
      "type": "error"
    },
    {
      "anonymous": false,
      "inputs": [
        {
          "indexed": true,
          "internalType": "address",
          "name": "owner",
          "type": "address"
        },
        {
          "indexed": true,
          "internalType": "address",
          "name": "approved",
          "type": "address"
        },
        {
          "indexed": true,
          "internalType": "uint256",
          "name": "tokenId",
          "type": "uint256"
        }
      ],
      "name": "Approval",
      "type": "event"
    },
    {
      "anonymous": false,
      "inputs": [
        {
          "indexed": true,
          "internalType": "address",
          "name": "owner",
          "type": "address"
        },
        {
          "indexed": true,
          "internalType": "address",
          "name": "operator",
          "type": "address"
        },
        {
          "indexed": false,
          "internalType": "bool",
          "name": "approved",
          "type": "bool"
        }
      ],
      "name": "ApprovalForAll",
      "type": "event"
    },
    {
      "anonymous": false,
      "inputs": [
        {
          "indexed": true,
          "internalType": "uint256",
          "name": "tokenId",
          "type": "uint256"
        },
        {
          "indexed": true,
          "internalType": "address",
          "name": "owner",
          "type": "address"
        }
      ],
      "name": "ApprovalRevoked",
      "type": "event"
    },
    {
      "anonymous": false,
      "inputs": [
        {
          "indexed": true,
          "internalType": "address",
          "name": "previousOwner",
          "type": "address"
        },
        {
          "indexed": true,
          "internalType": "address",
          "name": "newOwner",
          "type": "address"
        }
      ],
      "name": "OwnershipTransferred",
      "type": "event"
    },
    {
      "anonymous": false,
      "inputs": [
        {
          "indexed": true,
          "internalType": "address",
          "name": "from",
          "type": "address"
        },
        {
          "indexed": true,
          "internalType": "address",
          "name": "to",
          "type": "address"
        },
        {
          "indexed": true,
          "internalType": "uint256",
          "name": "tokenId",
          "type": "uint256"
        }
      ],
      "name": "Transfer",
      "type": "event"
    },
    {
      "inputs": [
        {
          "internalType": "address",
          "name": "to",
          "type": "address"
        },
        {
          "internalType": "uint256",
          "name": "tokenId",
          "type": "uint256"
        }
      ],
      "name": "approve",
      "outputs": [],
      "stateMutability": "nonpayable",
      "type": "function"
    },
    {
      "inputs": [
        {
          "internalType": "address",
          "name": "owner",
          "type": "address"
        }
      ],
      "name": "balanceOf",
      "outputs": [
        {
          "internalType": "uint256",
          "name": "",
          "type": "uint256"
        }
      ],
      "stateMutability": "view",
      "type": "function"
    },
    {
      "inputs": [
        {
          "internalType": "uint256[]",
          "name": "tokenIds",
          "type": "uint256[]"
        }
      ],
      "name": "batchRevokeApprovals",
      "outputs": [],
      "stateMutability": "nonpayable",
      "type": "function"
    },
    {
      "inputs": [
        {
          "internalType": "uint256",
          "name": "tokenId",
          "type": "uint256"
        }
      ],
      "name": "getApproved",
      "outputs": [
        {
          "internalType": "address",
          "name": "",
          "type": "address"
        }
      ],
      "stateMutability": "view",
      "type": "function"
    },
    {
      "inputs": [
        {
          "internalType": "address",
          "name": "owner",
          "type": "address"
        },
        {
          "internalType": "address",
          "name": "operator",
          "type": "address"
        }
      ],
      "name": "isApprovedForAll",
      "outputs": [
        {
          "internalType": "bool",
          "name": "",
          "type": "bool"
        }
      ],
      "stateMutability": "view",
      "type": "function"
    },
    {
      "inputs": [],
      "name": "name",
      "outputs": [
        {
          "internalType": "string",
          "name": "",
          "type": "string"
        }
      ],
      "stateMutability": "view",
      "type": "function"
    },
    {
      "inputs": [],
      "name": "owner",
      "outputs": [
        {
          "internalType": "address",
          "name": "",
          "type": "address"
        }
      ],
      "stateMutability": "view",
      "type": "function"
    },
    {
      "inputs": [
        {
          "internalType": "uint256",
          "name": "tokenId",
          "type": "uint256"
        }
      ],
      "name": "ownerOf",
      "outputs": [
        {
          "internalType": "address",
          "name": "",
          "type": "address"
        }
      ],
      "stateMutability": "view",
      "type": "function"
    },
    {
      "inputs": [],
      "name": "renounceOwnership",
      "outputs": [],
      "stateMutability": "nonpayable",
      "type": "function"
    },
    {
      "inputs": [
        {
          "internalType": "address",
          "name": "to",
          "type": "address"
        }
      ],
      "name": "safeMint",
      "outputs": [],
      "stateMutability": "nonpayable",
      "type": "function"
    },
    {
      "inputs": [
        {
          "internalType": "address",
          "name": "from",
          "type": "address"
        },
        {
          "internalType": "address",
          "name": "to",
          "type": "address"
        },
        {
          "internalType": "uint256",
          "name": "tokenId",
          "type": "uint256"
        }
      ],
      "name": "safeTransferFrom",
      "outputs": [],
      "stateMutability": "nonpayable",
      "type": "function"
    },
    {
      "inputs": [
        {
          "internalType": "address",
          "name": "from",
          "type": "address"
        },
        {
          "internalType": "address",
          "name": "to",
          "type": "address"
        },
        {
          "internalType": "uint256",
          "name": "tokenId",
          "type": "uint256"
        },
        {
          "internalType": "bytes",
          "name": "data",
          "type": "bytes"
        }
      ],
      "name": "safeTransferFrom",
      "outputs": [],
      "stateMutability": "nonpayable",
      "type": "function"
    },
    {
      "inputs": [
        {
          "internalType": "address",
          "name": "operator",
          "type": "address"
        },
        {
          "internalType": "bool",
          "name": "approved",
          "type": "bool"
        }
      ],
      "name": "setApprovalForAll",
      "outputs": [],
      "stateMutability": "nonpayable",
      "type": "function"
    },
    {
      "inputs": [
        {
          "internalType": "bytes4",
          "name": "interfaceId",
          "type": "bytes4"
        }
      ],
      "name": "supportsInterface",
      "outputs": [
        {
          "internalType": "bool",
          "name": "",
          "type": "bool"
        }
      ],
      "stateMutability": "view",
      "type": "function"
    },
    {
      "inputs": [],
      "name": "symbol",
      "outputs": [
        {
          "internalType": "string",
          "name": "",
          "type": "string"
        }
      ],
      "stateMutability": "view",
      "type": "function"
    },
    {
      "inputs": [
        {
          "internalType": "uint256",
          "name": "index",
          "type": "uint256"
        }
      ],
      "name": "tokenByIndex",
      "outputs": [
        {
          "internalType": "uint256",
          "name": "",
          "type": "uint256"
        }
      ],
      "stateMutability": "view",
      "type": "function"
    },
    {
      "inputs": [
        {
          "internalType": "address",
          "name": "owner",
          "type": "address"
        },
        {
          "internalType": "uint256",
          "name": "index",
          "type": "uint256"
        }
      ],
      "name": "tokenOfOwnerByIndex",
      "outputs": [
        {
          "internalType": "uint256",
          "name": "",
          "type": "uint256"
        }
      ],
      "stateMutability": "view",
      "type": "function"
    },
    {
      "inputs": [
        {
          "internalType": "uint256",
          "name": "tokenId",
          "type": "uint256"
        }
      ],
      "name": "tokenURI",
      "outputs": [
        {
          "internalType": "string",
          "name": "",
          "type": "string"
        }
      ],
      "stateMutability": "view",
      "type": "function"
    },
    {
      "inputs": [],
      "name": "totalSupply",
      "outputs": [
        {
          "internalType": "uint256",
          "name": "",
          "type": "uint256"
        }
      ],
      "stateMutability": "view",
      "type": "function"
    },
    {
      "inputs": [
        {
          "internalType": "address",
          "name": "from",
          "type": "address"
        },
        {
          "internalType": "address",
          "name": "to",
          "type": "address"
        },
        {
          "internalType": "uint256",
          "name": "tokenId",
          "type": "uint256"
        }
      ],
      "name": "transferFrom",
      "outputs": [],
      "stateMutability": "nonpayable",
      "type": "function"
    },
    {
      "inputs": [
        {
          "internalType": "address",
          "name": "newOwner",
          "type": "address"
        }
      ],
      "name": "transferOwnership",
      "outputs": [],
      "stateMutability": "nonpayable",
      "type": "function"
    }
  ],
  "bytecode": "0x60806040523480156200001157600080fd5b50336040518060400160405280600781526020016615195cdd13919560ca1b815250604051806040016040528060048152602001631513919560e21b81525081600090816200006191906200085f565b5060016200007082826200085f565b5050506001600160a01b038116620000a357604051631e4fbdf760e01b8152600060048201526024015b60405180910390fd5b620000ae81620000dc565b50620000bc3360016200012e565b620000c93360026200012e565b620000d63360036200012e565b62000979565b600a80546001600160a01b038381166001600160a01b0319831681179093556040519116919082907f8be0079c531659141344cd1fd0a4f28419497f9722a3daafe3b4186f6b6457e090600090a35050565b6001600160a01b0382166200015a57604051633250574960e11b8152600060048201526024016200009a565b6000620001698383836200019d565b90506001600160a01b0381161562000198576040516339e3563760e11b8152600060048201526024016200009a565b505050565b600080620001ad85858562000281565b90506001600160a01b0381166200020d576200020784600880546000838152600960205260408120829055600182018355919091527ff3f7a9fe364faab93b216da50a3214154f22a0a2b415b23a84c8169e8b636ee30155565b62000233565b846001600160a01b0316816001600160a01b031614620002335762000233818562000380565b6001600160a01b03851662000253576200024d8462000404565b62000279565b846001600160a01b0316816001600160a01b0316146200027957620002798585620004be565b949350505050565b6000828152600260205260408120546001600160a01b0390811690831615620002b157620002b181848662000512565b6001600160a01b03811615620002f157620002d060008581806200057c565b6001600160a01b038116600090815260036020526040902080546000190190555b6001600160a01b0385161562000321576001600160a01b0385166000908152600360205260409020805460010190555b60008481526002602052604080822080546001600160a01b0319166001600160a01b0389811691821790925591518793918516917fddf252ad1be2c89b69c2b068fc378daa952ba7f163c4a11628f55a4df523b3ef91a4949350505050565b60006200038d83620006aa565b6000838152600760209081526040808320546001600160a01b0388168452600690925290912091925090818314620003e557600083815260208281526040808320548584528184208190558352600790915290208290555b6000938452600760209081526040808620869055938552525081205550565b60085460009062000418906001906200092b565b600083815260096020526040812054600880549394509092849081106200044357620004436200094d565b9060005260206000200154905080600883815481106200046757620004676200094d565b6000918252602080832090910192909255828152600990915260408082208490558582528120556008805480620004a257620004a262000963565b6001900381819060005260206000200160009055905550505050565b60006001620004cd84620006aa565b620004d991906200092b565b6001600160a01b039093166000908152600660209081526040808320868452825280832085905593825260079052919091209190915550565b6200051f838383620006f4565b62000198576001600160a01b0383166200055057604051637e27328960e01b8152600481018290526024016200009a565b60405163177e802f60e01b81526001600160a01b0383166004820152602481018290526044016200009a565b80806200059157506001600160a01b03821615155b156200067a576000620005a4846200077a565b90506001600160a01b03831615801590620005d15750826001600160a01b0316816001600160a01b031614155b80156200060457506001600160a01b0380821660009081526005602090815260408083209387168352929052205460ff16155b156200062f5760405163a9fbf51f60e01b81526001600160a01b03841660048201526024016200009a565b8115620006785783856001600160a01b0316826001600160a01b03167f8c5be1e5ebec7d5bd14f71427d1e84f3dd0314c0f7b2291e5b200ac8c7c3b92560405160405180910390a45b505b5050600090815260046020526040902080546001600160a01b0319166001600160a01b0392909216919091179055565b60006001600160a01b038216620006d8576040516322718ad960e21b8152600060048201526024016200009a565b506001600160a01b031660009081526003602052604090205490565b60006001600160a01b03831615801590620002795750826001600160a01b0316846001600160a01b031614806200075057506001600160a01b0380851660009081526005602090815260408083209387168352929052205460ff165b80620002795750506000908152600460205260409020546001600160a01b03908116911614919050565b6000818152600260205260408120546001600160a01b031680620007b557604051637e27328960e01b8152600481018490526024016200009a565b92915050565b634e487b7160e01b600052604160045260246000fd5b600181811c90821680620007e657607f821691505b6020821081036200080757634e487b7160e01b600052602260045260246000fd5b50919050565b601f8211156200019857600081815260208120601f850160051c81016020861015620008365750805b601f850160051c820191505b81811015620008575782815560010162000842565b505050505050565b81516001600160401b038111156200087b576200087b620007bb565b62000893816200088c8454620007d1565b846200080d565b602080601f831160018114620008cb5760008415620008b25750858301515b600019600386901b1c1916600185901b17855562000857565b600085815260208120601f198616915b82811015620008fc57888601518255948401946001909101908401620008db565b50858210156200091b5787850151600019600388901b60f8161c191681555b5050505050600190811b01905550565b81810381811115620007b557634e487b7160e01b600052601160045260246000fd5b634e487b7160e01b600052603260045260246000fd5b634e487b7160e01b600052603160045260246000fd5b61179380620009896000396000f3fe608060405234801561001057600080fd5b50600436106101375760003560e01c80636352211e116100b8578063a22cb4651161007c578063a22cb46514610271578063b88d4fde14610284578063c7cc557d14610297578063c87b56dd146102aa578063e985e9c5146102bd578063f2fde38b146102d057600080fd5b80636352211e1461022a57806370a082311461023d578063715018a6146102505780638da5cb5b1461025857806395d89b411461026957600080fd5b806323b872dd116100ff57806323b872dd146101cb5780632f745c59146101de57806340d097c3146101f157806342842e0e146102045780634f6ccce71461021757600080fd5b806301ffc9a71461013c57806306fdde0314610164578063081812fc14610179578063095ea7b3146101a457806318160ddd146101b9575b600080fd5b61014f61014a366004611275565b6102e3565b60405190151581526020015b60405180910390f35b61016c61030e565b60405161015b91906112e2565b61018c6101873660046112f5565b6103a0565b6040516001600160a01b03909116815260200161015b565b6101b76101b236600461132a565b6103c9565b005b6008545b60405190815260200161015b565b6101b76101d9366004611354565b6103d8565b6101bd6101ec36600461132a565b610468565b6101b76101ff366004611390565b6104cd565b6101b7610212366004611354565b610517565b6101bd6102253660046112f5565b610537565b61018c6102383660046112f5565b610590565b6101bd61024b366004611390565b61059b565b6101b76105e3565b600a546001600160a01b031661018c565b61016c6105f7565b6101b761027f3660046113ab565b610606565b6101b761029236600461142e565b610611565b6101b76102a53660046114ee565b610629565b61016c6102b83660046112f5565b610783565b61014f6102cb366004611594565b6107f8565b6101b76102de366004611390565b610828565b60006001600160e01b0319821663780e9d6360e01b1480610308575061030882610863565b92915050565b60606000805461031d906115c7565b80601f0160208091040260200160405190810160405280929190818152602001828054610349906115c7565b80156103965780601f1061036b57610100808354040283529160200191610396565b820191906000526020600020905b81548152906001019060200180831161037957829003601f168201915b5050505050905090565b60006103ab826108b3565b506000828152600460205260409020546001600160a01b0316610308565b6103d48282336108ec565b5050565b6001600160a01b03821661040757604051633250574960e11b8152600060048201526024015b60405180910390fd5b60006104148383336108f9565b9050836001600160a01b0316816001600160a01b031614610462576040516364283d7b60e01b81526001600160a01b03808616600483015260248201849052821660448201526064016103fe565b50505050565b60006104738361059b565b82106104a45760405163295f44f760e21b81526001600160a01b0384166004820152602481018390526044016103fe565b506001600160a01b03919091166000908152600660209081526040808320938352929052205490565b6104d56109ce565b60006104e060085490565b6104eb906001611617565b90508060000361050d5760405162461bcd60e51b81526004016103fe9061162a565b6103d482826109fb565b61053283838360405180602001604052806000815250610611565b505050565b600061054260085490565b821061056b5760405163295f44f760e21b815260006004820152602481018390526044016103fe565b6008828154811061057e5761057e61167c565b90600052602060002001549050919050565b6000610308826108b3565b60006001600160a01b0382166105c7576040516322718ad960e21b8152600060048201526024016103fe565b506001600160a01b031660009081526003602052604090205490565b6105eb6109ce565b6105f56000610a15565b565b60606001805461031d906115c7565b6103d4338383610a67565b61061c8484846103d8565b6104623385858585610b06565b6106316109ce565b60005b81518110156107735781818151811061064f5761064f61167c565b60200260200101516000036106765760405162461bcd60e51b81526004016103fe9061162a565b336001600160a01b03166106a28383815181106106955761069561167c565b6020026020010151610590565b6001600160a01b0316146106ed5760405162461bcd60e51b81526020600482015260126024820152712737ba1037bbb732b91037b3103a37b5b2b760711b60448201526064016103fe565b61071160008383815181106107045761070461167c565b60200260200101516103c9565b336001600160a01b031682828151811061072d5761072d61167c565b60200260200101517f430c786ad6c97d1739e88415e23257a88a0a989b6bdc4e9e415b72bb53d869a860405160405180910390a38061076b81611692565b915050610634565b5061078033600080610a67565b50565b606061078e826108b3565b5060006107a660408051602081019091526000815290565b905060008151116107c657604051806020016040528060008152506107f1565b806107d084610c31565b6040516020016107e19291906116ab565b6040516020818303038152906040525b9392505050565b6001600160a01b03808316600090815260056020908152604080832093851683529290529081205460ff166107f1565b6108306109ce565b6001600160a01b03811661085a57604051631e4fbdf760e01b8152600060048201526024016103fe565b61078081610a15565b60006001600160e01b031982166380ac58cd60e01b148061089457506001600160e01b03198216635b5e139f60e01b145b8061030857506301ffc9a760e01b6001600160e01b0319831614610308565b6000818152600260205260408120546001600160a01b03168061030857604051637e27328960e01b8152600481018490526024016103fe565b6105328383836001610cc4565b600080610907858585610dca565b90506001600160a01b0381166109645761095f84600880546000838152600960205260408120829055600182018355919091527ff3f7a9fe364faab93b216da50a3214154f22a0a2b415b23a84c8169e8b636ee30155565b610987565b846001600160a01b0316816001600160a01b031614610987576109878185610ec3565b6001600160a01b0385166109a35761099e84610f44565b6109c6565b846001600160a01b0316816001600160a01b0316146109c6576109c68585610ff3565b949350505050565b600a546001600160a01b031633146105f55760405163118cdaa760e01b81523360048201526024016103fe565b6103d4828260405180602001604052806000815250611043565b600a80546001600160a01b038381166001600160a01b0319831681179093556040519116919082907f8be0079c531659141344cd1fd0a4f28419497f9722a3daafe3b4186f6b6457e090600090a35050565b6001600160a01b038216610a9957604051630b61174360e31b81526001600160a01b03831660048201526024016103fe565b6001600160a01b03838116600081815260056020908152604080832094871680845294825291829020805460ff191686151590811790915591519182527f17307eab39ab6107e8899845ad3d59bd9653f200f220920489ca2b5937696c31910160405180910390a3505050565b6001600160a01b0383163b15610c2a57604051630a85bd0160e11b81526001600160a01b0384169063150b7a0290610b489088908890879087906004016116da565b6020604051808303816000875af1925050508015610b83575060408051601f3d908101601f19168201909252610b8091810190611717565b60015b610bec573d808015610bb1576040519150601f19603f3d011682016040523d82523d6000602084013e610bb6565b606091505b508051600003610be457604051633250574960e11b81526001600160a01b03851660048201526024016103fe565b805181602001fd5b6001600160e01b03198116630a85bd0160e11b14610c2857604051633250574960e11b81526001600160a01b03851660048201526024016103fe565b505b5050505050565b60606000610c3e8361105b565b600101905060008167ffffffffffffffff811115610c5e57610c5e6113e7565b6040519080825280601f01601f191660200182016040528015610c88576020820181803683370190505b5090508181016020015b600019016f181899199a1a9b1b9c1cb0b131b232b360811b600a86061a8153600a8504945084610c9257509392505050565b8080610cd857506001600160a01b03821615155b15610d9a576000610ce8846108b3565b90506001600160a01b03831615801590610d145750826001600160a01b0316816001600160a01b031614155b8015610d275750610d2581846107f8565b155b15610d505760405163a9fbf51f60e01b81526001600160a01b03841660048201526024016103fe565b8115610d985783856001600160a01b0316826001600160a01b03167f8c5be1e5ebec7d5bd14f71427d1e84f3dd0314c0f7b2291e5b200ac8c7c3b92560405160405180910390a45b505b5050600090815260046020526040902080546001600160a01b0319166001600160a01b0392909216919091179055565b6000828152600260205260408120546001600160a01b0390811690831615610df757610df7818486611133565b6001600160a01b03811615610e3557610e14600085600080610cc4565b6001600160a01b038116600090815260036020526040902080546000190190555b6001600160a01b03851615610e64576001600160a01b0385166000908152600360205260409020805460010190555b60008481526002602052604080822080546001600160a01b0319166001600160a01b0389811691821790925591518793918516917fddf252ad1be2c89b69c2b068fc378daa952ba7f163c4a11628f55a4df523b3ef91a4949350505050565b6000610ece8361059b565b6000838152600760209081526040808320546001600160a01b0388168452600690925290912091925090818314610f2557600083815260208281526040808320548584528184208190558352600790915290208290555b6000938452600760209081526040808620869055938552525081205550565b600854600090610f5690600190611734565b60008381526009602052604081205460088054939450909284908110610f7e57610f7e61167c565b906000526020600020015490508060088381548110610f9f57610f9f61167c565b6000918252602080832090910192909255828152600990915260408082208490558582528120556008805480610fd757610fd7611747565b6001900381819060005260206000200160009055905550505050565b600060016110008461059b565b61100a9190611734565b6001600160a01b039093166000908152600660209081526040808320868452825280832085905593825260079052919091209190915550565b61104d8383611197565b610532336000858585610b06565b60008072184f03e93ff9f4daa797ed6e38ed64bf6a1f0160401b831061109a5772184f03e93ff9f4daa797ed6e38ed64bf6a1f0160401b830492506040015b6d04ee2d6d415b85acef810000000083106110c6576d04ee2d6d415b85acef8100000000830492506020015b662386f26fc1000083106110e457662386f26fc10000830492506010015b6305f5e10083106110fc576305f5e100830492506008015b612710831061111057612710830492506004015b60648310611122576064830492506002015b600a83106103085760010192915050565b61113e8383836111fc565b610532576001600160a01b03831661116c57604051637e27328960e01b8152600481018290526024016103fe565b60405163177e802f60e01b81526001600160a01b0383166004820152602481018290526044016103fe565b6001600160a01b0382166111c157604051633250574960e11b8152600060048201526024016103fe565b60006111cf838360006108f9565b90506001600160a01b03811615610532576040516339e3563760e11b8152600060048201526024016103fe565b60006001600160a01b038316158015906109c65750826001600160a01b0316846001600160a01b03161480611236575061123684846107f8565b806109c65750506000908152600460205260409020546001600160a01b03908116911614919050565b6001600160e01b03198116811461078057600080fd5b60006020828403121561128757600080fd5b81356107f18161125f565b60005b838110156112ad578181015183820152602001611295565b50506000910152565b600081518084526112ce816020860160208601611292565b601f01601f19169290920160200192915050565b6020815260006107f160208301846112b6565b60006020828403121561130757600080fd5b5035919050565b80356001600160a01b038116811461132557600080fd5b919050565b6000806040838503121561133d57600080fd5b6113468361130e565b946020939093013593505050565b60008060006060848603121561136957600080fd5b6113728461130e565b92506113806020850161130e565b9150604084013590509250925092565b6000602082840312156113a257600080fd5b6107f18261130e565b600080604083850312156113be57600080fd5b6113c78361130e565b9150602083013580151581146113dc57600080fd5b809150509250929050565b634e487b7160e01b600052604160045260246000fd5b604051601f8201601f1916810167ffffffffffffffff81118282101715611426576114266113e7565b604052919050565b6000806000806080858703121561144457600080fd5b61144d8561130e565b9350602061145c81870161130e565b935060408601359250606086013567ffffffffffffffff8082111561148057600080fd5b818801915088601f83011261149457600080fd5b8135818111156114a6576114a66113e7565b6114b8601f8201601f191685016113fd565b915080825289848285010111156114ce57600080fd5b808484018584013760008482840101525080935050505092959194509250565b6000602080838503121561150157600080fd5b823567ffffffffffffffff8082111561151957600080fd5b818501915085601f83011261152d57600080fd5b81358181111561153f5761153f6113e7565b8060051b91506115508483016113fd565b818152918301840191848101908884111561156a57600080fd5b938501935b838510156115885784358252938501939085019061156f565b98975050505050505050565b600080604083850312156115a757600080fd5b6115b08361130e565b91506115be6020840161130e565b90509250929050565b600181811c908216806115db57607f821691505b6020821081036115fb57634e487b7160e01b600052602260045260246000fd5b50919050565b634e487b7160e01b600052601160045260246000fd5b8082018082111561030857610308611601565b60208082526032908201527f546573744e46543a20546f6b656e204944203020697320726573657276656420604082015271185b990818d85b9b9bdd081899481d5cd95960721b606082015260800190565b634e487b7160e01b600052603260045260246000fd5b6000600182016116a4576116a4611601565b5060010190565b600083516116bd818460208801611292565b8351908301906116d1818360208801611292565b01949350505050565b6001600160a01b038581168252841660208201526040810183905260806060820181905260009061170d908301846112b6565b9695505050505050565b60006020828403121561172957600080fd5b81516107f18161125f565b8181038181111561030857610308611601565b634e487b7160e01b600052603160045260246000fdfea2646970667358221220e066604fa4100665d34af1ceaffcccc538e44b1451ac5ec19de3734673842ea264736f6c63430008140033",
  "linkReferences": {},
  "deployedLinkReferences": {}
}