{
  "_format": "hh-sol-artifact-1",
  "contractName": "TestNFT",
  "sourceName": "contracts/TestNFT.sol",
  "abi": [
    {
      "inputs": [],
      "stateMutability": "nonpayable",
      "type": "constructor"
    },
    {
      "inputs": [],
      "name": "ERC721EnumerableForbiddenBatchMint",
      "type": "error"
    },
    {
      "inputs": [
        {
          "internalType": "address",
          "name": "sender",
          "type": "address"
        },
        {
          "internalType": "uint256",
          "name": "tokenId",
          "type": "uint256"
        },
        {
          "internalType": "address",
          "name": "owner",
          "type": "address"
        }
      ],
      "name": "ERC721IncorrectOwner",
      "type": "error"
    },
    {
      "inputs": [
        {
          "internalType": "address",
          "name": "operator",
          "type": "address"
        },
        {
          "internalType": "uint256",
          "name": "tokenId",
          "type": "uint256"
        }
      ],
      "name": "ERC721InsufficientApproval",
      "type": "error"
    },
    {
      "inputs": [
        {
          "internalType": "address",
          "name": "approver",
          "type": "address"
        }
      ],
      "name": "ERC721InvalidApprover",
      "type": "error"
    },
    {
      "inputs": [
        {
          "internalType": "address",
          "name": "operator",
          "type": "address"
        }
      ],
      "name": "ERC721InvalidOperator",
      "type": "error"
    },
    {
      "inputs": [
        {
          "internalType": "address",
          "name": "owner",
          "type": "address"
        }
      ],
      "name": "ERC721InvalidOwner",
      "type": "error"
    },
    {
      "inputs": [
        {
          "internalType": "address",
          "name": "receiver",
          "type": "address"
        }
      ],
      "name": "ERC721InvalidReceiver",
      "type": "error"
    },
    {
      "inputs": [
        {
          "internalType": "address",
          "name": "sender",
          "type": "address"
        }
      ],
      "name": "ERC721InvalidSender",
      "type": "error"
    },
    {
      "inputs": [
        {
          "internalType": "uint256",
          "name": "tokenId",
          "type": "uint256"
        }
      ],
      "name": "ERC721NonexistentToken",
      "type": "error"
    },
    {
      "inputs": [
        {
          "internalType": "address",
          "name": "owner",
          "type": "address"
        },
        {
          "internalType": "uint256",
          "name": "index",
          "type": "uint256"
        }
      ],
      "name": "ERC721OutOfBoundsIndex",
      "type": "error"
    },
    {
      "inputs": [
        {
          "internalType": "address",
          "name": "owner",
          "type": "address"
        }
      ],
      "name": "OwnableInvalidOwner",
      "type": "error"
    },
    {
      "inputs": [
        {
          "internalType": "address",
          "name": "account",
          "type": "address"
        }
      ],
      "name": "OwnableUnauthorizedAccount",
      "type": "error"
    },
    {
      "anonymous": false,
      "inputs": [
        {
          "indexed": true,
          "internalType": "address",
          "name": "owner",
          "type": "address"
        },
        {
          "indexed": true,
          "internalType": "address",
          "name": "approved",
          "type": "address"
        },
        {
          "indexed": true,
          "internalType": "uint256",
          "name": "tokenId",
          "type": "uint256"
        }
      ],
      "name": "Approval",
      "type": "event"
    },
    {
      "anonymous": false,
      "inputs": [
        {
          "indexed": true,
          "internalType": "address",
          "name": "owner",
          "type": "address"
        },
        {
          "indexed": true,
          "internalType": "address",
          "name": "operator",
          "type": "address"
        },
        {
          "indexed": false,
          "internalType": "bool",
          "name": "approved",
          "type": "bool"
        }
      ],
      "name": "ApprovalForAll",
      "type": "event"
    },
    {
      "anonymous": false,
      "inputs": [
        {
          "indexed": true,
          "internalType": "uint256",
          "name": "tokenId",
          "type": "uint256"
        },
        {
          "indexed": true,
          "internalType": "address",
          "name": "owner",
          "type": "address"
        }
      ],
      "name": "ApprovalRevoked",
      "type": "event"
    },
    {
      "anonymous": false,
      "inputs": [
        {
          "indexed": true,
          "internalType": "address",
          "name": "previousOwner",
          "type": "address"
        },
        {
          "indexed": true,
          "internalType": "address",
          "name": "newOwner",
          "type": "address"
        }
      ],
      "name": "OwnershipTransferred",
      "type": "event"
    },
    {
      "anonymous": false,
      "inputs": [
        {
          "indexed": true,
          "internalType": "address",
          "name": "from",
          "type": "address"
        },
        {
          "indexed": true,
          "internalType": "address",
          "name": "to",
          "type": "address"
        },
        {
          "indexed": true,
          "internalType": "uint256",
          "name": "tokenId",
          "type": "uint256"
        }
      ],
      "name": "Transfer",
      "type": "event"
    },
    {
      "inputs": [
        {
          "internalType": "address",
          "name": "to",
          "type": "address"
        },
        {
          "internalType": "uint256",
          "name": "tokenId",
          "type": "uint256"
        }
      ],
      "name": "approve",
      "outputs": [],
      "stateMutability": "nonpayable",
      "type": "function"
    },
    {
      "inputs": [
        {
          "internalType": "address",
          "name": "owner",
          "type": "address"
        }
      ],
      "name": "balanceOf",
      "outputs": [
        {
          "internalType": "uint256",
          "name": "",
          "type": "uint256"
        }
      ],
      "stateMutability": "view",
      "type": "function"
    },
    {
      "inputs": [
        {
          "internalType": "uint256[]",
          "name": "tokenIds",
          "type": "uint256[]"
        }
      ],
      "name": "batchRevokeApprovals",
      "outputs": [],
      "stateMutability": "nonpayable",
      "type": "function"
    },
    {
      "inputs": [
        {
          "internalType": "uint256",
          "name": "tokenId",
          "type": "uint256"
        }
      ],
      "name": "getApproved",
      "outputs": [
        {
          "internalType": "address",
          "name": "",
          "type": "address"
        }
      ],
      "stateMutability": "view",
      "type": "function"
    },
    {
      "inputs": [
        {
          "internalType": "address",
          "name": "owner",
          "type": "address"
        },
        {
          "internalType": "address",
          "name": "operator",
          "type": "address"
        }
      ],
      "name": "isApprovedForAll",
      "outputs": [
        {
          "internalType": "bool",
          "name": "",
          "type": "bool"
        }
      ],
      "stateMutability": "view",
      "type": "function"
    },
    {
      "inputs": [],
      "name": "name",
      "outputs": [
        {
          "internalType": "string",
          "name": "",
          "type": "string"
        }
      ],
      "stateMutability": "view",
      "type": "function"
    },
    {
      "inputs": [],
      "name": "owner",
      "outputs": [
        {
          "internalType": "address",
          "name": "",
          "type": "address"
        }
      ],
      "stateMutability": "view",
      "type": "function"
    },
    {
      "inputs": [
        {
          "internalType": "uint256",
          "name": "tokenId",
          "type": "uint256"
        }
      ],
      "name": "ownerOf",
      "outputs": [
        {
          "internalType": "address",
          "name": "",
          "type": "address"
        }
      ],
      "stateMutability": "view",
      "type": "function"
    },
    {
      "inputs": [],
      "name": "renounceOwnership",
      "outputs": [],
      "stateMutability": "nonpayable",
      "type": "function"
    },
    {
      "inputs": [
        {
          "internalType": "address",
          "name": "to",
          "type": "address"
        }
      ],
      "name": "safeMint",
      "outputs": [],
      "stateMutability": "nonpayable",
      "type": "function"
    },
    {
      "inputs": [
        {
          "internalType": "address",
          "name": "from",
          "type": "address"
        },
        {
          "internalType": "address",
          "name": "to",
          "type": "address"
        },
        {
          "internalType": "uint256",
          "name": "tokenId",
          "type": "uint256"
        }
      ],
      "name": "safeTransferFrom",
      "outputs": [],
      "stateMutability": "nonpayable",
      "type": "function"
    },
    {
      "inputs": [
        {
          "internalType": "address",
          "name": "from",
          "type": "address"
        },
        {
          "internalType": "address",
          "name": "to",
          "type": "address"
        },
        {
          "internalType": "uint256",
          "name": "tokenId",
          "type": "uint256"
        },
        {
          "internalType": "bytes",
          "name": "data",
          "type": "bytes"
        }
      ],
      "name": "safeTransferFrom",
      "outputs": [],
      "stateMutability": "nonpayable",
      "type": "function"
    },
    {
      "inputs": [
        {
          "internalType": "address",
          "name": "operator",
          "type": "address"
        },
        {
          "internalType": "bool",
          "name": "approved",
          "type": "bool"
        }
      ],
      "name": "setApprovalForAll",
      "outputs": [],
      "stateMutability": "nonpayable",
      "type": "function"
    },
    {
      "inputs": [
        {
          "internalType": "bytes4",
          "name": "interfaceId",
          "type": "bytes4"
        }
      ],
      "name": "supportsInterface",
      "outputs": [
        {
          "internalType": "bool",
          "name": "",
          "type": "bool"
        }
      ],
      "stateMutability": "view",
      "type": "function"
    },
    {
      "inputs": [],
      "name": "symbol",
      "outputs": [
        {
          "internalType": "string",
          "name": "",
          "type": "string"
        }
      ],
      "stateMutability": "view",
      "type": "function"
    },
    {
      "inputs": [
        {
          "internalType": "uint256",
          "name": "index",
          "type": "uint256"
        }
      ],
      "name": "tokenByIndex",
      "outputs": [
        {
          "internalType": "uint256",
          "name": "",
          "type": "uint256"
        }
      ],
      "stateMutability": "view",
      "type": "function"
    },
    {
      "inputs": [
        {
          "internalType": "address",
          "name": "owner",
          "type": "address"
        },
        {
          "internalType": "uint256",
          "name": "index",
          "type": "uint256"
        }
      ],
      "name": "tokenOfOwnerByIndex",
      "outputs": [
        {
          "internalType": "uint256",
          "name": "",
          "type": "uint256"
        }
      ],
      "stateMutability": "view",
      "type": "function"
    },
    {
      "inputs": [
        {
          "internalType": "uint256",
          "name": "tokenId",
          "type": "uint256"
        }
      ],
      "name": "tokenURI",
      "outputs": [
        {
          "internalType": "string",
          "name": "",
          "type": "string"
        }
      ],
      "stateMutability": "view",
      "type": "function"
    },
    {
      "inputs": [],
      "name": "totalSupply",
      "outputs": [
        {
          "internalType": "uint256",
          "name": "",
          "type": "uint256"
        }
      ],
      "stateMutability": "view",
      "type": "function"
    },
    {
      "inputs": [
        {
          "internalType": "address",
          "name": "from",
          "type": "address"
        },
        {
          "internalType": "address",
          "name": "to",
          "type": "address"
        },
        {
          "internalType": "uint256",
          "name": "tokenId",
          "type": "uint256"
        }
      ],
      "name": "transferFrom",
      "outputs": [],
      "stateMutability": "nonpayable",
      "type": "function"
    },
    {
      "inputs": [
        {
          "internalType": "address",
          "name": "newOwner",
          "type": "address"
        }
      ],
      "name": "transferOwnership",
      "outputs": [],
      "stateMutability": "nonpayable",
      "type": "function"
    }
  ],
  "bytecode": "0x60806040523480156200001157600080fd5b50336040518060400160405280600781526020016615195cdd13919560ca1b815250604051806040016040528060048152602001631513919560e21b81525081600090816200006191906200085f565b5060016200007082826200085f565b5050506001600160a01b038116620000a357604051631e4fbdf760e01b8152600060048201526024015b60405180910390fd5b620000ae81620000dc565b50620000bc3360016200012e565b620000c93360026200012e565b620000d63360036200012e565b62000979565b600a80546001600160a01b038381166001600160a01b0319831681179093556040519116919082907f8be0079c531659141344cd1fd0a4f28419497f9722a3daafe3b4186f6b6457e090600090a35050565b6001600160a01b0382166200015a57604051633250574960e11b8152600060048201526024016200009a565b6000620001698383836200019d565b90506001600160a01b0381161562000198576040516339e3563760e11b8152600060048201526024016200009a565b505050565b600080620001ad85858562000281565b90506001600160a01b0381166200020d576200020784600880546000838152600960205260408120829055600182018355919091527ff3f7a9fe364faab93b216da50a3214154f22a0a2b415b23a84c8169e8b636ee30155565b62000233565b846001600160a01b0316816001600160a01b031614620002335762000233818562000380565b6001600160a01b03851662000253576200024d8462000404565b62000279565b846001600160a01b0316816001600160a01b0316146200027957620002798585620004be565b949350505050565b6000828152600260205260408120546001600160a01b0390811690831615620002b157620002b181848662000512565b6001600160a01b03811615620002f157620002d060008581806200057c565b6001600160a01b038116600090815260036020526040902080546000190190555b6001600160a01b0385161562000321576001600160a01b0385166000908152600360205260409020805460010190555b60008481526002602052604080822080546001600160a01b0319166001600160a01b0389811691821790925591518793918516917fddf252ad1be2c89b69c2b068fc378daa952ba7f163c4a11628f55a4df523b3ef91a4949350505050565b60006200038d83620006aa565b6000838152600760209081526040808320546001600160a01b0388168452600690925290912091925090818314620003e557600083815260208281526040808320548584528184208190558352600790915290208290555b6000938452600760209081526040808620869055938552525081205550565b60085460009062000418906001906200092b565b600083815260096020526040812054600880549394509092849081106200044357620004436200094d565b9060005260206000200154905080600883815481106200046757620004676200094d565b6000918252602080832090910192909255828152600990915260408082208490558582528120556008805480620004a257620004a262000963565b6001900381819060005260206000200160009055905550505050565b60006001620004cd84620006aa565b620004d991906200092b565b6001600160a01b039093166000908152600660209081526040808320868452825280832085905593825260079052919091209190915550565b6200051f838383620006f4565b62000198576001600160a01b0383166200055057604051637e27328960e01b8152600481018290526024016200009a565b60405163177e802f60e01b81526001600160a01b0383166004820152602481018290526044016200009a565b80806200059157506001600160a01b03821615155b156200067a576000620005a4846200077a565b90506001600160a01b03831615801590620005d15750826001600160a01b0316816001600160a01b031614155b80156200060457506001600160a01b0380821660009081526005602090815260408083209387168352929052205460ff16155b156200062f5760405163a9fbf51f60e01b81526001600160a01b03841660048201526024016200009a565b8115620006785783856001600160a01b0316826001600160a01b03167f8c5be1e5ebec7d5bd14f71427d1e84f3dd0314c0f7b2291e5b200ac8c7c3b92560405160405180910390a45b505b5050600090815260046020526040902080546001600160a01b0319166001600160a01b0392909216919091179055565b60006001600160a01b038216620006d8576040516322718ad960e21b8152600060048201526024016200009a565b506001600160a01b031660009081526003602052604090205490565b60006001600160a01b03831615801590620002795750826001600160a01b0316846001600160a01b031614806200075057506001600160a01b0380851660009081526005602090815260408083209387168352929052205460ff165b80620002795750506000908152600460205260409020546001600160a01b03908116911614919050565b6000818152600260205260408120546001600160a01b031680620007b557604051637e27328960e01b8152600481018490526024016200009a565b92915050565b634e487b7160e01b600052604160045260246000fd5b600181811c90821680620007e657607f821691505b6020821081036200080757634e487b7160e01b600052602260045260246000fd5b50919050565b601f8211156200019857600081815260208120601f850160051c81016020861015620008365750805b601f850160051c820191505b81811015620008575782815560010162000842565b505050505050565b81516001600160401b038111156200087b576200087b620007bb565b62000893816200088c8454620007d1565b846200080d565b602080601f831160018114620008cb5760008415620008b25750858301515b600019600386901b1c1916600185901b17855562000857565b600085815260208120601f198616915b82811015620008fc57888601518255948401946001909101908401620008db565b50858210156200091b5787850151600019600388901b60f8161c191681555b5050505050600190811b01905550565b81810381811115620007b557634e487b7160e01b600052601160045260246000fd5b634e487b7160e01b600052603260045260246000fd5b634e487b7160e01b600052603160045260246000fd5b6116db80620009896000396000f3fe608060405234801561001057600080fd5b50600436106101375760003560e01c80636352211e116100b8578063a22cb4651161007c578063a22cb46514610271578063b88d4fde14610284578063c7cc557d14610297578063c87b56dd146102aa578063e985e9c5146102bd578063f2fde38b146102d057600080fd5b80636352211e1461022a57806370a082311461023d578063715018a6146102505780638da5cb5b1461025857806395d89b411461026957600080fd5b806323b872dd116100ff57806323b872dd146101cb5780632f745c59146101de57806340d097c3146101f157806342842e0e146102045780634f6ccce71461021757600080fd5b806301ffc9a71461013c57806306fdde0314610164578063081812fc14610179578063095ea7b3146101a457806318160ddd146101b9575b600080fd5b61014f61014a36600461120f565b6102e3565b60405190151581526020015b60405180910390f35b61016c61030e565b60405161015b919061127c565b61018c61018736600461128f565b6103a0565b6040516001600160a01b03909116815260200161015b565b6101b76101b23660046112c4565b6103c9565b005b6008545b60405190815260200161015b565b6101b76101d93660046112ee565b6103d8565b6101bd6101ec3660046112c4565b610468565b6101b76101ff36600461132a565b6104cd565b6101b76102123660046112ee565b6104f7565b6101bd61022536600461128f565b610517565b61018c61023836600461128f565b610570565b6101bd61024b36600461132a565b61057b565b6101b76105c3565b600a546001600160a01b031661018c565b61016c6105d7565b6101b761027f366004611345565b6105e6565b6101b76102923660046113c8565b6105f1565b6101b76102a5366004611488565b610609565b61016c6102b836600461128f565b61071a565b61014f6102cb36600461152e565b61078f565b6101b76102de36600461132a565b6107bf565b60006001600160e01b0319821663780e9d6360e01b14806103085750610308826107fd565b92915050565b60606000805461031d90611561565b80601f016020809104026020016040519081016040528092919081815260200182805461034990611561565b80156103965780601f1061036b57610100808354040283529160200191610396565b820191906000526020600020905b81548152906001019060200180831161037957829003601f168201915b5050505050905090565b60006103ab8261084d565b506000828152600460205260409020546001600160a01b0316610308565b6103d4828233610886565b5050565b6001600160a01b03821661040757604051633250574960e11b8152600060048201526024015b60405180910390fd5b6000610414838333610893565b9050836001600160a01b0316816001600160a01b031614610462576040516364283d7b60e01b81526001600160a01b03808616600483015260248201849052821660448201526064016103fe565b50505050565b60006104738361057b565b82106104a45760405163295f44f760e21b81526001600160a01b0384166004820152602481018390526044016103fe565b506001600160a01b03919091166000908152600660209081526040808320938352929052205490565b6104d5610968565b60006104e060085490565b6104eb9060016115b1565b90506103d48282610995565b610512838383604051806020016040528060008152506105f1565b505050565b600061052260085490565b821061054b5760405163295f44f760e21b815260006004820152602481018390526044016103fe565b6008828154811061055e5761055e6115c4565b90600052602060002001549050919050565b60006103088261084d565b60006001600160a01b0382166105a7576040516322718ad960e21b8152600060048201526024016103fe565b506001600160a01b031660009081526003602052604090205490565b6105cb610968565b6105d560006109af565b565b60606001805461031d90611561565b6103d4338383610a01565b6105fc8484846103d8565b6104623385858585610aa0565b610611610968565b60005b81518110156103d457336001600160a01b031661064983838151811061063c5761063c6115c4565b6020026020010151610570565b6001600160a01b0316146106945760405162461bcd60e51b81526020600482015260126024820152712737ba1037bbb732b91037b3103a37b5b2b760711b60448201526064016103fe565b6106b860008383815181106106ab576106ab6115c4565b60200260200101516103c9565b336001600160a01b03168282815181106106d4576106d46115c4565b60200260200101517f430c786ad6c97d1739e88415e23257a88a0a989b6bdc4e9e415b72bb53d869a860405160405180910390a380610712816115da565b915050610614565b60606107258261084d565b50600061073d60408051602081019091526000815290565b9050600081511161075d5760405180602001604052806000815250610788565b8061076784610bcb565b6040516020016107789291906115f3565b6040516020818303038152906040525b9392505050565b6001600160a01b03808316600090815260056020908152604080832093851683529290529081205460ff16610788565b6107c7610968565b6001600160a01b0381166107f157604051631e4fbdf760e01b8152600060048201526024016103fe565b6107fa816109af565b50565b60006001600160e01b031982166380ac58cd60e01b148061082e57506001600160e01b03198216635b5e139f60e01b145b8061030857506301ffc9a760e01b6001600160e01b0319831614610308565b6000818152600260205260408120546001600160a01b03168061030857604051637e27328960e01b8152600481018490526024016103fe565b6105128383836001610c5e565b6000806108a1858585610d64565b90506001600160a01b0381166108fe576108f984600880546000838152600960205260408120829055600182018355919091527ff3f7a9fe364faab93b216da50a3214154f22a0a2b415b23a84c8169e8b636ee30155565b610921565b846001600160a01b0316816001600160a01b031614610921576109218185610e5d565b6001600160a01b03851661093d5761093884610ede565b610960565b846001600160a01b0316816001600160a01b031614610960576109608585610f8d565b949350505050565b600a546001600160a01b031633146105d55760405163118cdaa760e01b81523360048201526024016103fe565b6103d4828260405180602001604052806000815250610fdd565b600a80546001600160a01b038381166001600160a01b0319831681179093556040519116919082907f8be0079c531659141344cd1fd0a4f28419497f9722a3daafe3b4186f6b6457e090600090a35050565b6001600160a01b038216610a3357604051630b61174360e31b81526001600160a01b03831660048201526024016103fe565b6001600160a01b03838116600081815260056020908152604080832094871680845294825291829020805460ff191686151590811790915591519182527f17307eab39ab6107e8899845ad3d59bd9653f200f220920489ca2b5937696c31910160405180910390a3505050565b6001600160a01b0383163b15610bc457604051630a85bd0160e11b81526001600160a01b0384169063150b7a0290610ae2908890889087908790600401611622565b6020604051808303816000875af1925050508015610b1d575060408051601f3d908101601f19168201909252610b1a9181019061165f565b60015b610b86573d808015610b4b576040519150601f19603f3d011682016040523d82523d6000602084013e610b50565b606091505b508051600003610b7e57604051633250574960e11b81526001600160a01b03851660048201526024016103fe565b805181602001fd5b6001600160e01b03198116630a85bd0160e11b14610bc257604051633250574960e11b81526001600160a01b03851660048201526024016103fe565b505b5050505050565b60606000610bd883610ff5565b600101905060008167ffffffffffffffff811115610bf857610bf8611381565b6040519080825280601f01601f191660200182016040528015610c22576020820181803683370190505b5090508181016020015b600019016f181899199a1a9b1b9c1cb0b131b232b360811b600a86061a8153600a8504945084610c2c57509392505050565b8080610c7257506001600160a01b03821615155b15610d34576000610c828461084d565b90506001600160a01b03831615801590610cae5750826001600160a01b0316816001600160a01b031614155b8015610cc15750610cbf818461078f565b155b15610cea5760405163a9fbf51f60e01b81526001600160a01b03841660048201526024016103fe565b8115610d325783856001600160a01b0316826001600160a01b03167f8c5be1e5ebec7d5bd14f71427d1e84f3dd0314c0f7b2291e5b200ac8c7c3b92560405160405180910390a45b505b5050600090815260046020526040902080546001600160a01b0319166001600160a01b0392909216919091179055565b6000828152600260205260408120546001600160a01b0390811690831615610d9157610d918184866110cd565b6001600160a01b03811615610dcf57610dae600085600080610c5e565b6001600160a01b038116600090815260036020526040902080546000190190555b6001600160a01b03851615610dfe576001600160a01b0385166000908152600360205260409020805460010190555b60008481526002602052604080822080546001600160a01b0319166001600160a01b0389811691821790925591518793918516917fddf252ad1be2c89b69c2b068fc378daa952ba7f163c4a11628f55a4df523b3ef91a4949350505050565b6000610e688361057b565b6000838152600760209081526040808320546001600160a01b0388168452600690925290912091925090818314610ebf57600083815260208281526040808320548584528184208190558352600790915290208290555b6000938452600760209081526040808620869055938552525081205550565b600854600090610ef09060019061167c565b60008381526009602052604081205460088054939450909284908110610f1857610f186115c4565b906000526020600020015490508060088381548110610f3957610f396115c4565b6000918252602080832090910192909255828152600990915260408082208490558582528120556008805480610f7157610f7161168f565b6001900381819060005260206000200160009055905550505050565b60006001610f9a8461057b565b610fa4919061167c565b6001600160a01b039093166000908152600660209081526040808320868452825280832085905593825260079052919091209190915550565b610fe78383611131565b610512336000858585610aa0565b60008072184f03e93ff9f4daa797ed6e38ed64bf6a1f0160401b83106110345772184f03e93ff9f4daa797ed6e38ed64bf6a1f0160401b830492506040015b6d04ee2d6d415b85acef81000000008310611060576d04ee2d6d415b85acef8100000000830492506020015b662386f26fc10000831061107e57662386f26fc10000830492506010015b6305f5e1008310611096576305f5e100830492506008015b61271083106110aa57612710830492506004015b606483106110bc576064830492506002015b600a83106103085760010192915050565b6110d8838383611196565b610512576001600160a01b03831661110657604051637e27328960e01b8152600481018290526024016103fe565b60405163177e802f60e01b81526001600160a01b0383166004820152602481018290526044016103fe565b6001600160a01b03821661115b57604051633250574960e11b8152600060048201526024016103fe565b600061116983836000610893565b90506001600160a01b03811615610512576040516339e3563760e11b8152600060048201526024016103fe565b60006001600160a01b038316158015906109605750826001600160a01b0316846001600160a01b031614806111d057506111d0848461078f565b806109605750506000908152600460205260409020546001600160a01b03908116911614919050565b6001600160e01b0319811681146107fa57600080fd5b60006020828403121561122157600080fd5b8135610788816111f9565b60005b8381101561124757818101518382015260200161122f565b50506000910152565b6000815180845261126881602086016020860161122c565b601f01601f19169290920160200192915050565b6020815260006107886020830184611250565b6000602082840312156112a157600080fd5b5035919050565b80356001600160a01b03811681146112bf57600080fd5b919050565b600080604083850312156112d757600080fd5b6112e0836112a8565b946020939093013593505050565b60008060006060848603121561130357600080fd5b61130c846112a8565b925061131a602085016112a8565b9150604084013590509250925092565b60006020828403121561133c57600080fd5b610788826112a8565b6000806040838503121561135857600080fd5b611361836112a8565b91506020830135801515811461137657600080fd5b809150509250929050565b634e487b7160e01b600052604160045260246000fd5b604051601f8201601f1916810167ffffffffffffffff811182821017156113c0576113c0611381565b604052919050565b600080600080608085870312156113de57600080fd5b6113e7856112a8565b935060206113f68187016112a8565b935060408601359250606086013567ffffffffffffffff8082111561141a57600080fd5b818801915088601f83011261142e57600080fd5b81358181111561144057611440611381565b611452601f8201601f19168501611397565b9150808252898482850101111561146857600080fd5b808484018584013760008482840101525080935050505092959194509250565b6000602080838503121561149b57600080fd5b823567ffffffffffffffff808211156114b357600080fd5b818501915085601f8301126114c757600080fd5b8135818111156114d9576114d9611381565b8060051b91506114ea848301611397565b818152918301840191848101908884111561150457600080fd5b938501935b8385101561152257843582529385019390850190611509565b98975050505050505050565b6000806040838503121561154157600080fd5b61154a836112a8565b9150611558602084016112a8565b90509250929050565b600181811c9082168061157557607f821691505b60208210810361159557634e487b7160e01b600052602260045260246000fd5b50919050565b634e487b7160e01b600052601160045260246000fd5b808201808211156103085761030861159b565b634e487b7160e01b600052603260045260246000fd5b6000600182016115ec576115ec61159b565b5060010190565b6000835161160581846020880161122c565b83519083019061161981836020880161122c565b01949350505050565b6001600160a01b038581168252841660208201526040810183905260806060820181905260009061165590830184611250565b9695505050505050565b60006020828403121561167157600080fd5b8151610788816111f9565b818103818111156103085761030861159b565b634e487b7160e01b600052603160045260246000fdfea2646970667358221220c387e4c0a34bb7f188cfffb89c109c067fde3aaf29d56e5403e5de75c9779bb664736f6c63430008140033",
  "linkReferences": {},
  "deployedLinkReferences": {}
}