{
  "_format": "hh-sol-artifact-1",
  "contractName": "TestERC1155",
  "sourceName": "contracts/TestERC1155.sol",
  "abi": [
    {
      "inputs": [
        {
          "internalType": "address",
          "name": "initialOwner",
          "type": "address"
        }
      ],
      "stateMutability": "nonpayable",
      "type": "constructor"
    },
    {
      "inputs": [
        {
          "internalType": "address",
          "name": "sender",
          "type": "address"
        },
        {
          "internalType": "uint256",
          "name": "balance",
          "type": "uint256"
        },
        {
          "internalType": "uint256",
          "name": "needed",
          "type": "uint256"
        },
        {
          "internalType": "uint256",
          "name": "tokenId",
          "type": "uint256"
        }
      ],
      "name": "ERC1155InsufficientBalance",
      "type": "error"
    },
    {
      "inputs": [
        {
          "internalType": "address",
          "name": "approver",
          "type": "address"
        }
      ],
      "name": "ERC1155InvalidApprover",
      "type": "error"
    },
    {
      "inputs": [
        {
          "internalType": "uint256",
          "name": "idsLength",
          "type": "uint256"
        },
        {
          "internalType": "uint256",
          "name": "valuesLength",
          "type": "uint256"
        }
      ],
      "name": "ERC1155InvalidArrayLength",
      "type": "error"
    },
    {
      "inputs": [
        {
          "internalType": "address",
          "name": "operator",
          "type": "address"
        }
      ],
      "name": "ERC1155InvalidOperator",
      "type": "error"
    },
    {
      "inputs": [
        {
          "internalType": "address",
          "name": "receiver",
          "type": "address"
        }
      ],
      "name": "ERC1155InvalidReceiver",
      "type": "error"
    },
    {
      "inputs": [
        {
          "internalType": "address",
          "name": "sender",
          "type": "address"
        }
      ],
      "name": "ERC1155InvalidSender",
      "type": "error"
    },
    {
      "inputs": [
        {
          "internalType": "address",
          "name": "operator",
          "type": "address"
        },
        {
          "internalType": "address",
          "name": "owner",
          "type": "address"
        }
      ],
      "name": "ERC1155MissingApprovalForAll",
      "type": "error"
    },
    {
      "inputs": [
        {
          "internalType": "address",
          "name": "owner",
          "type": "address"
        }
      ],
      "name": "OwnableInvalidOwner",
      "type": "error"
    },
    {
      "inputs": [
        {
          "internalType": "address",
          "name": "account",
          "type": "address"
        }
      ],
      "name": "OwnableUnauthorizedAccount",
      "type": "error"
    },
    {
      "anonymous": false,
      "inputs": [
        {
          "indexed": true,
          "internalType": "address",
          "name": "account",
          "type": "address"
        },
        {
          "indexed": true,
          "internalType": "address",
          "name": "operator",
          "type": "address"
        },
        {
          "indexed": false,
          "internalType": "bool",
          "name": "approved",
          "type": "bool"
        }
      ],
      "name": "ApprovalForAll",
      "type": "event"
    },
    {
      "anonymous": false,
      "inputs": [
        {
          "indexed": true,
          "internalType": "address",
          "name": "previousOwner",
          "type": "address"
        },
        {
          "indexed": true,
          "internalType": "address",
          "name": "newOwner",
          "type": "address"
        }
      ],
      "name": "OwnershipTransferred",
      "type": "event"
    },
    {
      "anonymous": false,
      "inputs": [
        {
          "indexed": true,
          "internalType": "address",
          "name": "operator",
          "type": "address"
        },
        {
          "indexed": true,
          "internalType": "address",
          "name": "from",
          "type": "address"
        },
        {
          "indexed": true,
          "internalType": "address",
          "name": "to",
          "type": "address"
        },
        {
          "indexed": false,
          "internalType": "uint256[]",
          "name": "ids",
          "type": "uint256[]"
        },
        {
          "indexed": false,
          "internalType": "uint256[]",
          "name": "values",
          "type": "uint256[]"
        }
      ],
      "name": "TransferBatch",
      "type": "event"
    },
    {
      "anonymous": false,
      "inputs": [
        {
          "indexed": true,
          "internalType": "address",
          "name": "operator",
          "type": "address"
        },
        {
          "indexed": true,
          "internalType": "address",
          "name": "from",
          "type": "address"
        },
        {
          "indexed": true,
          "internalType": "address",
          "name": "to",
          "type": "address"
        },
        {
          "indexed": false,
          "internalType": "uint256",
          "name": "id",
          "type": "uint256"
        },
        {
          "indexed": false,
          "internalType": "uint256",
          "name": "value",
          "type": "uint256"
        }
      ],
      "name": "TransferSingle",
      "type": "event"
    },
    {
      "anonymous": false,
      "inputs": [
        {
          "indexed": false,
          "internalType": "string",
          "name": "value",
          "type": "string"
        },
        {
          "indexed": true,
          "internalType": "uint256",
          "name": "id",
          "type": "uint256"
        }
      ],
      "name": "URI",
      "type": "event"
    },
    {
      "inputs": [
        {
          "internalType": "address",
          "name": "account",
          "type": "address"
        },
        {
          "internalType": "uint256",
          "name": "id",
          "type": "uint256"
        }
      ],
      "name": "balanceOf",
      "outputs": [
        {
          "internalType": "uint256",
          "name": "",
          "type": "uint256"
        }
      ],
      "stateMutability": "view",
      "type": "function"
    },
    {
      "inputs": [
        {
          "internalType": "address[]",
          "name": "accounts",
          "type": "address[]"
        },
        {
          "internalType": "uint256[]",
          "name": "ids",
          "type": "uint256[]"
        }
      ],
      "name": "balanceOfBatch",
      "outputs": [
        {
          "internalType": "uint256[]",
          "name": "",
          "type": "uint256[]"
        }
      ],
      "stateMutability": "view",
      "type": "function"
    },
    {
      "inputs": [
        {
          "internalType": "address",
          "name": "account",
          "type": "address"
        },
        {
          "internalType": "address",
          "name": "operator",
          "type": "address"
        }
      ],
      "name": "isApprovedForAll",
      "outputs": [
        {
          "internalType": "bool",
          "name": "",
          "type": "bool"
        }
      ],
      "stateMutability": "view",
      "type": "function"
    },
    {
      "inputs": [
        {
          "internalType": "address",
          "name": "to",
          "type": "address"
        },
        {
          "internalType": "uint256",
          "name": "id",
          "type": "uint256"
        },
        {
          "internalType": "uint256",
          "name": "amount",
          "type": "uint256"
        }
      ],
      "name": "mint",
      "outputs": [],
      "stateMutability": "nonpayable",
      "type": "function"
    },
    {
      "inputs": [],
      "name": "owner",
      "outputs": [
        {
          "internalType": "address",
          "name": "",
          "type": "address"
        }
      ],
      "stateMutability": "view",
      "type": "function"
    },
    {
      "inputs": [],
      "name": "renounceOwnership",
      "outputs": [],
      "stateMutability": "nonpayable",
      "type": "function"
    },
    {
      "inputs": [
        {
          "internalType": "address",
          "name": "from",
          "type": "address"
        },
        {
          "internalType": "address",
          "name": "to",
          "type": "address"
        },
        {
          "internalType": "uint256[]",
          "name": "ids",
          "type": "uint256[]"
        },
        {
          "internalType": "uint256[]",
          "name": "values",
          "type": "uint256[]"
        },
        {
          "internalType": "bytes",
          "name": "data",
          "type": "bytes"
        }
      ],
      "name": "safeBatchTransferFrom",
      "outputs": [],
      "stateMutability": "nonpayable",
      "type": "function"
    },
    {
      "inputs": [
        {
          "internalType": "address",
          "name": "from",
          "type": "address"
        },
        {
          "internalType": "address",
          "name": "to",
          "type": "address"
        },
        {
          "internalType": "uint256",
          "name": "id",
          "type": "uint256"
        },
        {
          "internalType": "uint256",
          "name": "value",
          "type": "uint256"
        },
        {
          "internalType": "bytes",
          "name": "data",
          "type": "bytes"
        }
      ],
      "name": "safeTransferFrom",
      "outputs": [],
      "stateMutability": "nonpayable",
      "type": "function"
    },
    {
      "inputs": [
        {
          "internalType": "address",
          "name": "operator",
          "type": "address"
        },
        {
          "internalType": "bool",
          "name": "approved",
          "type": "bool"
        }
      ],
      "name": "setApprovalForAll",
      "outputs": [],
      "stateMutability": "nonpayable",
      "type": "function"
    },
    {
      "inputs": [
        {
          "internalType": "bytes4",
          "name": "interfaceId",
          "type": "bytes4"
        }
      ],
      "name": "supportsInterface",
      "outputs": [
        {
          "internalType": "bool",
          "name": "",
          "type": "bool"
        }
      ],
      "stateMutability": "view",
      "type": "function"
    },
    {
      "inputs": [
        {
          "internalType": "address",
          "name": "newOwner",
          "type": "address"
        }
      ],
      "name": "transferOwnership",
      "outputs": [],
      "stateMutability": "nonpayable",
      "type": "function"
    },
    {
      "inputs": [
        {
          "internalType": "uint256",
          "name": "",
          "type": "uint256"
        }
      ],
      "name": "uri",
      "outputs": [
        {
          "internalType": "string",
          "name": "",
          "type": "string"
        }
      ],
      "stateMutability": "view",
      "type": "function"
    }
  ],
  "bytecode": "0x60806040523480156200001157600080fd5b5060405162001d1038038062001d10833981016040819052620000349162000674565b806040518060600160405280602a815260200162001ce6602a91396200005a81620000e8565b506001600160a01b0381166200008b57604051631e4fbdf760e01b8152600060048201526024015b60405180910390fd5b6200009681620000fa565b50620000bc8160016064604051806020016040528060008152506200014c60201b60201c565b620000e18160026032604051806020016040528060008152506200014c60201b60201c565b50620009ef565b6002620000f6828262000747565b5050565b600380546001600160a01b038381166001600160a01b0319831681179093556040519116919082907f8be0079c531659141344cd1fd0a4f28419497f9722a3daafe3b4186f6b6457e090600090a35050565b6001600160a01b0384166200017857604051632bfa23e760e11b81526000600482015260240162000082565b60408051600180825260208201869052818301908152606082018590526080820190925290620001ad600087848487620001b5565b505050505050565b620001c38585858562000218565b6001600160a01b03841615620002115782513390600103620002015760208481015190840151620001f983898985858962000446565b5050620001ad565b620001ad81878787878762000580565b5050505050565b8051825114620002495781518151604051635b05999160e01b81526004810192909252602482015260440162000082565b3360005b835181101562000362576020818102858101820151908501909101516001600160a01b0388161562000304576000828152602081815260408083206001600160a01b038c16845290915290205481811015620002dd576040516303dee4c560e01b81526001600160a01b038a16600482015260248101829052604481018390526064810184905260840162000082565b6000838152602081815260408083206001600160a01b038d16845290915290209082900390555b6001600160a01b038716156200034c576000828152602081815260408083206001600160a01b038b168452909152812080548392906200034690849062000829565b90915550505b5050806200035a9062000845565b90506200024d565b508251600103620003e65760208301516000906020840151909150856001600160a01b0316876001600160a01b0316846001600160a01b03167fc3d58168c5ae7397731d063d5bbf3d657854427343f4c083240f7aacaa2d0f628585604051620003d6929190918252602082015260400190565b60405180910390a4505062000211565b836001600160a01b0316856001600160a01b0316826001600160a01b03167f4a39dc06d4c0dbc64b70af90fd698a233a518aa5d07e595d983b8c0526c8f7fb8686604051620004379291906200089e565b60405180910390a45050505050565b6001600160a01b0384163b15620001ad5760405163f23a6e6160e01b81526001600160a01b0385169063f23a6e61906200048d908990899088908890889060040162000918565b6020604051808303816000875af1925050508015620004cb575060408051601f3d908101601f19168201909252620004c8918101906200095f565b60015b62000539573d808015620004fc576040519150601f19603f3d011682016040523d82523d6000602084013e62000501565b606091505b5080516000036200053157604051632bfa23e760e11b81526001600160a01b038616600482015260240162000082565b805181602001fd5b6001600160e01b0319811663f23a6e6160e01b146200057757604051632bfa23e760e11b81526001600160a01b038616600482015260240162000082565b50505050505050565b6001600160a01b0384163b15620001ad5760405163bc197c8160e01b81526001600160a01b0385169063bc197c8190620005c790899089908890889088906004016200098b565b6020604051808303816000875af192505050801562000605575060408051601f3d908101601f1916820190925262000602918101906200095f565b60015b62000636573d808015620004fc576040519150601f19603f3d011682016040523d82523d6000602084013e62000501565b6001600160e01b0319811663bc197c8160e01b146200057757604051632bfa23e760e11b81526001600160a01b038616600482015260240162000082565b6000602082840312156200068757600080fd5b81516001600160a01b03811681146200069f57600080fd5b9392505050565b634e487b7160e01b600052604160045260246000fd5b600181811c90821680620006d157607f821691505b602082108103620006f257634e487b7160e01b600052602260045260246000fd5b50919050565b601f8211156200074257600081815260208120601f850160051c81016020861015620007215750805b601f850160051c820191505b81811015620001ad578281556001016200072d565b505050565b81516001600160401b03811115620007635762000763620006a6565b6200077b81620007748454620006bc565b84620006f8565b602080601f831160018114620007b357600084156200079a5750858301515b600019600386901b1c1916600185901b178555620001ad565b600085815260208120601f198616915b82811015620007e457888601518255948401946001909101908401620007c3565b5085821015620008035787850151600019600388901b60f8161c191681555b5050505050600190811b01905550565b634e487b7160e01b600052601160045260246000fd5b808201808211156200083f576200083f62000813565b92915050565b6000600182016200085a576200085a62000813565b5060010190565b600081518084526020808501945080840160005b83811015620008935781518752958201959082019060010162000875565b509495945050505050565b604081526000620008b3604083018562000861565b8281036020840152620008c7818562000861565b95945050505050565b6000815180845260005b81811015620008f857602081850181015186830182015201620008da565b506000602082860101526020601f19601f83011685010191505092915050565b6001600160a01b03868116825285166020820152604081018490526060810183905260a0608082018190526000906200095490830184620008d0565b979650505050505050565b6000602082840312156200097257600080fd5b81516001600160e01b0319811681146200069f57600080fd5b6001600160a01b0386811682528516602082015260a060408201819052600090620009b99083018662000861565b8281036060840152620009cd818662000861565b90508281036080840152620009e38185620008d0565b98975050505050505050565b6112e780620009ff6000396000f3fe608060405234801561001057600080fd5b50600436106100b35760003560e01c8063715018a611610071578063715018a6146101695780638da5cb5b14610171578063a22cb4651461018c578063e985e9c51461019f578063f242432a146101b2578063f2fde38b146101c557600080fd5b8062fdd58e146100b857806301ffc9a7146100de5780630e89341c14610101578063156e29f6146101215780632eb2c2d6146101365780634e1273f414610149575b600080fd5b6100cb6100c6366004610c3b565b6101d8565b6040519081526020015b60405180910390f35b6100f16100ec366004610c7b565b610200565b60405190151581526020016100d5565b61011461010f366004610c9f565b610250565b6040516100d59190610cfe565b61013461012f366004610d11565b6102e4565b005b610134610144366004610e8a565b61030c565b61015c610157366004610f34565b610378565b6040516100d5919061102f565b61013461044d565b6003546040516001600160a01b0390911681526020016100d5565b61013461019a366004611042565b610461565b6100f16101ad36600461107e565b610470565b6101346101c03660046110b1565b61049e565b6101346101d3366004611116565b6104fd565b6000818152602081815260408083206001600160a01b03861684529091529020545b92915050565b60006001600160e01b03198216636cdb3d1360e11b148061023157506001600160e01b031982166303a24d0760e21b145b806101fa57506301ffc9a760e01b6001600160e01b03198316146101fa565b60606002805461025f90611131565b80601f016020809104026020016040519081016040528092919081815260200182805461028b90611131565b80156102d85780601f106102ad576101008083540402835291602001916102d8565b820191906000526020600020905b8154815290600101906020018083116102bb57829003601f168201915b50505050509050919050565b6102ec61053b565b61030783838360405180602001604052806000815250610568565b505050565b336001600160a01b038616811480159061032d575061032b8682610470565b155b156103635760405163711bec9160e11b81526001600160a01b038083166004830152871660248201526044015b60405180910390fd5b61037086868686866105c5565b505050505050565b606081518351146103a95781518351604051635b05999160e01b81526004810192909252602482015260440161035a565b6000835167ffffffffffffffff8111156103c5576103c5610d44565b6040519080825280602002602001820160405280156103ee578160200160208202803683370190505b50905060005b845181101561044557602080820286010151610418906020808402870101516101d8565b82828151811061042a5761042a61116b565b602090810291909101015261043e81611197565b90506103f4565b509392505050565b61045561053b565b61045f600061062c565b565b61046c33838361067e565b5050565b6001600160a01b03918216600090815260016020908152604080832093909416825291909152205460ff1690565b336001600160a01b03861681148015906104bf57506104bd8682610470565b155b156104f05760405163711bec9160e11b81526001600160a01b0380831660048301528716602482015260440161035a565b6103708686868686610714565b61050561053b565b6001600160a01b03811661052f57604051631e4fbdf760e01b81526000600482015260240161035a565b6105388161062c565b50565b6003546001600160a01b0316331461045f5760405163118cdaa760e01b815233600482015260240161035a565b6001600160a01b03841661059257604051632bfa23e760e11b81526000600482015260240161035a565b604080516001808252602082018690528183019081526060820185905260808201909252906103706000878484876107a2565b6001600160a01b0384166105ef57604051632bfa23e760e11b81526000600482015260240161035a565b6001600160a01b03851661061857604051626a0d4560e21b81526000600482015260240161035a565b61062585858585856107a2565b5050505050565b600380546001600160a01b038381166001600160a01b0319831681179093556040519116919082907f8be0079c531659141344cd1fd0a4f28419497f9722a3daafe3b4186f6b6457e090600090a35050565b6001600160a01b0382166106a75760405162ced3e160e81b81526000600482015260240161035a565b6001600160a01b03838116600081815260016020908152604080832094871680845294825291829020805460ff191686151590811790915591519182527f17307eab39ab6107e8899845ad3d59bd9653f200f220920489ca2b5937696c31910160405180910390a3505050565b6001600160a01b03841661073e57604051632bfa23e760e11b81526000600482015260240161035a565b6001600160a01b03851661076757604051626a0d4560e21b81526000600482015260240161035a565b6040805160018082526020820186905281830190815260608201859052608082019092529061079987878484876107a2565b50505050505050565b6107ae858585856107f5565b6001600160a01b0384161561062557825133906001036107e757602084810151908401516107e0838989858589610a12565b5050610370565b610370818787878787610b36565b80518251146108245781518151604051635b05999160e01b81526004810192909252602482015260440161035a565b3360005b8351811015610933576020818102858101820151908501909101516001600160a01b038816156108db576000828152602081815260408083206001600160a01b038c168452909152902054818110156108b4576040516303dee4c560e01b81526001600160a01b038a16600482015260248101829052604481018390526064810184905260840161035a565b6000838152602081815260408083206001600160a01b038d16845290915290209082900390555b6001600160a01b03871615610920576000828152602081815260408083206001600160a01b038b1684529091528120805483929061091a9084906111b0565b90915550505b50508061092c90611197565b9050610828565b5082516001036109b45760208301516000906020840151909150856001600160a01b0316876001600160a01b0316846001600160a01b03167fc3d58168c5ae7397731d063d5bbf3d657854427343f4c083240f7aacaa2d0f6285856040516109a5929190918252602082015260400190565b60405180910390a45050610625565b836001600160a01b0316856001600160a01b0316826001600160a01b03167f4a39dc06d4c0dbc64b70af90fd698a233a518aa5d07e595d983b8c0526c8f7fb8686604051610a039291906111c3565b60405180910390a45050505050565b6001600160a01b0384163b156103705760405163f23a6e6160e01b81526001600160a01b0385169063f23a6e6190610a5690899089908890889088906004016111f1565b6020604051808303816000875af1925050508015610a91575060408051601f3d908101601f19168201909252610a8e91810190611236565b60015b610afa573d808015610abf576040519150601f19603f3d011682016040523d82523d6000602084013e610ac4565b606091505b508051600003610af257604051632bfa23e760e11b81526001600160a01b038616600482015260240161035a565b805181602001fd5b6001600160e01b0319811663f23a6e6160e01b1461079957604051632bfa23e760e11b81526001600160a01b038616600482015260240161035a565b6001600160a01b0384163b156103705760405163bc197c8160e01b81526001600160a01b0385169063bc197c8190610b7a9089908990889088908890600401611253565b6020604051808303816000875af1925050508015610bb5575060408051601f3d908101601f19168201909252610bb291810190611236565b60015b610be3573d808015610abf576040519150601f19603f3d011682016040523d82523d6000602084013e610ac4565b6001600160e01b0319811663bc197c8160e01b1461079957604051632bfa23e760e11b81526001600160a01b038616600482015260240161035a565b80356001600160a01b0381168114610c3657600080fd5b919050565b60008060408385031215610c4e57600080fd5b610c5783610c1f565b946020939093013593505050565b6001600160e01b03198116811461053857600080fd5b600060208284031215610c8d57600080fd5b8135610c9881610c65565b9392505050565b600060208284031215610cb157600080fd5b5035919050565b6000815180845260005b81811015610cde57602081850181015186830182015201610cc2565b506000602082860101526020601f19601f83011685010191505092915050565b602081526000610c986020830184610cb8565b600080600060608486031215610d2657600080fd5b610d2f84610c1f565b95602085013595506040909401359392505050565b634e487b7160e01b600052604160045260246000fd5b604051601f8201601f1916810167ffffffffffffffff81118282101715610d8357610d83610d44565b604052919050565b600067ffffffffffffffff821115610da557610da5610d44565b5060051b60200190565b600082601f830112610dc057600080fd5b81356020610dd5610dd083610d8b565b610d5a565b82815260059290921b84018101918181019086841115610df457600080fd5b8286015b84811015610e0f5780358352918301918301610df8565b509695505050505050565b600082601f830112610e2b57600080fd5b813567ffffffffffffffff811115610e4557610e45610d44565b610e58601f8201601f1916602001610d5a565b818152846020838601011115610e6d57600080fd5b816020850160208301376000918101602001919091529392505050565b600080600080600060a08688031215610ea257600080fd5b610eab86610c1f565b9450610eb960208701610c1f565b9350604086013567ffffffffffffffff80821115610ed657600080fd5b610ee289838a01610daf565b94506060880135915080821115610ef857600080fd5b610f0489838a01610daf565b93506080880135915080821115610f1a57600080fd5b50610f2788828901610e1a565b9150509295509295909350565b60008060408385031215610f4757600080fd5b823567ffffffffffffffff80821115610f5f57600080fd5b818501915085601f830112610f7357600080fd5b81356020610f83610dd083610d8b565b82815260059290921b84018101918181019089841115610fa257600080fd5b948201945b83861015610fc757610fb886610c1f565b82529482019490820190610fa7565b96505086013592505080821115610fdd57600080fd5b50610fea85828601610daf565b9150509250929050565b600081518084526020808501945080840160005b8381101561102457815187529582019590820190600101611008565b509495945050505050565b602081526000610c986020830184610ff4565b6000806040838503121561105557600080fd5b61105e83610c1f565b91506020830135801515811461107357600080fd5b809150509250929050565b6000806040838503121561109157600080fd5b61109a83610c1f565b91506110a860208401610c1f565b90509250929050565b600080600080600060a086880312156110c957600080fd5b6110d286610c1f565b94506110e060208701610c1f565b93506040860135925060608601359150608086013567ffffffffffffffff81111561110a57600080fd5b610f2788828901610e1a565b60006020828403121561112857600080fd5b610c9882610c1f565b600181811c9082168061114557607f821691505b60208210810361116557634e487b7160e01b600052602260045260246000fd5b50919050565b634e487b7160e01b600052603260045260246000fd5b634e487b7160e01b600052601160045260246000fd5b6000600182016111a9576111a9611181565b5060010190565b808201808211156101fa576101fa611181565b6040815260006111d66040830185610ff4565b82810360208401526111e88185610ff4565b95945050505050565b6001600160a01b03868116825285166020820152604081018490526060810183905260a06080820181905260009061122b90830184610cb8565b979650505050505050565b60006020828403121561124857600080fd5b8151610c9881610c65565b6001600160a01b0386811682528516602082015260a06040820181905260009061127f90830186610ff4565b82810360608401526112918186610ff4565b905082810360808401526112a58185610cb8565b9897505050505050505056fea2646970667358221220adefdb5328ab4eae338f1b229c36aa71847f6055358ccc04bcfb4e4d38241ef264736f6c6343000814003368747470733a2f2f6170692e6578616d706c652e636f6d2f6d657461646174612f7b69647d2e6a736f6e",
  "linkReferences": {},
  "deployedLinkReferences": {}
}