{
  "_format": "hh-sol-artifact-1",
  "contractName": "UpgradeableNFT",
  "sourceName": "contracts/UpgradeableNFT.sol",
  "abi": [
    {
      "inputs": [],
      "stateMutability": "nonpayable",
      "type": "constructor"
    },
    {
      "inputs": [
        {
          "internalType": "address",
          "name": "sender",
          "type": "address"
        },
        {
          "internalType": "uint256",
          "name": "tokenId",
          "type": "uint256"
        },
        {
          "internalType": "address",
          "name": "owner",
          "type": "address"
        }
      ],
      "name": "ERC721IncorrectOwner",
      "type": "error"
    },
    {
      "inputs": [
        {
          "internalType": "address",
          "name": "operator",
          "type": "address"
        },
        {
          "internalType": "uint256",
          "name": "tokenId",
          "type": "uint256"
        }
      ],
      "name": "ERC721InsufficientApproval",
      "type": "error"
    },
    {
      "inputs": [
        {
          "internalType": "address",
          "name": "approver",
          "type": "address"
        }
      ],
      "name": "ERC721InvalidApprover",
      "type": "error"
    },
    {
      "inputs": [
        {
          "internalType": "address",
          "name": "operator",
          "type": "address"
        }
      ],
      "name": "ERC721InvalidOperator",
      "type": "error"
    },
    {
      "inputs": [
        {
          "internalType": "address",
          "name": "owner",
          "type": "address"
        }
      ],
      "name": "ERC721InvalidOwner",
      "type": "error"
    },
    {
      "inputs": [
        {
          "internalType": "address",
          "name": "receiver",
          "type": "address"
        }
      ],
      "name": "ERC721InvalidReceiver",
      "type": "error"
    },
    {
      "inputs": [
        {
          "internalType": "address",
          "name": "sender",
          "type": "address"
        }
      ],
      "name": "ERC721InvalidSender",
      "type": "error"
    },
    {
      "inputs": [
        {
          "internalType": "uint256",
          "name": "tokenId",
          "type": "uint256"
        }
      ],
      "name": "ERC721NonexistentToken",
      "type": "error"
    },
    {
      "inputs": [],
      "name": "InvalidInitialization",
      "type": "error"
    },
    {
      "inputs": [],
      "name": "NotInitializing",
      "type": "error"
    },
    {
      "anonymous": false,
      "inputs": [
        {
          "indexed": true,
          "internalType": "address",
          "name": "owner",
          "type": "address"
        },
        {
          "indexed": true,
          "internalType": "address",
          "name": "approved",
          "type": "address"
        },
        {
          "indexed": true,
          "internalType": "uint256",
          "name": "tokenId",
          "type": "uint256"
        }
      ],
      "name": "Approval",
      "type": "event"
    },
    {
      "anonymous": false,
      "inputs": [
        {
          "indexed": true,
          "internalType": "address",
          "name": "owner",
          "type": "address"
        },
        {
          "indexed": true,
          "internalType": "address",
          "name": "operator",
          "type": "address"
        },
        {
          "indexed": false,
          "internalType": "bool",
          "name": "approved",
          "type": "bool"
        }
      ],
      "name": "ApprovalForAll",
      "type": "event"
    },
    {
      "anonymous": false,
      "inputs": [
        {
          "indexed": false,
          "internalType": "uint256",
          "name": "_fromTokenId",
          "type": "uint256"
        },
        {
          "indexed": false,
          "internalType": "uint256",
          "name": "_toTokenId",
          "type": "uint256"
        }
      ],
      "name": "BatchMetadataUpdate",
      "type": "event"
    },
    {
      "anonymous": false,
      "inputs": [
        {
          "indexed": false,
          "internalType": "uint64",
          "name": "version",
          "type": "uint64"
        }
      ],
      "name": "Initialized",
      "type": "event"
    },
    {
      "anonymous": false,
      "inputs": [
        {
          "indexed": false,
          "internalType": "uint256",
          "name": "_tokenId",
          "type": "uint256"
        }
      ],
      "name": "MetadataUpdate",
      "type": "event"
    },
    {
      "anonymous": false,
      "inputs": [
        {
          "indexed": true,
          "internalType": "address",
          "name": "from",
          "type": "address"
        },
        {
          "indexed": true,
          "internalType": "address",
          "name": "to",
          "type": "address"
        },
        {
          "indexed": true,
          "internalType": "uint256",
          "name": "tokenId",
          "type": "uint256"
        }
      ],
      "name": "Transfer",
      "type": "event"
    },
    {
      "inputs": [
        {
          "internalType": "address",
          "name": "to",
          "type": "address"
        },
        {
          "internalType": "uint256",
          "name": "tokenId",
          "type": "uint256"
        }
      ],
      "name": "approve",
      "outputs": [],
      "stateMutability": "nonpayable",
      "type": "function"
    },
    {
      "inputs": [
        {
          "internalType": "address",
          "name": "owner",
          "type": "address"
        }
      ],
      "name": "balanceOf",
      "outputs": [
        {
          "internalType": "uint256",
          "name": "",
          "type": "uint256"
        }
      ],
      "stateMutability": "view",
      "type": "function"
    },
    {
      "inputs": [
        {
          "internalType": "uint256",
          "name": "tokenId",
          "type": "uint256"
        }
      ],
      "name": "getApproved",
      "outputs": [
        {
          "internalType": "address",
          "name": "",
          "type": "address"
        }
      ],
      "stateMutability": "view",
      "type": "function"
    },
    {
      "inputs": [
        {
          "internalType": "address",
          "name": "owner",
          "type": "address"
        },
        {
          "internalType": "address",
          "name": "operator",
          "type": "address"
        }
      ],
      "name": "isApprovedForAll",
      "outputs": [
        {
          "internalType": "bool",
          "name": "",
          "type": "bool"
        }
      ],
      "stateMutability": "view",
      "type": "function"
    },
    {
      "inputs": [
        {
          "internalType": "address",
          "name": "to",
          "type": "address"
        },
        {
          "internalType": "uint256",
          "name": "tokenId",
          "type": "uint256"
        },
        {
          "internalType": "string",
          "name": "uri",
          "type": "string"
        }
      ],
      "name": "mint",
      "outputs": [],
      "stateMutability": "nonpayable",
      "type": "function"
    },
    {
      "inputs": [],
      "name": "name",
      "outputs": [
        {
          "internalType": "string",
          "name": "",
          "type": "string"
        }
      ],
      "stateMutability": "view",
      "type": "function"
    },
    {
      "inputs": [
        {
          "internalType": "uint256",
          "name": "tokenId",
          "type": "uint256"
        }
      ],
      "name": "ownerOf",
      "outputs": [
        {
          "internalType": "address",
          "name": "",
          "type": "address"
        }
      ],
      "stateMutability": "view",
      "type": "function"
    },
    {
      "inputs": [
        {
          "internalType": "address",
          "name": "from",
          "type": "address"
        },
        {
          "internalType": "address",
          "name": "to",
          "type": "address"
        },
        {
          "internalType": "uint256",
          "name": "tokenId",
          "type": "uint256"
        }
      ],
      "name": "safeTransferFrom",
      "outputs": [],
      "stateMutability": "nonpayable",
      "type": "function"
    },
    {
      "inputs": [
        {
          "internalType": "address",
          "name": "from",
          "type": "address"
        },
        {
          "internalType": "address",
          "name": "to",
          "type": "address"
        },
        {
          "internalType": "uint256",
          "name": "tokenId",
          "type": "uint256"
        },
        {
          "internalType": "bytes",
          "name": "data",
          "type": "bytes"
        }
      ],
      "name": "safeTransferFrom",
      "outputs": [],
      "stateMutability": "nonpayable",
      "type": "function"
    },
    {
      "inputs": [
        {
          "internalType": "address",
          "name": "operator",
          "type": "address"
        },
        {
          "internalType": "bool",
          "name": "approved",
          "type": "bool"
        }
      ],
      "name": "setApprovalForAll",
      "outputs": [],
      "stateMutability": "nonpayable",
      "type": "function"
    },
    {
      "inputs": [
        {
          "internalType": "bytes4",
          "name": "interfaceId",
          "type": "bytes4"
        }
      ],
      "name": "supportsInterface",
      "outputs": [
        {
          "internalType": "bool",
          "name": "",
          "type": "bool"
        }
      ],
      "stateMutability": "view",
      "type": "function"
    },
    {
      "inputs": [],
      "name": "symbol",
      "outputs": [
        {
          "internalType": "string",
          "name": "",
          "type": "string"
        }
      ],
      "stateMutability": "view",
      "type": "function"
    },
    {
      "inputs": [
        {
          "internalType": "uint256",
          "name": "tokenId",
          "type": "uint256"
        }
      ],
      "name": "tokenURI",
      "outputs": [
        {
          "internalType": "string",
          "name": "",
          "type": "string"
        }
      ],
      "stateMutability": "view",
      "type": "function"
    },
    {
      "inputs": [
        {
          "internalType": "address",
          "name": "from",
          "type": "address"
        },
        {
          "internalType": "address",
          "name": "to",
          "type": "address"
        },
        {
          "internalType": "uint256",
          "name": "tokenId",
          "type": "uint256"
        }
      ],
      "name": "transferFrom",
      "outputs": [],
      "stateMutability": "nonpayable",
      "type": "function"
    }
  ],
  "bytecode": "0x60806040523480156200001157600080fd5b506040518060400160405280600e81526020016d155c19dc98591958589b1953919560921b815250604051806040016040528060048152602001631553919560e21b815250816000908162000067919062000124565b50600162000076828262000124565b505050620001f0565b634e487b7160e01b600052604160045260246000fd5b600181811c90821680620000aa57607f821691505b602082108103620000cb57634e487b7160e01b600052602260045260246000fd5b50919050565b601f8211156200011f57600081815260208120601f850160051c81016020861015620000fa5750805b601f850160051c820191505b818110156200011b5782815560010162000106565b5050505b505050565b81516001600160401b038111156200014057620001406200007f565b620001588162000151845462000095565b84620000d1565b602080601f831160018114620001905760008415620001775750858301515b600019600386901b1c1916600185901b1785556200011b565b600085815260208120601f198616915b82811015620001c157888601518255948401946001909101908401620001a0565b5085821015620001e05787850151600019600388901b60f8161c191681555b5050505050600190811b01905550565b61129580620002006000396000f3fe608060405234801561001057600080fd5b50600436106100ea5760003560e01c806370a082311161008c578063b88d4fde11610066578063b88d4fde146101e1578063c87b56dd146101f4578063d3fc986414610207578063e985e9c51461021a57600080fd5b806370a08231146101a557806395d89b41146101c6578063a22cb465146101ce57600080fd5b8063095ea7b3116100c8578063095ea7b31461015757806323b872dd1461016c57806342842e0e1461017f5780636352211e1461019257600080fd5b806301ffc9a7146100ef57806306fdde0314610117578063081812fc1461012c575b600080fd5b6101026100fd366004610d7e565b61022d565b60405190151581526020015b60405180910390f35b61011f610258565b60405161010e9190610deb565b61013f61013a366004610dfe565b6102ea565b6040516001600160a01b03909116815260200161010e565b61016a610165366004610e33565b610313565b005b61016a61017a366004610e5d565b610322565b61016a61018d366004610e5d565b6103b2565b61013f6101a0366004610dfe565b6103d2565b6101b86101b3366004610e99565b6103dd565b60405190815260200161010e565b61011f610425565b61016a6101dc366004610eb4565b610434565b61016a6101ef366004610f7c565b61043f565b61011f610202366004610dfe565b610457565b61016a610215366004610ff8565b610568565b610102610228366004611063565b61057c565b60006001600160e01b03198216632483248360e11b14806102525750610252826105aa565b92915050565b60606000805461026790611096565b80601f016020809104026020016040519081016040528092919081815260200182805461029390611096565b80156102e05780601f106102b5576101008083540402835291602001916102e0565b820191906000526020600020905b8154815290600101906020018083116102c357829003601f168201915b5050505050905090565b60006102f5826105fa565b506000828152600460205260409020546001600160a01b0316610252565b61031e828233610633565b5050565b6001600160a01b03821661035157604051633250574960e11b8152600060048201526024015b60405180910390fd5b600061035e838333610640565b9050836001600160a01b0316816001600160a01b0316146103ac576040516364283d7b60e01b81526001600160a01b0380861660048301526024820184905282166044820152606401610348565b50505050565b6103cd8383836040518060200160405280600081525061043f565b505050565b6000610252826105fa565b60006001600160a01b038216610409576040516322718ad960e21b815260006004820152602401610348565b506001600160a01b031660009081526003602052604090205490565b60606001805461026790611096565b61031e338383610739565b61044a848484610322565b6103ac33858585856107d8565b6060610462826105fa565b506000828152600660205260408120805461047c90611096565b80601f01602080910402602001604051908101604052809291908181526020018280546104a890611096565b80156104f55780601f106104ca576101008083540402835291602001916104f5565b820191906000526020600020905b8154815290600101906020018083116104d857829003601f168201915b50505050509050600061051360408051602081019091526000815290565b90508051600003610525575092915050565b81511561055757808260405160200161053f9291906110d0565b60405160208183030381529060405292505050919050565b61056084610903565b949350505050565b6105728383610978565b6103cd82826109dd565b6001600160a01b03918216600090815260056020908152604080832093909416825291909152205460ff1690565b60006001600160e01b031982166380ac58cd60e01b14806105db57506001600160e01b03198216635b5e139f60e01b145b8061025257506301ffc9a760e01b6001600160e01b0319831614610252565b6000818152600260205260408120546001600160a01b03168061025257604051637e27328960e01b815260048101849052602401610348565b6103cd8383836001610a2d565b6000828152600260205260408120546001600160a01b039081169083161561066d5761066d818486610b33565b6001600160a01b038116156106ab5761068a600085600080610a2d565b6001600160a01b038116600090815260036020526040902080546000190190555b6001600160a01b038516156106da576001600160a01b0385166000908152600360205260409020805460010190555b60008481526002602052604080822080546001600160a01b0319166001600160a01b0389811691821790925591518793918516917fddf252ad1be2c89b69c2b068fc378daa952ba7f163c4a11628f55a4df523b3ef91a4949350505050565b6001600160a01b03821661076b57604051630b61174360e31b81526001600160a01b0383166004820152602401610348565b6001600160a01b03838116600081815260056020908152604080832094871680845294825291829020805460ff191686151590811790915591519182527f17307eab39ab6107e8899845ad3d59bd9653f200f220920489ca2b5937696c31910160405180910390a3505050565b6001600160a01b0383163b156108fc57604051630a85bd0160e11b81526001600160a01b0384169063150b7a029061081a9088908890879087906004016110ff565b6020604051808303816000875af1925050508015610855575060408051601f3d908101601f191682019092526108529181019061113c565b60015b6108be573d808015610883576040519150601f19603f3d011682016040523d82523d6000602084013e610888565b606091505b5080516000036108b657604051633250574960e11b81526001600160a01b0385166004820152602401610348565b805181602001fd5b6001600160e01b03198116630a85bd0160e11b146108fa57604051633250574960e11b81526001600160a01b0385166004820152602401610348565b505b5050505050565b606061090e826105fa565b50600061092660408051602081019091526000815290565b905060008151116109465760405180602001604052806000815250610971565b8061095084610b97565b6040516020016109619291906110d0565b6040516020818303038152906040525b9392505050565b6001600160a01b0382166109a257604051633250574960e11b815260006004820152602401610348565b60006109b083836000610640565b90506001600160a01b038116156103cd576040516339e3563760e11b815260006004820152602401610348565b60008281526006602052604090206109f5828261119f565b506040518281527ff8e1a15aba9398e019f0b49df1a4fde98ee17ae345cb5f6b5e2c27f5033e8ce79060200160405180910390a15050565b8080610a4157506001600160a01b03821615155b15610b03576000610a51846105fa565b90506001600160a01b03831615801590610a7d5750826001600160a01b0316816001600160a01b031614155b8015610a905750610a8e818461057c565b155b15610ab95760405163a9fbf51f60e01b81526001600160a01b0384166004820152602401610348565b8115610b015783856001600160a01b0316826001600160a01b03167f8c5be1e5ebec7d5bd14f71427d1e84f3dd0314c0f7b2291e5b200ac8c7c3b92560405160405180910390a45b505b5050600090815260046020526040902080546001600160a01b0319166001600160a01b0392909216919091179055565b610b3e838383610c2a565b6103cd576001600160a01b038316610b6c57604051637e27328960e01b815260048101829052602401610348565b60405163177e802f60e01b81526001600160a01b038316600482015260248101829052604401610348565b60606000610ba483610c8d565b600101905060008167ffffffffffffffff811115610bc457610bc4610ef0565b6040519080825280601f01601f191660200182016040528015610bee576020820181803683370190505b5090508181016020015b600019016f181899199a1a9b1b9c1cb0b131b232b360811b600a86061a8153600a8504945084610bf857509392505050565b60006001600160a01b038316158015906105605750826001600160a01b0316846001600160a01b03161480610c645750610c64848461057c565b806105605750506000908152600460205260409020546001600160a01b03908116911614919050565b60008072184f03e93ff9f4daa797ed6e38ed64bf6a1f0160401b8310610ccc5772184f03e93ff9f4daa797ed6e38ed64bf6a1f0160401b830492506040015b6d04ee2d6d415b85acef81000000008310610cf8576d04ee2d6d415b85acef8100000000830492506020015b662386f26fc100008310610d1657662386f26fc10000830492506010015b6305f5e1008310610d2e576305f5e100830492506008015b6127108310610d4257612710830492506004015b60648310610d54576064830492506002015b600a83106102525760010192915050565b6001600160e01b031981168114610d7b57600080fd5b50565b600060208284031215610d9057600080fd5b813561097181610d65565b60005b83811015610db6578181015183820152602001610d9e565b50506000910152565b60008151808452610dd7816020860160208601610d9b565b601f01601f19169290920160200192915050565b6020815260006109716020830184610dbf565b600060208284031215610e1057600080fd5b5035919050565b80356001600160a01b0381168114610e2e57600080fd5b919050565b60008060408385031215610e4657600080fd5b610e4f83610e17565b946020939093013593505050565b600080600060608486031215610e7257600080fd5b610e7b84610e17565b9250610e8960208501610e17565b9150604084013590509250925092565b600060208284031215610eab57600080fd5b61097182610e17565b60008060408385031215610ec757600080fd5b610ed083610e17565b915060208301358015158114610ee557600080fd5b809150509250929050565b634e487b7160e01b600052604160045260246000fd5b600067ffffffffffffffff80841115610f2157610f21610ef0565b604051601f8501601f19908116603f01168101908282118183101715610f4957610f49610ef0565b81604052809350858152868686011115610f6257600080fd5b858560208301376000602087830101525050509392505050565b60008060008060808587031215610f9257600080fd5b610f9b85610e17565b9350610fa960208601610e17565b925060408501359150606085013567ffffffffffffffff811115610fcc57600080fd5b8501601f81018713610fdd57600080fd5b610fec87823560208401610f06565b91505092959194509250565b60008060006060848603121561100d57600080fd5b61101684610e17565b925060208401359150604084013567ffffffffffffffff81111561103957600080fd5b8401601f8101861361104a57600080fd5b61105986823560208401610f06565b9150509250925092565b6000806040838503121561107657600080fd5b61107f83610e17565b915061108d60208401610e17565b90509250929050565b600181811c908216806110aa57607f821691505b6020821081036110ca57634e487b7160e01b600052602260045260246000fd5b50919050565b600083516110e2818460208801610d9b565b8351908301906110f6818360208801610d9b565b01949350505050565b6001600160a01b038581168252841660208201526040810183905260806060820181905260009061113290830184610dbf565b9695505050505050565b60006020828403121561114e57600080fd5b815161097181610d65565b601f8211156103cd57600081815260208120601f850160051c810160208610156111805750805b601f850160051c820191505b818110156108fa5782815560010161118c565b815167ffffffffffffffff8111156111b9576111b9610ef0565b6111cd816111c78454611096565b84611159565b602080601f83116001811461120257600084156111ea5750858301515b600019600386901b1c1916600185901b1785556108fa565b600085815260208120601f198616915b8281101561123157888601518255948401946001909101908401611212565b508582101561124f5787850151600019600388901b60f8161c191681555b5050505050600190811b0190555056fea2646970667358221220cb6d309f50775f0b0dcc676da381123cdc0677e47c857a94c00558547f80d59d64736f6c63430008140033",
  "linkReferences": {},
  "deployedLinkReferences": {}
}