{
  "_format": "hh-sol-artifact-1",
  "contractName": "TestNFT",
  "sourceName": "contracts/TestNFT.sol",
  "abi": [
    {
      "inputs": [],
      "stateMutability": "nonpayable",
      "type": "constructor"
    },
    {
      "inputs": [
        {
          "internalType": "address",
          "name": "sender",
          "type": "address"
        },
        {
          "internalType": "uint256",
          "name": "tokenId",
          "type": "uint256"
        },
        {
          "internalType": "address",
          "name": "owner",
          "type": "address"
        }
      ],
      "name": "ERC721IncorrectOwner",
      "type": "error"
    },
    {
      "inputs": [
        {
          "internalType": "address",
          "name": "operator",
          "type": "address"
        },
        {
          "internalType": "uint256",
          "name": "tokenId",
          "type": "uint256"
        }
      ],
      "name": "ERC721InsufficientApproval",
      "type": "error"
    },
    {
      "inputs": [
        {
          "internalType": "address",
          "name": "approver",
          "type": "address"
        }
      ],
      "name": "ERC721InvalidApprover",
      "type": "error"
    },
    {
      "inputs": [
        {
          "internalType": "address",
          "name": "operator",
          "type": "address"
        }
      ],
      "name": "ERC721InvalidOperator",
      "type": "error"
    },
    {
      "inputs": [
        {
          "internalType": "address",
          "name": "owner",
          "type": "address"
        }
      ],
      "name": "ERC721InvalidOwner",
      "type": "error"
    },
    {
      "inputs": [
        {
          "internalType": "address",
          "name": "receiver",
          "type": "address"
        }
      ],
      "name": "ERC721InvalidReceiver",
      "type": "error"
    },
    {
      "inputs": [
        {
          "internalType": "address",
          "name": "sender",
          "type": "address"
        }
      ],
      "name": "ERC721InvalidSender",
      "type": "error"
    },
    {
      "inputs": [
        {
          "internalType": "uint256",
          "name": "tokenId",
          "type": "uint256"
        }
      ],
      "name": "ERC721NonexistentToken",
      "type": "error"
    },
    {
      "anonymous": false,
      "inputs": [
        {
          "indexed": true,
          "internalType": "address",
          "name": "owner",
          "type": "address"
        },
        {
          "indexed": true,
          "internalType": "address",
          "name": "approved",
          "type": "address"
        },
        {
          "indexed": true,
          "internalType": "uint256",
          "name": "tokenId",
          "type": "uint256"
        }
      ],
      "name": "Approval",
      "type": "event"
    },
    {
      "anonymous": false,
      "inputs": [
        {
          "indexed": true,
          "internalType": "address",
          "name": "owner",
          "type": "address"
        },
        {
          "indexed": true,
          "internalType": "address",
          "name": "operator",
          "type": "address"
        },
        {
          "indexed": false,
          "internalType": "bool",
          "name": "approved",
          "type": "bool"
        }
      ],
      "name": "ApprovalForAll",
      "type": "event"
    },
    {
      "anonymous": false,
      "inputs": [
        {
          "indexed": true,
          "internalType": "address",
          "name": "from",
          "type": "address"
        },
        {
          "indexed": true,
          "internalType": "address",
          "name": "to",
          "type": "address"
        },
        {
          "indexed": true,
          "internalType": "uint256",
          "name": "tokenId",
          "type": "uint256"
        }
      ],
      "name": "Transfer",
      "type": "event"
    },
    {
      "inputs": [
        {
          "internalType": "address",
          "name": "to",
          "type": "address"
        },
        {
          "internalType": "uint256",
          "name": "tokenId",
          "type": "uint256"
        }
      ],
      "name": "approve",
      "outputs": [],
      "stateMutability": "nonpayable",
      "type": "function"
    },
    {
      "inputs": [
        {
          "internalType": "address",
          "name": "owner",
          "type": "address"
        }
      ],
      "name": "balanceOf",
      "outputs": [
        {
          "internalType": "uint256",
          "name": "",
          "type": "uint256"
        }
      ],
      "stateMutability": "view",
      "type": "function"
    },
    {
      "inputs": [
        {
          "internalType": "uint256[]",
          "name": "tokenIds",
          "type": "uint256[]"
        }
      ],
      "name": "batchRevokeApprovals",
      "outputs": [],
      "stateMutability": "nonpayable",
      "type": "function"
    },
    {
      "inputs": [
        {
          "internalType": "uint256",
          "name": "tokenId",
          "type": "uint256"
        }
      ],
      "name": "getApproved",
      "outputs": [
        {
          "internalType": "address",
          "name": "",
          "type": "address"
        }
      ],
      "stateMutability": "view",
      "type": "function"
    },
    {
      "inputs": [
        {
          "internalType": "address",
          "name": "owner",
          "type": "address"
        },
        {
          "internalType": "address",
          "name": "operator",
          "type": "address"
        }
      ],
      "name": "isApprovedForAll",
      "outputs": [
        {
          "internalType": "bool",
          "name": "",
          "type": "bool"
        }
      ],
      "stateMutability": "view",
      "type": "function"
    },
    {
      "inputs": [],
      "name": "name",
      "outputs": [
        {
          "internalType": "string",
          "name": "",
          "type": "string"
        }
      ],
      "stateMutability": "view",
      "type": "function"
    },
    {
      "inputs": [
        {
          "internalType": "uint256",
          "name": "tokenId",
          "type": "uint256"
        }
      ],
      "name": "ownerOf",
      "outputs": [
        {
          "internalType": "address",
          "name": "",
          "type": "address"
        }
      ],
      "stateMutability": "view",
      "type": "function"
    },
    {
      "inputs": [
        {
          "internalType": "address",
          "name": "from",
          "type": "address"
        },
        {
          "internalType": "address",
          "name": "to",
          "type": "address"
        },
        {
          "internalType": "uint256",
          "name": "tokenId",
          "type": "uint256"
        }
      ],
      "name": "safeTransferFrom",
      "outputs": [],
      "stateMutability": "nonpayable",
      "type": "function"
    },
    {
      "inputs": [
        {
          "internalType": "address",
          "name": "from",
          "type": "address"
        },
        {
          "internalType": "address",
          "name": "to",
          "type": "address"
        },
        {
          "internalType": "uint256",
          "name": "tokenId",
          "type": "uint256"
        },
        {
          "internalType": "bytes",
          "name": "data",
          "type": "bytes"
        }
      ],
      "name": "safeTransferFrom",
      "outputs": [],
      "stateMutability": "nonpayable",
      "type": "function"
    },
    {
      "inputs": [
        {
          "internalType": "address",
          "name": "operator",
          "type": "address"
        },
        {
          "internalType": "bool",
          "name": "approved",
          "type": "bool"
        }
      ],
      "name": "setApprovalForAll",
      "outputs": [],
      "stateMutability": "nonpayable",
      "type": "function"
    },
    {
      "inputs": [
        {
          "internalType": "bytes4",
          "name": "interfaceId",
          "type": "bytes4"
        }
      ],
      "name": "supportsInterface",
      "outputs": [
        {
          "internalType": "bool",
          "name": "",
          "type": "bool"
        }
      ],
      "stateMutability": "view",
      "type": "function"
    },
    {
      "inputs": [],
      "name": "symbol",
      "outputs": [
        {
          "internalType": "string",
          "name": "",
          "type": "string"
        }
      ],
      "stateMutability": "view",
      "type": "function"
    },
    {
      "inputs": [
        {
          "internalType": "uint256",
          "name": "tokenId",
          "type": "uint256"
        }
      ],
      "name": "tokenURI",
      "outputs": [
        {
          "internalType": "string",
          "name": "",
          "type": "string"
        }
      ],
      "stateMutability": "view",
      "type": "function"
    },
    {
      "inputs": [
        {
          "internalType": "address",
          "name": "from",
          "type": "address"
        },
        {
          "internalType": "address",
          "name": "to",
          "type": "address"
        },
        {
          "internalType": "uint256",
          "name": "tokenId",
          "type": "uint256"
        }
      ],
      "name": "transferFrom",
      "outputs": [],
      "stateMutability": "nonpayable",
      "type": "function"
    }
  ],
  "bytecode": "0x60806040523480156200001157600080fd5b506040518060400160405280600781526020017f546573744e4654000000000000000000000000000000000000000000000000008152506040518060400160405280600481526020017f544e46540000000000000000000000000000000000000000000000000000000081525081600090816200008f919062000bd9565b508060019081620000a1919062000bd9565b505050620000b7336001620000e360201b60201c565b620000ca336002620000e360201b60201c565b620000dd336003620000e360201b60201c565b62000d7d565b600073ffffffffffffffffffffffffffffffffffffffff168273ffffffffffffffffffffffffffffffffffffffff1603620001585760006040517f64a0ae920000000000000000000000000000000000000000000000000000000081526004016200014f919062000d05565b60405180910390fd5b60006200016e83836000620001ea60201b60201c565b9050600073ffffffffffffffffffffffffffffffffffffffff168173ffffffffffffffffffffffffffffffffffffffff1614620001e55760006040517f73c6ac6e000000000000000000000000000000000000000000000000000000008152600401620001dc919062000d05565b60405180910390fd5b505050565b600080620001fe846200041f60201b60201c565b9050600073ffffffffffffffffffffffffffffffffffffffff168373ffffffffffffffffffffffffffffffffffffffff16146200024957620002488184866200045c60201b60201c565b5b600073ffffffffffffffffffffffffffffffffffffffff168173ffffffffffffffffffffffffffffffffffffffff1614620002e357620002946000856000806200052e60201b60201c565b6001600360008373ffffffffffffffffffffffffffffffffffffffff1673ffffffffffffffffffffffffffffffffffffffff168152602001908152602001600020600082825403925050819055505b600073ffffffffffffffffffffffffffffffffffffffff168573ffffffffffffffffffffffffffffffffffffffff161462000367576001600360008773ffffffffffffffffffffffffffffffffffffffff1673ffffffffffffffffffffffffffffffffffffffff168152602001908152602001600020600082825401925050819055505b846002600086815260200190815260200160002060006101000a81548173ffffffffffffffffffffffffffffffffffffffff021916908373ffffffffffffffffffffffffffffffffffffffff160217905550838573ffffffffffffffffffffffffffffffffffffffff168273ffffffffffffffffffffffffffffffffffffffff167fddf252ad1be2c89b69c2b068fc378daa952ba7f163c4a11628f55a4df523b3ef60405160405180910390a4809150509392505050565b60006002600083815260200190815260200160002060009054906101000a900473ffffffffffffffffffffffffffffffffffffffff169050919050565b6200046f8383836200070b60201b60201c565b6200052957600073ffffffffffffffffffffffffffffffffffffffff168373ffffffffffffffffffffffffffffffffffffffff1603620004e857806040517f7e273289000000000000000000000000000000000000000000000000000000008152600401620004df919062000d33565b60405180910390fd5b81816040517f177e802f0000000000000000000000000000000000000000000000000000000081526004016200052092919062000d50565b60405180910390fd5b505050565b8080620005685750600073ffffffffffffffffffffffffffffffffffffffff168273ffffffffffffffffffffffffffffffffffffffff1614155b15620006b35760006200058184620007df60201b60201c565b9050600073ffffffffffffffffffffffffffffffffffffffff168373ffffffffffffffffffffffffffffffffffffffff1614158015620005ed57508273ffffffffffffffffffffffffffffffffffffffff168173ffffffffffffffffffffffffffffffffffffffff1614155b80156200060957506200060781846200087260201b60201c565b155b156200064e57826040517fa9fbf51f00000000000000000000000000000000000000000000000000000000815260040162000645919062000d05565b60405180910390fd5b8115620006b157838573ffffffffffffffffffffffffffffffffffffffff168273ffffffffffffffffffffffffffffffffffffffff167f8c5be1e5ebec7d5bd14f71427d1e84f3dd0314c0f7b2291e5b200ac8c7c3b92560405160405180910390a45b505b836004600085815260200190815260200160002060006101000a81548173ffffffffffffffffffffffffffffffffffffffff021916908373ffffffffffffffffffffffffffffffffffffffff16021790555050505050565b60008073ffffffffffffffffffffffffffffffffffffffff168373ffffffffffffffffffffffffffffffffffffffff1614158015620007d657508273ffffffffffffffffffffffffffffffffffffffff168473ffffffffffffffffffffffffffffffffffffffff1614806200078e57506200078d84846200087260201b60201c565b5b80620007d557508273ffffffffffffffffffffffffffffffffffffffff16620007bd836200088e60201b60201c565b73ffffffffffffffffffffffffffffffffffffffff16145b5b90509392505050565b600080620007f3836200041f60201b60201c565b9050600073ffffffffffffffffffffffffffffffffffffffff168173ffffffffffffffffffffffffffffffffffffffff16036200086957826040517f7e27328900000000000000000000000000000000000000000000000000000000815260040162000860919062000d33565b60405180910390fd5b80915050919050565b6000620008868383620008cb60201b60201c565b905092915050565b60006004600083815260200190815260200160002060009054906101000a900473ffffffffffffffffffffffffffffffffffffffff169050919050565b6000600560008473ffffffffffffffffffffffffffffffffffffffff1673ffffffffffffffffffffffffffffffffffffffff16815260200190815260200160002060008373ffffffffffffffffffffffffffffffffffffffff1673ffffffffffffffffffffffffffffffffffffffff16815260200190815260200160002060009054906101000a900460ff16905092915050565b600081519050919050565b7f4e487b7100000000000000000000000000000000000000000000000000000000600052604160045260246000fd5b7f4e487b7100000000000000000000000000000000000000000000000000000000600052602260045260246000fd5b60006002820490506001821680620009e157607f821691505b602082108103620009f757620009f662000999565b5b50919050565b60008190508160005260206000209050919050565b60006020601f8301049050919050565b600082821b905092915050565b60006008830262000a617fffffffffffffffffffffffffffffffffffffffffffffffffffffffffffffffff8262000a22565b62000a6d868362000a22565b95508019841693508086168417925050509392505050565b6000819050919050565b6000819050919050565b600062000aba62000ab462000aae8462000a85565b62000a8f565b62000a85565b9050919050565b6000819050919050565b62000ad68362000a99565b62000aee62000ae58262000ac1565b84845462000a2f565b825550505050565b600090565b62000b0562000af6565b62000b1281848462000acb565b505050565b5b8181101562000b3a5762000b2e60008262000afb565b60018101905062000b18565b5050565b601f82111562000b895762000b5381620009fd565b62000b5e8462000a12565b8101602085101562000b6e578190505b62000b8662000b7d8562000a12565b83018262000b17565b50505b505050565b600082821c905092915050565b600062000bae6000198460080262000b8e565b1980831691505092915050565b600062000bc9838362000b9b565b9150826002028217905092915050565b62000be4826200095f565b67ffffffffffffffff81111562000c005762000bff6200096a565b5b62000c0c8254620009c8565b62000c1982828562000b3e565b600060209050601f83116001811462000c51576000841562000c3c578287015190505b62000c48858262000bbb565b86555062000cb8565b601f19841662000c6186620009fd565b60005b8281101562000c8b5784890151825560018201915060208501945060208101905062000c64565b8683101562000cab578489015162000ca7601f89168262000b9b565b8355505b6001600288020188555050505b505050505050565b600073ffffffffffffffffffffffffffffffffffffffff82169050919050565b600062000ced8262000cc0565b9050919050565b62000cff8162000ce0565b82525050565b600060208201905062000d1c600083018462000cf4565b92915050565b62000d2d8162000a85565b82525050565b600060208201905062000d4a600083018462000d22565b92915050565b600060408201905062000d67600083018562000cf4565b62000d76602083018462000d22565b9392505050565b611fc48062000d8d6000396000f3fe608060405234801561001057600080fd5b50600436106100ea5760003560e01c806370a082311161008c578063b88d4fde11610066578063b88d4fde1461025b578063c7cc557d14610277578063c87b56dd14610293578063e985e9c5146102c3576100ea565b806370a08231146101f157806395d89b4114610221578063a22cb4651461023f576100ea565b8063095ea7b3116100c8578063095ea7b31461016d57806323b872dd1461018957806342842e0e146101a55780636352211e146101c1576100ea565b806301ffc9a7146100ef57806306fdde031461011f578063081812fc1461013d575b600080fd5b610109600480360381019061010491906115eb565b6102f3565b6040516101169190611633565b60405180910390f35b6101276103d5565b60405161013491906116de565b60405180910390f35b61015760048036038101906101529190611736565b610467565b60405161016491906117a4565b60405180910390f35b610187600480360381019061018291906117eb565b610483565b005b6101a3600480360381019061019e919061182b565b610499565b005b6101bf60048036038101906101ba919061182b565b61059b565b005b6101db60048036038101906101d69190611736565b6105bb565b6040516101e891906117a4565b60405180910390f35b61020b6004803603810190610206919061187e565b6105cd565b60405161021891906118ba565b60405180910390f35b610229610687565b60405161023691906116de565b60405180910390f35b61025960048036038101906102549190611901565b610719565b005b61027560048036038101906102709190611a76565b61072f565b005b610291600480360381019061028c9190611bc1565b610754565b005b6102ad60048036038101906102a89190611736565b61082c565b6040516102ba91906116de565b60405180910390f35b6102dd60048036038101906102d89190611c0a565b610895565b6040516102ea9190611633565b60405180910390f35b60007f80ac58cd000000000000000000000000000000000000000000000000000000007bffffffffffffffffffffffffffffffffffffffffffffffffffffffff1916827bffffffffffffffffffffffffffffffffffffffffffffffffffffffff191614806103be57507f5b5e139f000000000000000000000000000000000000000000000000000000007bffffffffffffffffffffffffffffffffffffffffffffffffffffffff1916827bffffffffffffffffffffffffffffffffffffffffffffffffffffffff1916145b806103ce57506103cd826108a9565b5b9050919050565b6060600080546103e490611c79565b80601f016020809104026020016040519081016040528092919081815260200182805461041090611c79565b801561045d5780601f106104325761010080835404028352916020019161045d565b820191906000526020600020905b81548152906001019060200180831161044057829003601f168201915b5050505050905090565b600061047282610913565b5061047c8261099b565b9050919050565b61049582826104906109d8565b6109e0565b5050565b600073ffffffffffffffffffffffffffffffffffffffff168273ffffffffffffffffffffffffffffffffffffffff160361050b5760006040517f64a0ae9200000000000000000000000000000000000000000000000000000000815260040161050291906117a4565b60405180910390fd5b600061051f838361051a6109d8565b6109f2565b90508373ffffffffffffffffffffffffffffffffffffffff168173ffffffffffffffffffffffffffffffffffffffff1614610595578382826040517f64283d7b00000000000000000000000000000000000000000000000000000000815260040161058c93929190611caa565b60405180910390fd5b50505050565b6105b68383836040518060200160405280600081525061072f565b505050565b60006105c682610913565b9050919050565b60008073ffffffffffffffffffffffffffffffffffffffff168273ffffffffffffffffffffffffffffffffffffffff16036106405760006040517f89c62b6400000000000000000000000000000000000000000000000000000000815260040161063791906117a4565b60405180910390fd5b600360008373ffffffffffffffffffffffffffffffffffffffff1673ffffffffffffffffffffffffffffffffffffffff168152602001908152602001600020549050919050565b60606001805461069690611c79565b80601f01602080910402602001604051908101604052809291908181526020018280546106c290611c79565b801561070f5780601f106106e45761010080835404028352916020019161070f565b820191906000526020600020905b8154815290600101906020018083116106f257829003601f168201915b5050505050905090565b61072b6107246109d8565b8383610c0c565b5050565b61073a848484610499565b61074e6107456109d8565b85858585610d7b565b50505050565b60005b8151811015610828573373ffffffffffffffffffffffffffffffffffffffff1661079a83838151811061078d5761078c611ce1565b5b60200260200101516105bb565b73ffffffffffffffffffffffffffffffffffffffff16146107f0576040517f08c379a00000000000000000000000000000000000000000000000000000000081526004016107e790611d5c565b60405180910390fd5b610815600083838151811061080857610807611ce1565b5b6020026020010151610483565b808061082090611dab565b915050610757565b5050565b606061083782610913565b506000610842610f2c565b90506000815111610862576040518060200160405280600081525061088d565b8061086c84610f43565b60405160200161087d929190611e2f565b6040516020818303038152906040525b915050919050565b60006108a18383611011565b905092915050565b60007f01ffc9a7000000000000000000000000000000000000000000000000000000007bffffffffffffffffffffffffffffffffffffffffffffffffffffffff1916827bffffffffffffffffffffffffffffffffffffffffffffffffffffffff1916149050919050565b60008061091f836110a5565b9050600073ffffffffffffffffffffffffffffffffffffffff168173ffffffffffffffffffffffffffffffffffffffff160361099257826040517f7e27328900000000000000000000000000000000000000000000000000000000815260040161098991906118ba565b60405180910390fd5b80915050919050565b60006004600083815260200190815260200160002060009054906101000a900473ffffffffffffffffffffffffffffffffffffffff169050919050565b600033905090565b6109ed83838360016110e2565b505050565b6000806109fe846110a5565b9050600073ffffffffffffffffffffffffffffffffffffffff168373ffffffffffffffffffffffffffffffffffffffff1614610a4057610a3f8184866112a7565b5b600073ffffffffffffffffffffffffffffffffffffffff168173ffffffffffffffffffffffffffffffffffffffff1614610ad157610a826000856000806110e2565b6001600360008373ffffffffffffffffffffffffffffffffffffffff1673ffffffffffffffffffffffffffffffffffffffff168152602001908152602001600020600082825403925050819055505b600073ffffffffffffffffffffffffffffffffffffffff168573ffffffffffffffffffffffffffffffffffffffff1614610b54576001600360008773ffffffffffffffffffffffffffffffffffffffff1673ffffffffffffffffffffffffffffffffffffffff168152602001908152602001600020600082825401925050819055505b846002600086815260200190815260200160002060006101000a81548173ffffffffffffffffffffffffffffffffffffffff021916908373ffffffffffffffffffffffffffffffffffffffff160217905550838573ffffffffffffffffffffffffffffffffffffffff168273ffffffffffffffffffffffffffffffffffffffff167fddf252ad1be2c89b69c2b068fc378daa952ba7f163c4a11628f55a4df523b3ef60405160405180910390a4809150509392505050565b600073ffffffffffffffffffffffffffffffffffffffff168273ffffffffffffffffffffffffffffffffffffffff1603610c7d57816040517f5b08ba18000000000000000000000000000000000000000000000000000000008152600401610c7491906117a4565b60405180910390fd5b80600560008573ffffffffffffffffffffffffffffffffffffffff1673ffffffffffffffffffffffffffffffffffffffff16815260200190815260200160002060008473ffffffffffffffffffffffffffffffffffffffff1673ffffffffffffffffffffffffffffffffffffffff16815260200190815260200160002060006101000a81548160ff0219169083151502179055508173ffffffffffffffffffffffffffffffffffffffff168373ffffffffffffffffffffffffffffffffffffffff167f17307eab39ab6107e8899845ad3d59bd9653f200f220920489ca2b5937696c3183604051610d6e9190611633565b60405180910390a3505050565b60008373ffffffffffffffffffffffffffffffffffffffff163b1115610f25578273ffffffffffffffffffffffffffffffffffffffff1663150b7a02868685856040518563ffffffff1660e01b8152600401610dda9493929190611ea8565b6020604051808303816000875af1925050508015610e1657506040513d601f19601f82011682018060405250810190610e139190611f09565b60015b610e9a573d8060008114610e46576040519150601f19603f3d011682016040523d82523d6000602084013e610e4b565b606091505b506000815103610e9257836040517f64a0ae92000000000000000000000000000000000000000000000000000000008152600401610e8991906117a4565b60405180910390fd5b805181602001fd5b63150b7a0260e01b7bffffffffffffffffffffffffffffffffffffffffffffffffffffffff1916817bffffffffffffffffffffffffffffffffffffffffffffffffffffffff191614610f2357836040517f64a0ae92000000000000000000000000000000000000000000000000000000008152600401610f1a91906117a4565b60405180910390fd5b505b5050505050565b606060405180602001604052806000815250905090565b606060006001610f528461136b565b01905060008167ffffffffffffffff811115610f7157610f7061194b565b5b6040519080825280601f01601f191660200182016040528015610fa35781602001600182028036833780820191505090505b509050600082602001820190505b600115611006578080600190039150507f3031323334353637383961626364656600000000000000000000000000000000600a86061a8153600a8581610ffa57610ff9611f36565b5b04945060008503610fb1575b819350505050919050565b6000600560008473ffffffffffffffffffffffffffffffffffffffff1673ffffffffffffffffffffffffffffffffffffffff16815260200190815260200160002060008373ffffffffffffffffffffffffffffffffffffffff1673ffffffffffffffffffffffffffffffffffffffff16815260200190815260200160002060009054906101000a900460ff16905092915050565b60006002600083815260200190815260200160002060009054906101000a900473ffffffffffffffffffffffffffffffffffffffff169050919050565b808061111b5750600073ffffffffffffffffffffffffffffffffffffffff168273ffffffffffffffffffffffffffffffffffffffff1614155b1561124f57600061112b84610913565b9050600073ffffffffffffffffffffffffffffffffffffffff168373ffffffffffffffffffffffffffffffffffffffff161415801561119657508273ffffffffffffffffffffffffffffffffffffffff168173ffffffffffffffffffffffffffffffffffffffff1614155b80156111a957506111a78184610895565b155b156111eb57826040517fa9fbf51f0000000000000000000000000000000000000000000000000000000081526004016111e291906117a4565b60405180910390fd5b811561124d57838573ffffffffffffffffffffffffffffffffffffffff168273ffffffffffffffffffffffffffffffffffffffff167f8c5be1e5ebec7d5bd14f71427d1e84f3dd0314c0f7b2291e5b200ac8c7c3b92560405160405180910390a45b505b836004600085815260200190815260200160002060006101000a81548173ffffffffffffffffffffffffffffffffffffffff021916908373ffffffffffffffffffffffffffffffffffffffff16021790555050505050565b6112b28383836114be565b61136657600073ffffffffffffffffffffffffffffffffffffffff168373ffffffffffffffffffffffffffffffffffffffff160361132757806040517f7e27328900000000000000000000000000000000000000000000000000000000815260040161131e91906118ba565b60405180910390fd5b81816040517f177e802f00000000000000000000000000000000000000000000000000000000815260040161135d929190611f65565b60405180910390fd5b505050565b600080600090507a184f03e93ff9f4daa797ed6e38ed64bf6a1f01000000000000000083106113c9577a184f03e93ff9f4daa797ed6e38ed64bf6a1f01000000000000000083816113bf576113be611f36565b5b0492506040810190505b6d04ee2d6d415b85acef81000000008310611406576d04ee2d6d415b85acef810000000083816113fc576113fb611f36565b5b0492506020810190505b662386f26fc10000831061143557662386f26fc10000838161142b5761142a611f36565b5b0492506010810190505b6305f5e100831061145e576305f5e100838161145457611453611f36565b5b0492506008810190505b612710831061148357612710838161147957611478611f36565b5b0492506004810190505b606483106114a6576064838161149c5761149b611f36565b5b0492506002810190505b600a83106114b5576001810190505b80915050919050565b60008073ffffffffffffffffffffffffffffffffffffffff168373ffffffffffffffffffffffffffffffffffffffff161415801561157657508273ffffffffffffffffffffffffffffffffffffffff168473ffffffffffffffffffffffffffffffffffffffff16148061153757506115368484610895565b5b8061157557508273ffffffffffffffffffffffffffffffffffffffff1661155d8361099b565b73ffffffffffffffffffffffffffffffffffffffff16145b5b90509392505050565b6000604051905090565b600080fd5b600080fd5b60007fffffffff0000000000000000000000000000000000000000000000000000000082169050919050565b6115c881611593565b81146115d357600080fd5b50565b6000813590506115e5816115bf565b92915050565b60006020828403121561160157611600611589565b5b600061160f848285016115d6565b91505092915050565b60008115159050919050565b61162d81611618565b82525050565b60006020820190506116486000830184611624565b92915050565b600081519050919050565b600082825260208201905092915050565b60005b8381101561168857808201518184015260208101905061166d565b60008484015250505050565b6000601f19601f8301169050919050565b60006116b08261164e565b6116ba8185611659565b93506116ca81856020860161166a565b6116d381611694565b840191505092915050565b600060208201905081810360008301526116f881846116a5565b905092915050565b6000819050919050565b61171381611700565b811461171e57600080fd5b50565b6000813590506117308161170a565b92915050565b60006020828403121561174c5761174b611589565b5b600061175a84828501611721565b91505092915050565b600073ffffffffffffffffffffffffffffffffffffffff82169050919050565b600061178e82611763565b9050919050565b61179e81611783565b82525050565b60006020820190506117b96000830184611795565b92915050565b6117c881611783565b81146117d357600080fd5b50565b6000813590506117e5816117bf565b92915050565b6000806040838503121561180257611801611589565b5b6000611810858286016117d6565b925050602061182185828601611721565b9150509250929050565b60008060006060848603121561184457611843611589565b5b6000611852868287016117d6565b9350506020611863868287016117d6565b925050604061187486828701611721565b9150509250925092565b60006020828403121561189457611893611589565b5b60006118a2848285016117d6565b91505092915050565b6118b481611700565b82525050565b60006020820190506118cf60008301846118ab565b92915050565b6118de81611618565b81146118e957600080fd5b50565b6000813590506118fb816118d5565b92915050565b6000806040838503121561191857611917611589565b5b6000611926858286016117d6565b9250506020611937858286016118ec565b9150509250929050565b600080fd5b600080fd5b7f4e487b7100000000000000000000000000000000000000000000000000000000600052604160045260246000fd5b61198382611694565b810181811067ffffffffffffffff821117156119a2576119a161194b565b5b80604052505050565b60006119b561157f565b90506119c1828261197a565b919050565b600067ffffffffffffffff8211156119e1576119e061194b565b5b6119ea82611694565b9050602081019050919050565b82818337600083830152505050565b6000611a19611a14846119c6565b6119ab565b905082815260208101848484011115611a3557611a34611946565b5b611a408482856119f7565b509392505050565b600082601f830112611a5d57611a5c611941565b5b8135611a6d848260208601611a06565b91505092915050565b60008060008060808587031215611a9057611a8f611589565b5b6000611a9e878288016117d6565b9450506020611aaf878288016117d6565b9350506040611ac087828801611721565b925050606085013567ffffffffffffffff811115611ae157611ae061158e565b5b611aed87828801611a48565b91505092959194509250565b600067ffffffffffffffff821115611b1457611b1361194b565b5b602082029050602081019050919050565b600080fd5b6000611b3d611b3884611af9565b6119ab565b90508083825260208201905060208402830185811115611b6057611b5f611b25565b5b835b81811015611b895780611b758882611721565b845260208401935050602081019050611b62565b5050509392505050565b600082601f830112611ba857611ba7611941565b5b8135611bb8848260208601611b2a565b91505092915050565b600060208284031215611bd757611bd6611589565b5b600082013567ffffffffffffffff811115611bf557611bf461158e565b5b611c0184828501611b93565b91505092915050565b60008060408385031215611c2157611c20611589565b5b6000611c2f858286016117d6565b9250506020611c40858286016117d6565b9150509250929050565b7f4e487b7100000000000000000000000000000000000000000000000000000000600052602260045260246000fd5b60006002820490506001821680611c9157607f821691505b602082108103611ca457611ca3611c4a565b5b50919050565b6000606082019050611cbf6000830186611795565b611ccc60208301856118ab565b611cd96040830184611795565b949350505050565b7f4e487b7100000000000000000000000000000000000000000000000000000000600052603260045260246000fd5b7f4e6f74206f776e6572206f6620746f6b656e0000000000000000000000000000600082015250565b6000611d46601283611659565b9150611d5182611d10565b602082019050919050565b60006020820190508181036000830152611d7581611d39565b9050919050565b7f4e487b7100000000000000000000000000000000000000000000000000000000600052601160045260246000fd5b6000611db682611700565b91507fffffffffffffffffffffffffffffffffffffffffffffffffffffffffffffffff8203611de857611de7611d7c565b5b600182019050919050565b600081905092915050565b6000611e098261164e565b611e138185611df3565b9350611e2381856020860161166a565b80840191505092915050565b6000611e3b8285611dfe565b9150611e478284611dfe565b91508190509392505050565b600081519050919050565b600082825260208201905092915050565b6000611e7a82611e53565b611e848185611e5e565b9350611e9481856020860161166a565b611e9d81611694565b840191505092915050565b6000608082019050611ebd6000830187611795565b611eca6020830186611795565b611ed760408301856118ab565b8181036060830152611ee98184611e6f565b905095945050505050565b600081519050611f03816115bf565b92915050565b600060208284031215611f1f57611f1e611589565b5b6000611f2d84828501611ef4565b91505092915050565b7f4e487b7100000000000000000000000000000000000000000000000000000000600052601260045260246000fd5b6000604082019050611f7a6000830185611795565b611f8760208301846118ab565b939250505056fea2646970667358221220f53129e7cdc1dba43fcfc003730462c9cbab8920b14500575fd8210e86d1208d64736f6c63430008140033",
  "linkReferences": {},
  "deployedLinkReferences": {}
}