{
  "_format": "hh-sol-artifact-1",
  "contractName": "TestToken",
  "sourceName": "contracts/TestToken.sol",
  "abi": [
    {
      "inputs": [
        {
          "internalType": "string",
          "name": "name",
          "type": "string"
        },
        {
          "internalType": "string",
          "name": "symbol",
          "type": "string"
        },
        {
          "internalType": "uint8",
          "name": "decimals",
          "type": "uint8"
        }
      ],
      "stateMutability": "nonpayable",
      "type": "constructor"
    },
    {
      "inputs": [
        {
          "internalType": "address",
          "name": "spender",
          "type": "address"
        },
        {
          "internalType": "uint256",
          "name": "allowance",
          "type": "uint256"
        },
        {
          "internalType": "uint256",
          "name": "needed",
          "type": "uint256"
        }
      ],
      "name": "ERC20InsufficientAllowance",
      "type": "error"
    },
    {
      "inputs": [
        {
          "internalType": "address",
          "name": "sender",
          "type": "address"
        },
        {
          "internalType": "uint256",
          "name": "balance",
          "type": "uint256"
        },
        {
          "internalType": "uint256",
          "name": "needed",
          "type": "uint256"
        }
      ],
      "name": "ERC20InsufficientBalance",
      "type": "error"
    },
    {
      "inputs": [
        {
          "internalType": "address",
          "name": "approver",
          "type": "address"
        }
      ],
      "name": "ERC20InvalidApprover",
      "type": "error"
    },
    {
      "inputs": [
        {
          "internalType": "address",
          "name": "receiver",
          "type": "address"
        }
      ],
      "name": "ERC20InvalidReceiver",
      "type": "error"
    },
    {
      "inputs": [
        {
          "internalType": "address",
          "name": "sender",
          "type": "address"
        }
      ],
      "name": "ERC20InvalidSender",
      "type": "error"
    },
    {
      "inputs": [
        {
          "internalType": "address",
          "name": "spender",
          "type": "address"
        }
      ],
      "name": "ERC20InvalidSpender",
      "type": "error"
    },
    {
      "anonymous": false,
      "inputs": [
        {
          "indexed": true,
          "internalType": "address",
          "name": "owner",
          "type": "address"
        },
        {
          "indexed": true,
          "internalType": "address",
          "name": "spender",
          "type": "address"
        },
        {
          "indexed": false,
          "internalType": "uint256",
          "name": "value",
          "type": "uint256"
        }
      ],
      "name": "Approval",
      "type": "event"
    },
    {
      "anonymous": false,
      "inputs": [
        {
          "indexed": true,
          "internalType": "address",
          "name": "from",
          "type": "address"
        },
        {
          "indexed": true,
          "internalType": "address",
          "name": "to",
          "type": "address"
        },
        {
          "indexed": false,
          "internalType": "uint256",
          "name": "value",
          "type": "uint256"
        }
      ],
      "name": "Transfer",
      "type": "event"
    },
    {
      "inputs": [
        {
          "internalType": "address",
          "name": "owner",
          "type": "address"
        },
        {
          "internalType": "address",
          "name": "spender",
          "type": "address"
        }
      ],
      "name": "allowance",
      "outputs": [
        {
          "internalType": "uint256",
          "name": "",
          "type": "uint256"
        }
      ],
      "stateMutability": "view",
      "type": "function"
    },
    {
      "inputs": [
        {
          "internalType": "address",
          "name": "spender",
          "type": "address"
        },
        {
          "internalType": "uint256",
          "name": "amount",
          "type": "uint256"
        }
      ],
      "name": "approve",
      "outputs": [
        {
          "internalType": "bool",
          "name": "",
          "type": "bool"
        }
      ],
      "stateMutability": "nonpayable",
      "type": "function"
    },
    {
      "inputs": [
        {
          "internalType": "address",
          "name": "account",
          "type": "address"
        }
      ],
      "name": "balanceOf",
      "outputs": [
        {
          "internalType": "uint256",
          "name": "",
          "type": "uint256"
        }
      ],
      "stateMutability": "view",
      "type": "function"
    },
    {
      "inputs": [],
      "name": "decimals",
      "outputs": [
        {
          "internalType": "uint8",
          "name": "",
          "type": "uint8"
        }
      ],
      "stateMutability": "view",
      "type": "function"
    },
    {
      "inputs": [
        {
          "internalType": "address",
          "name": "to",
          "type": "address"
        },
        {
          "internalType": "uint256",
          "name": "amount",
          "type": "uint256"
        }
      ],
      "name": "mint",
      "outputs": [],
      "stateMutability": "nonpayable",
      "type": "function"
    },
    {
      "inputs": [],
      "name": "name",
      "outputs": [
        {
          "internalType": "string",
          "name": "",
          "type": "string"
        }
      ],
      "stateMutability": "view",
      "type": "function"
    },
    {
      "inputs": [],
      "name": "owner",
      "outputs": [
        {
          "internalType": "address",
          "name": "",
          "type": "address"
        }
      ],
      "stateMutability": "view",
      "type": "function"
    },
    {
      "inputs": [],
      "name": "symbol",
      "outputs": [
        {
          "internalType": "string",
          "name": "",
          "type": "string"
        }
      ],
      "stateMutability": "view",
      "type": "function"
    },
    {
      "inputs": [],
      "name": "totalSupply",
      "outputs": [
        {
          "internalType": "uint256",
          "name": "",
          "type": "uint256"
        }
      ],
      "stateMutability": "view",
      "type": "function"
    },
    {
      "inputs": [
        {
          "internalType": "address",
          "name": "to",
          "type": "address"
        },
        {
          "internalType": "uint256",
          "name": "value",
          "type": "uint256"
        }
      ],
      "name": "transfer",
      "outputs": [
        {
          "internalType": "bool",
          "name": "",
          "type": "bool"
        }
      ],
      "stateMutability": "nonpayable",
      "type": "function"
    },
    {
      "inputs": [
        {
          "internalType": "address",
          "name": "from",
          "type": "address"
        },
        {
          "internalType": "address",
          "name": "to",
          "type": "address"
        },
        {
          "internalType": "uint256",
          "name": "value",
          "type": "uint256"
        }
      ],
      "name": "transferFrom",
      "outputs": [
        {
          "internalType": "bool",
          "name": "",
          "type": "bool"
        }
      ],
      "stateMutability": "nonpayable",
      "type": "function"
    }
  ],
  "bytecode": "0x60806040523480156200001157600080fd5b5060405162001cb638038062001cb6833981810160405281019062000037919062000567565b828281600390816200004a91906200084c565b5080600490816200005c91906200084c565b50505033600560006101000a81548173ffffffffffffffffffffffffffffffffffffffff021916908373ffffffffffffffffffffffffffffffffffffffff160217905550620000d03382600a620000b4919062000ab6565b620f4240620000c4919062000b07565b620000d960201b60201c565b50505062000c5a565b600073ffffffffffffffffffffffffffffffffffffffff168273ffffffffffffffffffffffffffffffffffffffff16036200014e5760006040517fec442f0500000000000000000000000000000000000000000000000000000000815260040162000145919062000b97565b60405180910390fd5b62000162600083836200016660201b60201c565b5050565b600073ffffffffffffffffffffffffffffffffffffffff168373ffffffffffffffffffffffffffffffffffffffff1603620001bc578060026000828254620001af919062000bb4565b9250508190555062000292565b60008060008573ffffffffffffffffffffffffffffffffffffffff1673ffffffffffffffffffffffffffffffffffffffff168152602001908152602001600020549050818110156200024b578381836040517fe450d38c000000000000000000000000000000000000000000000000000000008152600401620002429392919062000c00565b60405180910390fd5b8181036000808673ffffffffffffffffffffffffffffffffffffffff1673ffffffffffffffffffffffffffffffffffffffff16815260200190815260200160002081905550505b600073ffffffffffffffffffffffffffffffffffffffff168273ffffffffffffffffffffffffffffffffffffffff1603620002dd57806002600082825403925050819055506200032a565b806000808473ffffffffffffffffffffffffffffffffffffffff1673ffffffffffffffffffffffffffffffffffffffff168152602001908152602001600020600082825401925050819055505b8173ffffffffffffffffffffffffffffffffffffffff168373ffffffffffffffffffffffffffffffffffffffff167fddf252ad1be2c89b69c2b068fc378daa952ba7f163c4a11628f55a4df523b3ef8360405162000389919062000c3d565b60405180910390a3505050565b6000604051905090565b600080fd5b600080fd5b600080fd5b600080fd5b6000601f19601f8301169050919050565b7f4e487b7100000000000000000000000000000000000000000000000000000000600052604160045260246000fd5b620003ff82620003b4565b810181811067ffffffffffffffff82111715620004215762000420620003c5565b5b80604052505050565b60006200043662000396565b9050620004448282620003f4565b919050565b600067ffffffffffffffff821115620004675762000466620003c5565b5b6200047282620003b4565b9050602081019050919050565b60005b838110156200049f57808201518184015260208101905062000482565b60008484015250505050565b6000620004c2620004bc8462000449565b6200042a565b905082815260208101848484011115620004e157620004e0620003af565b5b620004ee8482856200047f565b509392505050565b600082601f8301126200050e576200050d620003aa565b5b815162000520848260208601620004ab565b91505092915050565b600060ff82169050919050565b620005418162000529565b81146200054d57600080fd5b50565b600081519050620005618162000536565b92915050565b600080600060608486031215620005835762000582620003a0565b5b600084015167ffffffffffffffff811115620005a457620005a3620003a5565b5b620005b286828701620004f6565b935050602084015167ffffffffffffffff811115620005d657620005d5620003a5565b5b620005e486828701620004f6565b9250506040620005f78682870162000550565b9150509250925092565b600081519050919050565b7f4e487b7100000000000000000000000000000000000000000000000000000000600052602260045260246000fd5b600060028204905060018216806200065457607f821691505b6020821081036200066a57620006696200060c565b5b50919050565b60008190508160005260206000209050919050565b60006020601f8301049050919050565b600082821b905092915050565b600060088302620006d47fffffffffffffffffffffffffffffffffffffffffffffffffffffffffffffffff8262000695565b620006e0868362000695565b95508019841693508086168417925050509392505050565b6000819050919050565b6000819050919050565b60006200072d620007276200072184620006f8565b62000702565b620006f8565b9050919050565b6000819050919050565b62000749836200070c565b62000761620007588262000734565b848454620006a2565b825550505050565b600090565b6200077862000769565b620007858184846200073e565b505050565b5b81811015620007ad57620007a16000826200076e565b6001810190506200078b565b5050565b601f821115620007fc57620007c68162000670565b620007d18462000685565b81016020851015620007e1578190505b620007f9620007f08562000685565b8301826200078a565b50505b505050565b600082821c905092915050565b6000620008216000198460080262000801565b1980831691505092915050565b60006200083c83836200080e565b9150826002028217905092915050565b620008578262000601565b67ffffffffffffffff811115620008735762000872620003c5565b5b6200087f82546200063b565b6200088c828285620007b1565b600060209050601f831160018114620008c45760008415620008af578287015190505b620008bb85826200082e565b8655506200092b565b601f198416620008d48662000670565b60005b82811015620008fe57848901518255600182019150602085019450602081019050620008d7565b868310156200091e57848901516200091a601f8916826200080e565b8355505b6001600288020188555050505b505050505050565b7f4e487b7100000000000000000000000000000000000000000000000000000000600052601160045260246000fd5b60008160011c9050919050565b6000808291508390505b6001851115620009c15780860481111562000999576200099862000933565b5b6001851615620009a95780820291505b8081029050620009b98562000962565b945062000979565b94509492505050565b600082620009dc576001905062000aaf565b81620009ec576000905062000aaf565b816001811462000a05576002811462000a105762000a46565b600191505062000aaf565b60ff84111562000a255762000a2462000933565b5b8360020a91508482111562000a3f5762000a3e62000933565b5b5062000aaf565b5060208310610133831016604e8410600b841016171562000a805782820a90508381111562000a7a5762000a7962000933565b5b62000aaf565b62000a8f84848460016200096f565b9250905081840481111562000aa95762000aa862000933565b5b81810290505b9392505050565b600062000ac382620006f8565b915062000ad08362000529565b925062000aff7fffffffffffffffffffffffffffffffffffffffffffffffffffffffffffffffff8484620009ca565b905092915050565b600062000b1482620006f8565b915062000b2183620006f8565b925082820262000b3181620006f8565b9150828204841483151762000b4b5762000b4a62000933565b5b5092915050565b600073ffffffffffffffffffffffffffffffffffffffff82169050919050565b600062000b7f8262000b52565b9050919050565b62000b918162000b72565b82525050565b600060208201905062000bae600083018462000b86565b92915050565b600062000bc182620006f8565b915062000bce83620006f8565b925082820190508082111562000be95762000be862000933565b5b92915050565b62000bfa81620006f8565b82525050565b600060608201905062000c17600083018662000b86565b62000c26602083018562000bef565b62000c35604083018462000bef565b949350505050565b600060208201905062000c54600083018462000bef565b92915050565b61104c8062000c6a6000396000f3fe608060405234801561001057600080fd5b50600436106100a95760003560e01c806340c10f191161007157806340c10f191461016857806370a08231146101845780638da5cb5b146101b457806395d89b41146101d2578063a9059cbb146101f0578063dd62ed3e14610220576100a9565b806306fdde03146100ae578063095ea7b3146100cc57806318160ddd146100fc57806323b872dd1461011a578063313ce5671461014a575b600080fd5b6100b6610250565b6040516100c39190610c34565b60405180910390f35b6100e660048036038101906100e19190610cef565b6102e2565b6040516100f39190610d4a565b60405180910390f35b6101046102f9565b6040516101119190610d74565b60405180910390f35b610134600480360381019061012f9190610d8f565b610303565b6040516101419190610d4a565b60405180910390f35b610152610332565b60405161015f9190610dfe565b60405180910390f35b610182600480360381019061017d9190610cef565b61033b565b005b61019e60048036038101906101999190610e19565b6103d9565b6040516101ab9190610d74565b60405180910390f35b6101bc610421565b6040516101c99190610e55565b60405180910390f35b6101da610447565b6040516101e79190610c34565b60405180910390f35b61020a60048036038101906102059190610cef565b6104d9565b6040516102179190610d4a565b60405180910390f35b61023a60048036038101906102359190610e70565b6104fc565b6040516102479190610d74565b60405180910390f35b60606003805461025f90610edf565b80601f016020809104026020016040519081016040528092919081815260200182805461028b90610edf565b80156102d85780601f106102ad576101008083540402835291602001916102d8565b820191906000526020600020905b8154815290600101906020018083116102bb57829003601f168201915b5050505050905090565b60006102ef338484610583565b6001905092915050565b6000600254905090565b60008061030e610595565b905061031b85828561059d565b610326858585610632565b60019150509392505050565b60006012905090565b600560009054906101000a900473ffffffffffffffffffffffffffffffffffffffff1673ffffffffffffffffffffffffffffffffffffffff163373ffffffffffffffffffffffffffffffffffffffff16146103cb576040517f08c379a00000000000000000000000000000000000000000000000000000000081526004016103c290610f5c565b60405180910390fd5b6103d58282610726565b5050565b60008060008373ffffffffffffffffffffffffffffffffffffffff1673ffffffffffffffffffffffffffffffffffffffff168152602001908152602001600020549050919050565b600560009054906101000a900473ffffffffffffffffffffffffffffffffffffffff1681565b60606004805461045690610edf565b80601f016020809104026020016040519081016040528092919081815260200182805461048290610edf565b80156104cf5780601f106104a4576101008083540402835291602001916104cf565b820191906000526020600020905b8154815290600101906020018083116104b257829003601f168201915b5050505050905090565b6000806104e4610595565b90506104f1818585610632565b600191505092915050565b6000600160008473ffffffffffffffffffffffffffffffffffffffff1673ffffffffffffffffffffffffffffffffffffffff16815260200190815260200160002060008373ffffffffffffffffffffffffffffffffffffffff1673ffffffffffffffffffffffffffffffffffffffff16815260200190815260200160002054905092915050565b61059083838360016107a8565b505050565b600033905090565b60006105a984846104fc565b90507fffffffffffffffffffffffffffffffffffffffffffffffffffffffffffffffff81101561062c578181101561061c578281836040517ffb8f41b200000000000000000000000000000000000000000000000000000000815260040161061393929190610f7c565b60405180910390fd5b61062b848484840360006107a8565b5b50505050565b600073ffffffffffffffffffffffffffffffffffffffff168373ffffffffffffffffffffffffffffffffffffffff16036106a45760006040517f96c6fd1e00000000000000000000000000000000000000000000000000000000815260040161069b9190610e55565b60405180910390fd5b600073ffffffffffffffffffffffffffffffffffffffff168273ffffffffffffffffffffffffffffffffffffffff16036107165760006040517fec442f0500000000000000000000000000000000000000000000000000000000815260040161070d9190610e55565b60405180910390fd5b61072183838361097f565b505050565b600073ffffffffffffffffffffffffffffffffffffffff168273ffffffffffffffffffffffffffffffffffffffff16036107985760006040517fec442f0500000000000000000000000000000000000000000000000000000000815260040161078f9190610e55565b60405180910390fd5b6107a46000838361097f565b5050565b600073ffffffffffffffffffffffffffffffffffffffff168473ffffffffffffffffffffffffffffffffffffffff160361081a5760006040517fe602df050000000000000000000000000000000000000000000000000000000081526004016108119190610e55565b60405180910390fd5b600073ffffffffffffffffffffffffffffffffffffffff168373ffffffffffffffffffffffffffffffffffffffff160361088c5760006040517f94280d620000000000000000000000000000000000000000000000000000000081526004016108839190610e55565b60405180910390fd5b81600160008673ffffffffffffffffffffffffffffffffffffffff1673ffffffffffffffffffffffffffffffffffffffff16815260200190815260200160002060008573ffffffffffffffffffffffffffffffffffffffff1673ffffffffffffffffffffffffffffffffffffffff168152602001908152602001600020819055508015610979578273ffffffffffffffffffffffffffffffffffffffff168473ffffffffffffffffffffffffffffffffffffffff167f8c5be1e5ebec7d5bd14f71427d1e84f3dd0314c0f7b2291e5b200ac8c7c3b925846040516109709190610d74565b60405180910390a35b50505050565b600073ffffffffffffffffffffffffffffffffffffffff168373ffffffffffffffffffffffffffffffffffffffff16036109d15780600260008282546109c59190610fe2565b92505081905550610aa4565b60008060008573ffffffffffffffffffffffffffffffffffffffff1673ffffffffffffffffffffffffffffffffffffffff16815260200190815260200160002054905081811015610a5d578381836040517fe450d38c000000000000000000000000000000000000000000000000000000008152600401610a5493929190610f7c565b60405180910390fd5b8181036000808673ffffffffffffffffffffffffffffffffffffffff1673ffffffffffffffffffffffffffffffffffffffff16815260200190815260200160002081905550505b600073ffffffffffffffffffffffffffffffffffffffff168273ffffffffffffffffffffffffffffffffffffffff1603610aed5780600260008282540392505081905550610b3a565b806000808473ffffffffffffffffffffffffffffffffffffffff1673ffffffffffffffffffffffffffffffffffffffff168152602001908152602001600020600082825401925050819055505b8173ffffffffffffffffffffffffffffffffffffffff168373ffffffffffffffffffffffffffffffffffffffff167fddf252ad1be2c89b69c2b068fc378daa952ba7f163c4a11628f55a4df523b3ef83604051610b979190610d74565b60405180910390a3505050565b600081519050919050565b600082825260208201905092915050565b60005b83811015610bde578082015181840152602081019050610bc3565b60008484015250505050565b6000601f19601f8301169050919050565b6000610c0682610ba4565b610c108185610baf565b9350610c20818560208601610bc0565b610c2981610bea565b840191505092915050565b60006020820190508181036000830152610c4e8184610bfb565b905092915050565b600080fd5b600073ffffffffffffffffffffffffffffffffffffffff82169050919050565b6000610c8682610c5b565b9050919050565b610c9681610c7b565b8114610ca157600080fd5b50565b600081359050610cb381610c8d565b92915050565b6000819050919050565b610ccc81610cb9565b8114610cd757600080fd5b50565b600081359050610ce981610cc3565b92915050565b60008060408385031215610d0657610d05610c56565b5b6000610d1485828601610ca4565b9250506020610d2585828601610cda565b9150509250929050565b60008115159050919050565b610d4481610d2f565b82525050565b6000602082019050610d5f6000830184610d3b565b92915050565b610d6e81610cb9565b82525050565b6000602082019050610d896000830184610d65565b92915050565b600080600060608486031215610da857610da7610c56565b5b6000610db686828701610ca4565b9350506020610dc786828701610ca4565b9250506040610dd886828701610cda565b9150509250925092565b600060ff82169050919050565b610df881610de2565b82525050565b6000602082019050610e136000830184610def565b92915050565b600060208284031215610e2f57610e2e610c56565b5b6000610e3d84828501610ca4565b91505092915050565b610e4f81610c7b565b82525050565b6000602082019050610e6a6000830184610e46565b92915050565b60008060408385031215610e8757610e86610c56565b5b6000610e9585828601610ca4565b9250506020610ea685828601610ca4565b9150509250929050565b7f4e487b7100000000000000000000000000000000000000000000000000000000600052602260045260246000fd5b60006002820490506001821680610ef757607f821691505b602082108103610f0a57610f09610eb0565b5b50919050565b7f4e6f7420617574686f72697a6564000000000000000000000000000000000000600082015250565b6000610f46600e83610baf565b9150610f5182610f10565b602082019050919050565b60006020820190508181036000830152610f7581610f39565b9050919050565b6000606082019050610f916000830186610e46565b610f9e6020830185610d65565b610fab6040830184610d65565b949350505050565b7f4e487b7100000000000000000000000000000000000000000000000000000000600052601160045260246000fd5b6000610fed82610cb9565b9150610ff883610cb9565b92508282019050808211156110105761100f610fb3565b5b9291505056fea2646970667358221220447dbeb8ef11beae49afca7088bed1800a82fd8652f426d53b3b0de0bacf876764736f6c63430008140033",
  "linkReferences": {},
  "deployedLinkReferences": {}
}