{
  "_format": "hh-sol-artifact-1",
  "contractName": "TestERC1155",
  "sourceName": "contracts/TestERC1155.sol",
  "abi": [
    {
      "inputs": [
        {
          "internalType": "address",
          "name": "initialOwner",
          "type": "address"
        }
      ],
      "stateMutability": "nonpayable",
      "type": "constructor"
    },
    {
      "inputs": [
        {
          "internalType": "address",
          "name": "sender",
          "type": "address"
        },
        {
          "internalType": "uint256",
          "name": "balance",
          "type": "uint256"
        },
        {
          "internalType": "uint256",
          "name": "needed",
          "type": "uint256"
        },
        {
          "internalType": "uint256",
          "name": "tokenId",
          "type": "uint256"
        }
      ],
      "name": "ERC1155InsufficientBalance",
      "type": "error"
    },
    {
      "inputs": [
        {
          "internalType": "address",
          "name": "approver",
          "type": "address"
        }
      ],
      "name": "ERC1155InvalidApprover",
      "type": "error"
    },
    {
      "inputs": [
        {
          "internalType": "uint256",
          "name": "idsLength",
          "type": "uint256"
        },
        {
          "internalType": "uint256",
          "name": "valuesLength",
          "type": "uint256"
        }
      ],
      "name": "ERC1155InvalidArrayLength",
      "type": "error"
    },
    {
      "inputs": [
        {
          "internalType": "address",
          "name": "operator",
          "type": "address"
        }
      ],
      "name": "ERC1155InvalidOperator",
      "type": "error"
    },
    {
      "inputs": [
        {
          "internalType": "address",
          "name": "receiver",
          "type": "address"
        }
      ],
      "name": "ERC1155InvalidReceiver",
      "type": "error"
    },
    {
      "inputs": [
        {
          "internalType": "address",
          "name": "sender",
          "type": "address"
        }
      ],
      "name": "ERC1155InvalidSender",
      "type": "error"
    },
    {
      "inputs": [
        {
          "internalType": "address",
          "name": "operator",
          "type": "address"
        },
        {
          "internalType": "address",
          "name": "owner",
          "type": "address"
        }
      ],
      "name": "ERC1155MissingApprovalForAll",
      "type": "error"
    },
    {
      "inputs": [
        {
          "internalType": "address",
          "name": "owner",
          "type": "address"
        }
      ],
      "name": "OwnableInvalidOwner",
      "type": "error"
    },
    {
      "inputs": [
        {
          "internalType": "address",
          "name": "account",
          "type": "address"
        }
      ],
      "name": "OwnableUnauthorizedAccount",
      "type": "error"
    },
    {
      "anonymous": false,
      "inputs": [
        {
          "indexed": true,
          "internalType": "address",
          "name": "account",
          "type": "address"
        },
        {
          "indexed": true,
          "internalType": "address",
          "name": "operator",
          "type": "address"
        },
        {
          "indexed": false,
          "internalType": "bool",
          "name": "approved",
          "type": "bool"
        }
      ],
      "name": "ApprovalForAll",
      "type": "event"
    },
    {
      "anonymous": false,
      "inputs": [
        {
          "indexed": true,
          "internalType": "address",
          "name": "previousOwner",
          "type": "address"
        },
        {
          "indexed": true,
          "internalType": "address",
          "name": "newOwner",
          "type": "address"
        }
      ],
      "name": "OwnershipTransferred",
      "type": "event"
    },
    {
      "anonymous": false,
      "inputs": [
        {
          "indexed": true,
          "internalType": "address",
          "name": "operator",
          "type": "address"
        },
        {
          "indexed": true,
          "internalType": "address",
          "name": "from",
          "type": "address"
        },
        {
          "indexed": true,
          "internalType": "address",
          "name": "to",
          "type": "address"
        },
        {
          "indexed": false,
          "internalType": "uint256[]",
          "name": "ids",
          "type": "uint256[]"
        },
        {
          "indexed": false,
          "internalType": "uint256[]",
          "name": "values",
          "type": "uint256[]"
        }
      ],
      "name": "TransferBatch",
      "type": "event"
    },
    {
      "anonymous": false,
      "inputs": [
        {
          "indexed": true,
          "internalType": "address",
          "name": "operator",
          "type": "address"
        },
        {
          "indexed": true,
          "internalType": "address",
          "name": "from",
          "type": "address"
        },
        {
          "indexed": true,
          "internalType": "address",
          "name": "to",
          "type": "address"
        },
        {
          "indexed": false,
          "internalType": "uint256",
          "name": "id",
          "type": "uint256"
        },
        {
          "indexed": false,
          "internalType": "uint256",
          "name": "value",
          "type": "uint256"
        }
      ],
      "name": "TransferSingle",
      "type": "event"
    },
    {
      "anonymous": false,
      "inputs": [
        {
          "indexed": false,
          "internalType": "string",
          "name": "value",
          "type": "string"
        },
        {
          "indexed": true,
          "internalType": "uint256",
          "name": "id",
          "type": "uint256"
        }
      ],
      "name": "URI",
      "type": "event"
    },
    {
      "inputs": [
        {
          "internalType": "address",
          "name": "account",
          "type": "address"
        },
        {
          "internalType": "uint256",
          "name": "id",
          "type": "uint256"
        }
      ],
      "name": "balanceOf",
      "outputs": [
        {
          "internalType": "uint256",
          "name": "",
          "type": "uint256"
        }
      ],
      "stateMutability": "view",
      "type": "function"
    },
    {
      "inputs": [
        {
          "internalType": "address[]",
          "name": "accounts",
          "type": "address[]"
        },
        {
          "internalType": "uint256[]",
          "name": "ids",
          "type": "uint256[]"
        }
      ],
      "name": "balanceOfBatch",
      "outputs": [
        {
          "internalType": "uint256[]",
          "name": "",
          "type": "uint256[]"
        }
      ],
      "stateMutability": "view",
      "type": "function"
    },
    {
      "inputs": [
        {
          "internalType": "address",
          "name": "account",
          "type": "address"
        },
        {
          "internalType": "address",
          "name": "operator",
          "type": "address"
        }
      ],
      "name": "isApprovedForAll",
      "outputs": [
        {
          "internalType": "bool",
          "name": "",
          "type": "bool"
        }
      ],
      "stateMutability": "view",
      "type": "function"
    },
    {
      "inputs": [
        {
          "internalType": "address",
          "name": "to",
          "type": "address"
        },
        {
          "internalType": "uint256",
          "name": "id",
          "type": "uint256"
        },
        {
          "internalType": "uint256",
          "name": "amount",
          "type": "uint256"
        }
      ],
      "name": "mint",
      "outputs": [],
      "stateMutability": "nonpayable",
      "type": "function"
    },
    {
      "inputs": [],
      "name": "owner",
      "outputs": [
        {
          "internalType": "address",
          "name": "",
          "type": "address"
        }
      ],
      "stateMutability": "view",
      "type": "function"
    },
    {
      "inputs": [],
      "name": "renounceOwnership",
      "outputs": [],
      "stateMutability": "nonpayable",
      "type": "function"
    },
    {
      "inputs": [
        {
          "internalType": "address",
          "name": "from",
          "type": "address"
        },
        {
          "internalType": "address",
          "name": "to",
          "type": "address"
        },
        {
          "internalType": "uint256[]",
          "name": "ids",
          "type": "uint256[]"
        },
        {
          "internalType": "uint256[]",
          "name": "values",
          "type": "uint256[]"
        },
        {
          "internalType": "bytes",
          "name": "data",
          "type": "bytes"
        }
      ],
      "name": "safeBatchTransferFrom",
      "outputs": [],
      "stateMutability": "nonpayable",
      "type": "function"
    },
    {
      "inputs": [
        {
          "internalType": "address",
          "name": "from",
          "type": "address"
        },
        {
          "internalType": "address",
          "name": "to",
          "type": "address"
        },
        {
          "internalType": "uint256",
          "name": "id",
          "type": "uint256"
        },
        {
          "internalType": "uint256",
          "name": "value",
          "type": "uint256"
        },
        {
          "internalType": "bytes",
          "name": "data",
          "type": "bytes"
        }
      ],
      "name": "safeTransferFrom",
      "outputs": [],
      "stateMutability": "nonpayable",
      "type": "function"
    },
    {
      "inputs": [
        {
          "internalType": "address",
          "name": "operator",
          "type": "address"
        },
        {
          "internalType": "bool",
          "name": "approved",
          "type": "bool"
        }
      ],
      "name": "setApprovalForAll",
      "outputs": [],
      "stateMutability": "nonpayable",
      "type": "function"
    },
    {
      "inputs": [
        {
          "internalType": "bytes4",
          "name": "interfaceId",
          "type": "bytes4"
        }
      ],
      "name": "supportsInterface",
      "outputs": [
        {
          "internalType": "bool",
          "name": "",
          "type": "bool"
        }
      ],
      "stateMutability": "view",
      "type": "function"
    },
    {
      "inputs": [
        {
          "internalType": "address",
          "name": "newOwner",
          "type": "address"
        }
      ],
      "name": "transferOwnership",
      "outputs": [],
      "stateMutability": "nonpayable",
      "type": "function"
    },
    {
      "inputs": [
        {
          "internalType": "uint256",
          "name": "",
          "type": "uint256"
        }
      ],
      "name": "uri",
      "outputs": [
        {
          "internalType": "string",
          "name": "",
          "type": "string"
        }
      ],
      "stateMutability": "view",
      "type": "function"
    }
  ],
  "bytecode": "0x60806040523480156200001157600080fd5b506040516200371238038062003712833981810160405281019062000037919062000baa565b806040518060600160405280602a8152602001620036e8602a913962000063816200013c60201b60201c565b50600073ffffffffffffffffffffffffffffffffffffffff168173ffffffffffffffffffffffffffffffffffffffff1603620000d95760006040517f1e4fbdf7000000000000000000000000000000000000000000000000000000008152600401620000d0919062000bed565b60405180910390fd5b620000ea816200015160201b60201c565b50620001108160016064604051806020016040528060008152506200021760201b60201c565b620001358160026032604051806020016040528060008152506200021760201b60201c565b50620013b5565b80600290816200014d919062000e84565b5050565b6000600360009054906101000a900473ffffffffffffffffffffffffffffffffffffffff16905081600360006101000a81548173ffffffffffffffffffffffffffffffffffffffff021916908373ffffffffffffffffffffffffffffffffffffffff1602179055508173ffffffffffffffffffffffffffffffffffffffff168173ffffffffffffffffffffffffffffffffffffffff167f8be0079c531659141344cd1fd0a4f28419497f9722a3daafe3b4186f6b6457e060405160405180910390a35050565b600073ffffffffffffffffffffffffffffffffffffffff168473ffffffffffffffffffffffffffffffffffffffff16036200028c5760006040517f57f447ce00000000000000000000000000000000000000000000000000000000815260040162000283919062000bed565b60405180910390fd5b600080620002a18585620002c360201b60201c565b91509150620002bb600087848487620002f360201b60201c565b505050505050565b60608060405191506001825283602083015260408201905060018152826020820152604081016040529250929050565b6200030785858585620003cc60201b60201c565b600073ffffffffffffffffffffffffffffffffffffffff168473ffffffffffffffffffffffffffffffffffffffff1614620003c55760006200034e6200079e60201b60201c565b90506001845103620003ac57600062000372600086620007a660201b90919060201c565b905060006200038c600086620007a660201b90919060201c565b9050620003a4838989858589620007ba60201b60201c565b5050620003c3565b620003c28187878787876200097d60201b60201c565b5b505b5050505050565b80518251146200041957815181516040517f5b0599910000000000000000000000000000000000000000000000000000000081526004016200041092919062000f7c565b60405180910390fd5b60006200042b6200079e60201b60201c565b905060005b83518110156200064f576000620004518286620007a660201b90919060201c565b905060006200046a8386620007a660201b90919060201c565b9050600073ffffffffffffffffffffffffffffffffffffffff168873ffffffffffffffffffffffffffffffffffffffff16146200059b57600080600084815260200190815260200160002060008a73ffffffffffffffffffffffffffffffffffffffff1673ffffffffffffffffffffffffffffffffffffffff168152602001908152602001600020549050818110156200054357888183856040517f03dee4c50000000000000000000000000000000000000000000000000000000081526004016200053a949392919062000fa9565b60405180910390fd5b81810360008085815260200190815260200160002060008b73ffffffffffffffffffffffffffffffffffffffff1673ffffffffffffffffffffffffffffffffffffffff16815260200190815260200160002081905550505b600073ffffffffffffffffffffffffffffffffffffffff168773ffffffffffffffffffffffffffffffffffffffff161462000639578060008084815260200190815260200160002060008973ffffffffffffffffffffffffffffffffffffffff1673ffffffffffffffffffffffffffffffffffffffff168152602001908152602001600020600082825462000631919062001025565b925050819055505b505080620006479062001060565b905062000430565b5060018351036200071657600062000672600085620007a660201b90919060201c565b905060006200068c600085620007a660201b90919060201c565b90508573ffffffffffffffffffffffffffffffffffffffff168773ffffffffffffffffffffffffffffffffffffffff168473ffffffffffffffffffffffffffffffffffffffff167fc3d58168c5ae7397731d063d5bbf3d657854427343f4c083240f7aacaa2d0f6285856040516200070692919062000f7c565b60405180910390a4505062000797565b8373ffffffffffffffffffffffffffffffffffffffff168573ffffffffffffffffffffffffffffffffffffffff168273ffffffffffffffffffffffffffffffffffffffff167f4a39dc06d4c0dbc64b70af90fd698a233a518aa5d07e595d983b8c0526c8f7fb86866040516200078e9291906200117b565b60405180910390a45b5050505050565b600033905090565b600060208202602084010151905092915050565b60008473ffffffffffffffffffffffffffffffffffffffff163b111562000975578373ffffffffffffffffffffffffffffffffffffffff1663f23a6e6187878686866040518663ffffffff1660e01b81526004016200081e95949392919062001250565b6020604051808303816000875af19250505080156200085d57506040513d601f19601f820116820180604052508101906200085a919062001311565b60015b620008e7573d806000811462000890576040519150601f19603f3d011682016040523d82523d6000602084013e62000895565b606091505b506000815103620008df57846040517f57f447ce000000000000000000000000000000000000000000000000000000008152600401620008d6919062000bed565b60405180910390fd5b805181602001fd5b63f23a6e6160e01b7bffffffffffffffffffffffffffffffffffffffffffffffffffffffff1916817bffffffffffffffffffffffffffffffffffffffffffffffffffffffff1916146200097357846040517f57f447ce0000000000000000000000000000000000000000000000000000000081526004016200096a919062000bed565b60405180910390fd5b505b505050505050565b60008473ffffffffffffffffffffffffffffffffffffffff163b111562000b38578373ffffffffffffffffffffffffffffffffffffffff1663bc197c8187878686866040518663ffffffff1660e01b8152600401620009e195949392919062001343565b6020604051808303816000875af192505050801562000a2057506040513d601f19601f8201168201806040525081019062000a1d919062001311565b60015b62000aaa573d806000811462000a53576040519150601f19603f3d011682016040523d82523d6000602084013e62000a58565b606091505b50600081510362000aa257846040517f57f447ce00000000000000000000000000000000000000000000000000000000815260040162000a99919062000bed565b60405180910390fd5b805181602001fd5b63bc197c8160e01b7bffffffffffffffffffffffffffffffffffffffffffffffffffffffff1916817bffffffffffffffffffffffffffffffffffffffffffffffffffffffff19161462000b3657846040517f57f447ce00000000000000000000000000000000000000000000000000000000815260040162000b2d919062000bed565b60405180910390fd5b505b505050505050565b600080fd5b600073ffffffffffffffffffffffffffffffffffffffff82169050919050565b600062000b728262000b45565b9050919050565b62000b848162000b65565b811462000b9057600080fd5b50565b60008151905062000ba48162000b79565b92915050565b60006020828403121562000bc35762000bc262000b40565b5b600062000bd38482850162000b93565b91505092915050565b62000be78162000b65565b82525050565b600060208201905062000c04600083018462000bdc565b92915050565b600081519050919050565b7f4e487b7100000000000000000000000000000000000000000000000000000000600052604160045260246000fd5b7f4e487b7100000000000000000000000000000000000000000000000000000000600052602260045260246000fd5b6000600282049050600182168062000c8c57607f821691505b60208210810362000ca25762000ca162000c44565b5b50919050565b60008190508160005260206000209050919050565b60006020601f8301049050919050565b600082821b905092915050565b60006008830262000d0c7fffffffffffffffffffffffffffffffffffffffffffffffffffffffffffffffff8262000ccd565b62000d18868362000ccd565b95508019841693508086168417925050509392505050565b6000819050919050565b6000819050919050565b600062000d6562000d5f62000d598462000d30565b62000d3a565b62000d30565b9050919050565b6000819050919050565b62000d818362000d44565b62000d9962000d908262000d6c565b84845462000cda565b825550505050565b600090565b62000db062000da1565b62000dbd81848462000d76565b505050565b5b8181101562000de55762000dd960008262000da6565b60018101905062000dc3565b5050565b601f82111562000e345762000dfe8162000ca8565b62000e098462000cbd565b8101602085101562000e19578190505b62000e3162000e288562000cbd565b83018262000dc2565b50505b505050565b600082821c905092915050565b600062000e596000198460080262000e39565b1980831691505092915050565b600062000e74838362000e46565b9150826002028217905092915050565b62000e8f8262000c0a565b67ffffffffffffffff81111562000eab5762000eaa62000c15565b5b62000eb7825462000c73565b62000ec482828562000de9565b600060209050601f83116001811462000efc576000841562000ee7578287015190505b62000ef3858262000e66565b86555062000f63565b601f19841662000f0c8662000ca8565b60005b8281101562000f365784890151825560018201915060208501945060208101905062000f0f565b8683101562000f56578489015162000f52601f89168262000e46565b8355505b6001600288020188555050505b505050505050565b62000f768162000d30565b82525050565b600060408201905062000f93600083018562000f6b565b62000fa2602083018462000f6b565b9392505050565b600060808201905062000fc0600083018762000bdc565b62000fcf602083018662000f6b565b62000fde604083018562000f6b565b62000fed606083018462000f6b565b95945050505050565b7f4e487b7100000000000000000000000000000000000000000000000000000000600052601160045260246000fd5b6000620010328262000d30565b91506200103f8362000d30565b92508282019050808211156200105a576200105962000ff6565b5b92915050565b60006200106d8262000d30565b91507fffffffffffffffffffffffffffffffffffffffffffffffffffffffffffffffff8203620010a257620010a162000ff6565b5b600182019050919050565b600081519050919050565b600082825260208201905092915050565b6000819050602082019050919050565b620010e48162000d30565b82525050565b6000620010f88383620010d9565b60208301905092915050565b6000602082019050919050565b60006200111e82620010ad565b6200112a8185620010b8565b93506200113783620010c9565b8060005b838110156200116e578151620011528882620010ea565b97506200115f8362001104565b9250506001810190506200113b565b5085935050505092915050565b6000604082019050818103600083015262001197818562001111565b90508181036020830152620011ad818462001111565b90509392505050565b600081519050919050565b600082825260208201905092915050565b60005b83811015620011f2578082015181840152602081019050620011d5565b60008484015250505050565b6000601f19601f8301169050919050565b60006200121c82620011b6565b620012288185620011c1565b93506200123a818560208601620011d2565b6200124581620011fe565b840191505092915050565b600060a08201905062001267600083018862000bdc565b62001276602083018762000bdc565b62001285604083018662000f6b565b62001294606083018562000f6b565b8181036080830152620012a881846200120f565b90509695505050505050565b60007fffffffff0000000000000000000000000000000000000000000000000000000082169050919050565b620012eb81620012b4565b8114620012f757600080fd5b50565b6000815190506200130b81620012e0565b92915050565b6000602082840312156200132a576200132962000b40565b5b60006200133a84828501620012fa565b91505092915050565b600060a0820190506200135a600083018862000bdc565b62001369602083018762000bdc565b81810360408301526200137d818662001111565b9050818103606083015262001393818562001111565b90508181036080830152620013a981846200120f565b90509695505050505050565b61232380620013c56000396000f3fe608060405234801561001057600080fd5b50600436106100b35760003560e01c8063715018a611610071578063715018a6146101b05780638da5cb5b146101ba578063a22cb465146101d8578063e985e9c5146101f4578063f242432a14610224578063f2fde38b14610240576100b3565b8062fdd58e146100b857806301ffc9a7146100e85780630e89341c14610118578063156e29f6146101485780632eb2c2d6146101645780634e1273f414610180575b600080fd5b6100d260048036038101906100cd91906116b4565b61025c565b6040516100df9190611703565b60405180910390f35b61010260048036038101906100fd9190611776565b6102b6565b60405161010f91906117be565b60405180910390f35b610132600480360381019061012d91906117d9565b610398565b60405161013f9190611896565b60405180910390f35b610162600480360381019061015d91906118b8565b61042c565b005b61017e60048036038101906101799190611b08565b610454565b005b61019a60048036038101906101959190611c9a565b6104fc565b6040516101a79190611dd0565b60405180910390f35b6101b861060b565b005b6101c261061f565b6040516101cf9190611e01565b60405180910390f35b6101f260048036038101906101ed9190611e48565b610649565b005b61020e60048036038101906102099190611e88565b61065f565b60405161021b91906117be565b60405180910390f35b61023e60048036038101906102399190611ec8565b6106f3565b005b61025a60048036038101906102559190611f5f565b61079b565b005b600080600083815260200190815260200160002060008473ffffffffffffffffffffffffffffffffffffffff1673ffffffffffffffffffffffffffffffffffffffff16815260200190815260200160002054905092915050565b60007fd9b67a26000000000000000000000000000000000000000000000000000000007bffffffffffffffffffffffffffffffffffffffffffffffffffffffff1916827bffffffffffffffffffffffffffffffffffffffffffffffffffffffff1916148061038157507f0e89341c000000000000000000000000000000000000000000000000000000007bffffffffffffffffffffffffffffffffffffffffffffffffffffffff1916827bffffffffffffffffffffffffffffffffffffffffffffffffffffffff1916145b80610391575061039082610821565b5b9050919050565b6060600280546103a790611fbb565b80601f01602080910402602001604051908101604052809291908181526020018280546103d390611fbb565b80156104205780601f106103f557610100808354040283529160200191610420565b820191906000526020600020905b81548152906001019060200180831161040357829003601f168201915b50505050509050919050565b61043461088b565b61044f83838360405180602001604052806000815250610912565b505050565b600061045e6109ab565b90508073ffffffffffffffffffffffffffffffffffffffff168673ffffffffffffffffffffffffffffffffffffffff16141580156104a357506104a1868261065f565b155b156104e75780866040517fe237d9220000000000000000000000000000000000000000000000000000000081526004016104de929190611fec565b60405180910390fd5b6104f486868686866109b3565b505050505050565b6060815183511461054857815183516040517f5b05999100000000000000000000000000000000000000000000000000000000815260040161053f929190612015565b60405180910390fd5b6000835167ffffffffffffffff81111561056557610564611910565b5b6040519080825280602002602001820160405280156105935781602001602082028036833780820191505090505b50905060005b8451811015610600576105d06105b88287610aab90919063ffffffff16565b6105cb8387610abf90919063ffffffff16565b61025c565b8282815181106105e3576105e261203e565b5b602002602001018181525050806105f99061209c565b9050610599565b508091505092915050565b61061361088b565b61061d6000610ad3565b565b6000600360009054906101000a900473ffffffffffffffffffffffffffffffffffffffff16905090565b61065b6106546109ab565b8383610b99565b5050565b6000600160008473ffffffffffffffffffffffffffffffffffffffff1673ffffffffffffffffffffffffffffffffffffffff16815260200190815260200160002060008373ffffffffffffffffffffffffffffffffffffffff1673ffffffffffffffffffffffffffffffffffffffff16815260200190815260200160002060009054906101000a900460ff16905092915050565b60006106fd6109ab565b90508073ffffffffffffffffffffffffffffffffffffffff168673ffffffffffffffffffffffffffffffffffffffff16141580156107425750610740868261065f565b155b156107865780866040517fe237d92200000000000000000000000000000000000000000000000000000000815260040161077d929190611fec565b60405180910390fd5b6107938686868686610d09565b505050505050565b6107a361088b565b600073ffffffffffffffffffffffffffffffffffffffff168173ffffffffffffffffffffffffffffffffffffffff16036108155760006040517f1e4fbdf700000000000000000000000000000000000000000000000000000000815260040161080c9190611e01565b60405180910390fd5b61081e81610ad3565b50565b60007f01ffc9a7000000000000000000000000000000000000000000000000000000007bffffffffffffffffffffffffffffffffffffffffffffffffffffffff1916827bffffffffffffffffffffffffffffffffffffffffffffffffffffffff1916149050919050565b6108936109ab565b73ffffffffffffffffffffffffffffffffffffffff166108b161061f565b73ffffffffffffffffffffffffffffffffffffffff1614610910576108d46109ab565b6040517f118cdaa70000000000000000000000000000000000000000000000000000000081526004016109079190611e01565b60405180910390fd5b565b600073ffffffffffffffffffffffffffffffffffffffff168473ffffffffffffffffffffffffffffffffffffffff16036109845760006040517f57f447ce00000000000000000000000000000000000000000000000000000000815260040161097b9190611e01565b60405180910390fd5b6000806109918585610e14565b915091506109a3600087848487610e44565b505050505050565b600033905090565b600073ffffffffffffffffffffffffffffffffffffffff168473ffffffffffffffffffffffffffffffffffffffff1603610a255760006040517f57f447ce000000000000000000000000000000000000000000000000000000008152600401610a1c9190611e01565b60405180910390fd5b600073ffffffffffffffffffffffffffffffffffffffff168573ffffffffffffffffffffffffffffffffffffffff1603610a975760006040517f01a83514000000000000000000000000000000000000000000000000000000008152600401610a8e9190611e01565b60405180910390fd5b610aa48585858585610e44565b5050505050565b600060208202602084010151905092915050565b600060208202602084010151905092915050565b6000600360009054906101000a900473ffffffffffffffffffffffffffffffffffffffff16905081600360006101000a81548173ffffffffffffffffffffffffffffffffffffffff021916908373ffffffffffffffffffffffffffffffffffffffff1602179055508173ffffffffffffffffffffffffffffffffffffffff168173ffffffffffffffffffffffffffffffffffffffff167f8be0079c531659141344cd1fd0a4f28419497f9722a3daafe3b4186f6b6457e060405160405180910390a35050565b600073ffffffffffffffffffffffffffffffffffffffff168273ffffffffffffffffffffffffffffffffffffffff1603610c0b5760006040517fced3e100000000000000000000000000000000000000000000000000000000008152600401610c029190611e01565b60405180910390fd5b80600160008573ffffffffffffffffffffffffffffffffffffffff1673ffffffffffffffffffffffffffffffffffffffff16815260200190815260200160002060008473ffffffffffffffffffffffffffffffffffffffff1673ffffffffffffffffffffffffffffffffffffffff16815260200190815260200160002060006101000a81548160ff0219169083151502179055508173ffffffffffffffffffffffffffffffffffffffff168373ffffffffffffffffffffffffffffffffffffffff167f17307eab39ab6107e8899845ad3d59bd9653f200f220920489ca2b5937696c3183604051610cfc91906117be565b60405180910390a3505050565b600073ffffffffffffffffffffffffffffffffffffffff168473ffffffffffffffffffffffffffffffffffffffff1603610d7b5760006040517f57f447ce000000000000000000000000000000000000000000000000000000008152600401610d729190611e01565b60405180910390fd5b600073ffffffffffffffffffffffffffffffffffffffff168573ffffffffffffffffffffffffffffffffffffffff1603610ded5760006040517f01a83514000000000000000000000000000000000000000000000000000000008152600401610de49190611e01565b60405180910390fd5b600080610dfa8585610e14565b91509150610e0b8787848487610e44565b50505050505050565b60608060405191506001825283602083015260408201905060018152826020820152604081016040529250929050565b610e5085858585610ef6565b600073ffffffffffffffffffffffffffffffffffffffff168473ffffffffffffffffffffffffffffffffffffffff1614610eef576000610e8e6109ab565b90506001845103610ede576000610eaf600086610abf90919063ffffffff16565b90506000610ec7600086610abf90919063ffffffff16565b9050610ed78389898585896112a4565b5050610eed565b610eec818787878787611458565b5b505b5050505050565b8051825114610f4057815181516040517f5b059991000000000000000000000000000000000000000000000000000000008152600401610f37929190612015565b60405180910390fd5b6000610f4a6109ab565b905060005b835181101561115f576000610f6d8286610abf90919063ffffffff16565b90506000610f848386610abf90919063ffffffff16565b9050600073ffffffffffffffffffffffffffffffffffffffff168873ffffffffffffffffffffffffffffffffffffffff16146110b157600080600084815260200190815260200160002060008a73ffffffffffffffffffffffffffffffffffffffff1673ffffffffffffffffffffffffffffffffffffffff1681526020019081526020016000205490508181101561105957888183856040517f03dee4c500000000000000000000000000000000000000000000000000000000815260040161105094939291906120e4565b60405180910390fd5b81810360008085815260200190815260200160002060008b73ffffffffffffffffffffffffffffffffffffffff1673ffffffffffffffffffffffffffffffffffffffff16815260200190815260200160002081905550505b600073ffffffffffffffffffffffffffffffffffffffff168773ffffffffffffffffffffffffffffffffffffffff161461114c578060008084815260200190815260200160002060008973ffffffffffffffffffffffffffffffffffffffff1673ffffffffffffffffffffffffffffffffffffffff16815260200190815260200160002060008282546111449190612129565b925050819055505b5050806111589061209c565b9050610f4f565b50600183510361121e57600061117f600085610abf90919063ffffffff16565b90506000611197600085610abf90919063ffffffff16565b90508573ffffffffffffffffffffffffffffffffffffffff168773ffffffffffffffffffffffffffffffffffffffff168473ffffffffffffffffffffffffffffffffffffffff167fc3d58168c5ae7397731d063d5bbf3d657854427343f4c083240f7aacaa2d0f62858560405161120f929190612015565b60405180910390a4505061129d565b8373ffffffffffffffffffffffffffffffffffffffff168573ffffffffffffffffffffffffffffffffffffffff168273ffffffffffffffffffffffffffffffffffffffff167f4a39dc06d4c0dbc64b70af90fd698a233a518aa5d07e595d983b8c0526c8f7fb868660405161129492919061215d565b60405180910390a45b5050505050565b60008473ffffffffffffffffffffffffffffffffffffffff163b1115611450578373ffffffffffffffffffffffffffffffffffffffff1663f23a6e6187878686866040518663ffffffff1660e01b81526004016113059594939291906121e9565b6020604051808303816000875af192505050801561134157506040513d601f19601f8201168201806040525081019061133e9190612258565b60015b6113c5573d8060008114611371576040519150601f19603f3d011682016040523d82523d6000602084013e611376565b606091505b5060008151036113bd57846040517f57f447ce0000000000000000000000000000000000000000000000000000000081526004016113b49190611e01565b60405180910390fd5b805181602001fd5b63f23a6e6160e01b7bffffffffffffffffffffffffffffffffffffffffffffffffffffffff1916817bffffffffffffffffffffffffffffffffffffffffffffffffffffffff19161461144e57846040517f57f447ce0000000000000000000000000000000000000000000000000000000081526004016114459190611e01565b60405180910390fd5b505b505050505050565b60008473ffffffffffffffffffffffffffffffffffffffff163b1115611604578373ffffffffffffffffffffffffffffffffffffffff1663bc197c8187878686866040518663ffffffff1660e01b81526004016114b9959493929190612285565b6020604051808303816000875af19250505080156114f557506040513d601f19601f820116820180604052508101906114f29190612258565b60015b611579573d8060008114611525576040519150601f19603f3d011682016040523d82523d6000602084013e61152a565b606091505b50600081510361157157846040517f57f447ce0000000000000000000000000000000000000000000000000000000081526004016115689190611e01565b60405180910390fd5b805181602001fd5b63bc197c8160e01b7bffffffffffffffffffffffffffffffffffffffffffffffffffffffff1916817bffffffffffffffffffffffffffffffffffffffffffffffffffffffff19161461160257846040517f57f447ce0000000000000000000000000000000000000000000000000000000081526004016115f99190611e01565b60405180910390fd5b505b505050505050565b6000604051905090565b600080fd5b600080fd5b600073ffffffffffffffffffffffffffffffffffffffff82169050919050565b600061164b82611620565b9050919050565b61165b81611640565b811461166657600080fd5b50565b60008135905061167881611652565b92915050565b6000819050919050565b6116918161167e565b811461169c57600080fd5b50565b6000813590506116ae81611688565b92915050565b600080604083850312156116cb576116ca611616565b5b60006116d985828601611669565b92505060206116ea8582860161169f565b9150509250929050565b6116fd8161167e565b82525050565b600060208201905061171860008301846116f4565b92915050565b60007fffffffff0000000000000000000000000000000000000000000000000000000082169050919050565b6117538161171e565b811461175e57600080fd5b50565b6000813590506117708161174a565b92915050565b60006020828403121561178c5761178b611616565b5b600061179a84828501611761565b91505092915050565b60008115159050919050565b6117b8816117a3565b82525050565b60006020820190506117d360008301846117af565b92915050565b6000602082840312156117ef576117ee611616565b5b60006117fd8482850161169f565b91505092915050565b600081519050919050565b600082825260208201905092915050565b60005b83811015611840578082015181840152602081019050611825565b60008484015250505050565b6000601f19601f8301169050919050565b600061186882611806565b6118728185611811565b9350611882818560208601611822565b61188b8161184c565b840191505092915050565b600060208201905081810360008301526118b0818461185d565b905092915050565b6000806000606084860312156118d1576118d0611616565b5b60006118df86828701611669565b93505060206118f08682870161169f565b92505060406119018682870161169f565b9150509250925092565b600080fd5b7f4e487b7100000000000000000000000000000000000000000000000000000000600052604160045260246000fd5b6119488261184c565b810181811067ffffffffffffffff8211171561196757611966611910565b5b80604052505050565b600061197a61160c565b9050611986828261193f565b919050565b600067ffffffffffffffff8211156119a6576119a5611910565b5b602082029050602081019050919050565b600080fd5b60006119cf6119ca8461198b565b611970565b905080838252602082019050602084028301858111156119f2576119f16119b7565b5b835b81811015611a1b5780611a07888261169f565b8452602084019350506020810190506119f4565b5050509392505050565b600082601f830112611a3a57611a3961190b565b5b8135611a4a8482602086016119bc565b91505092915050565b600080fd5b600067ffffffffffffffff821115611a7357611a72611910565b5b611a7c8261184c565b9050602081019050919050565b82818337600083830152505050565b6000611aab611aa684611a58565b611970565b905082815260208101848484011115611ac757611ac6611a53565b5b611ad2848285611a89565b509392505050565b600082601f830112611aef57611aee61190b565b5b8135611aff848260208601611a98565b91505092915050565b600080600080600060a08688031215611b2457611b23611616565b5b6000611b3288828901611669565b9550506020611b4388828901611669565b945050604086013567ffffffffffffffff811115611b6457611b6361161b565b5b611b7088828901611a25565b935050606086013567ffffffffffffffff811115611b9157611b9061161b565b5b611b9d88828901611a25565b925050608086013567ffffffffffffffff811115611bbe57611bbd61161b565b5b611bca88828901611ada565b9150509295509295909350565b600067ffffffffffffffff821115611bf257611bf1611910565b5b602082029050602081019050919050565b6000611c16611c1184611bd7565b611970565b90508083825260208201905060208402830185811115611c3957611c386119b7565b5b835b81811015611c625780611c4e8882611669565b845260208401935050602081019050611c3b565b5050509392505050565b600082601f830112611c8157611c8061190b565b5b8135611c91848260208601611c03565b91505092915050565b60008060408385031215611cb157611cb0611616565b5b600083013567ffffffffffffffff811115611ccf57611cce61161b565b5b611cdb85828601611c6c565b925050602083013567ffffffffffffffff811115611cfc57611cfb61161b565b5b611d0885828601611a25565b9150509250929050565b600081519050919050565b600082825260208201905092915050565b6000819050602082019050919050565b611d478161167e565b82525050565b6000611d598383611d3e565b60208301905092915050565b6000602082019050919050565b6000611d7d82611d12565b611d878185611d1d565b9350611d9283611d2e565b8060005b83811015611dc3578151611daa8882611d4d565b9750611db583611d65565b925050600181019050611d96565b5085935050505092915050565b60006020820190508181036000830152611dea8184611d72565b905092915050565b611dfb81611640565b82525050565b6000602082019050611e166000830184611df2565b92915050565b611e25816117a3565b8114611e3057600080fd5b50565b600081359050611e4281611e1c565b92915050565b60008060408385031215611e5f57611e5e611616565b5b6000611e6d85828601611669565b9250506020611e7e85828601611e33565b9150509250929050565b60008060408385031215611e9f57611e9e611616565b5b6000611ead85828601611669565b9250506020611ebe85828601611669565b9150509250929050565b600080600080600060a08688031215611ee457611ee3611616565b5b6000611ef288828901611669565b9550506020611f0388828901611669565b9450506040611f148882890161169f565b9350506060611f258882890161169f565b925050608086013567ffffffffffffffff811115611f4657611f4561161b565b5b611f5288828901611ada565b9150509295509295909350565b600060208284031215611f7557611f74611616565b5b6000611f8384828501611669565b91505092915050565b7f4e487b7100000000000000000000000000000000000000000000000000000000600052602260045260246000fd5b60006002820490506001821680611fd357607f821691505b602082108103611fe657611fe5611f8c565b5b50919050565b60006040820190506120016000830185611df2565b61200e6020830184611df2565b9392505050565b600060408201905061202a60008301856116f4565b61203760208301846116f4565b9392505050565b7f4e487b7100000000000000000000000000000000000000000000000000000000600052603260045260246000fd5b7f4e487b7100000000000000000000000000000000000000000000000000000000600052601160045260246000fd5b60006120a78261167e565b91507fffffffffffffffffffffffffffffffffffffffffffffffffffffffffffffffff82036120d9576120d861206d565b5b600182019050919050565b60006080820190506120f96000830187611df2565b61210660208301866116f4565b61211360408301856116f4565b61212060608301846116f4565b95945050505050565b60006121348261167e565b915061213f8361167e565b92508282019050808211156121575761215661206d565b5b92915050565b600060408201905081810360008301526121778185611d72565b9050818103602083015261218b8184611d72565b90509392505050565b600081519050919050565b600082825260208201905092915050565b60006121bb82612194565b6121c5818561219f565b93506121d5818560208601611822565b6121de8161184c565b840191505092915050565b600060a0820190506121fe6000830188611df2565b61220b6020830187611df2565b61221860408301866116f4565b61222560608301856116f4565b818103608083015261223781846121b0565b90509695505050505050565b6000815190506122528161174a565b92915050565b60006020828403121561226e5761226d611616565b5b600061227c84828501612243565b91505092915050565b600060a08201905061229a6000830188611df2565b6122a76020830187611df2565b81810360408301526122b98186611d72565b905081810360608301526122cd8185611d72565b905081810360808301526122e181846121b0565b9050969550505050505056fea264697066735822122068162fab163b223c3268159cf4dcb8095da6b2ef8c0bcffaa00b6ca73966ad9364736f6c6343000814003368747470733a2f2f6170692e6578616d706c652e636f6d2f6d657461646174612f7b69647d2e6a736f6e",
  "linkReferences": {},
  "deployedLinkReferences": {}
}